:020000022000DC
:1060000000000120756302005D6302005F6302000F
:106010006163020063630200656302000000000028
:1060200000000000000000000000000067630200A4
:1060300069630200000000006B6302006D630200F0
:10604000A98302006F6302002D8702006F630200C4
:106050006F6302006F630200DD8502006F63020060
:106060006F6302006F6302006F6302006F630200E0
:106070006F6302006F6302006F6302006F630200D0
:106080006F630200F57502006F6302006F63020028
:106090006F6302006F630200558F02006F6302009E
:1060A0006F6302006F6302006F6302006F630200A0
:1060B0006F6302006F630200000000000000000038
:1060C0006F6302006F6302006F6302006F63020080
:1060D0006F6302006F6302006F6302000000000044
:1060E00000000000000000000000000000000000B0
:1060F00000000000000000000000000000000000A0
:10610000000000000000000000000000000000008F
:10611000000000000000000000000000000000007F
:10612000000000000000000000000000000000006F
:10613000000000000000000000000000000000005F
:10614000000000000000000000000000000000004F
:10615000000000000000000000000000000000003F
:10616000000000000000000000000000000000002F
:10617000000000000000000000000000000000001F
:10618000000000000000000000000000000000000F
:1061900000000000000000000000000000000000FF
:1061A00000000000000000000000000000000000EF
:1061B00000000000000000000000000000000000DF
:1061C00000000000000000000000000000000000CF
:1061D00000000000000000000000000000000000BF
:1061E00000000000000000000000000000000000AF
:1061F000000000000000000000000000000000009F
:10620000354936480A1A02D0072291438D4634494F
:1062100034480A1A06D00722914381F309880222E2
:1062200082F3148830483149314A00F044F831484B
:106230003149324A00F03FF831483249324A00F0E1
:106240003AF832483249334A00F035F83248334997
:10625000334A00F030F833483349344A00F02BF821
:1062600033483449344A00F026F83448344900228F
:1062700000F02CF833483449002200F027F8334866
:106280003349091A082902DB002202604160314AC1
:1062900090471F481F49884205D00268043003B464
:1062A000904703BCF7E700208646EC46002000211B
:1062B000294A9047FEE7884207D0521A05D0037852
:1062C00001300B700131013AF9D17047884202D098
:1062D00002700130FAE770470000012000E0002062
:1062E0000000012000000120E89D0200F0220020B3
:1062F00020230020D0630200D0630200029202003B
:10630000E89D0200F0220020F0220020E892020026
:10631000E8920200E8920200E8920200E89202008D
:10632000E8920200E8920200E8920200E69D020074
:10633000189E02002023002020230020202300207C
:10634000CA2D0020CC2D0020CC2D0020CC2D0020EB
:10635000CC4D00209D63020061870200FEE7FEE74E
:10636000FEE7FEE7FEE7FEE7FEE7FEE7FEE7FEE705
:1063700000F002B8FFF7FCBF0F484FF00701884359
:1063800085460E4880470E48016841F4700101605F
:10639000BFF34F8FBFF36F8FFFF732BF09480A4932
:1063A0000A4A884207D0521A05D0037801300B7090
:1063B0000131013AF9D17047000001200D7F020040
:1063C00088ED00E0E8920200F0220020F022002098
:1063D0007047000007B5044B0093044A402300F0C7
:1063E00032F803B05DF804FBF163020021230020C2
:1063F0002DE9F84388461446B2B10F4B0F4E0325E2
:10640000002743F00109224608EB0701002002F0B3
:1064100061FA0744241A48B933782BB14FF47A4013
:10642000C847013D02D13570BDE8F88301233370C0
:10643000002CE8D1F8E700BFF092020020230020F2
:10644000704702F07BBAF0B595B01D461646084677
:106450000C4601F079FC1A9B0D93CDE908650025E7
:106460002B46082205A920460A958DF82C500C953C
:1064700001F087FC079B0293069B03939DF8143061
:106480008DF8115003F00302012A1DD1BDF814202C
:10649000059DC3F3C203C2F383168DF81030B2001A
:1064A00008230EA9204601F06CFCC5F3952508AB26
:1064B0000093324602AB0EA9284600F027FB204687
:1064C00001F046FC15B0F0BD022AF8D1BDF8165017
:1064D000C3F3C203C5F389158DF810300827082DC2
:1064E0002E4628BF08263B4632460EA9204601F01C
:1064F00048FCAD1B08AB02AA31460EA8374400F099
:1065000069FB002DEBD1DAE708B5FFF79AFF0448E5
:10651000042100F065FA034B01225A7108BD00BF47
:10652000D8920200F0220020037813F0040216D063
:1065300003F00303012B03D0022B09D00120704785
:106540000A6800880232C0F3831002440A60F5E74B
:106550000B684288023303EB92130B60EEE71046A0
:10656000704700002DE9F04F87B000230446861CD9
:106570000DF107000F4615468DF8073000F0CCFEF0
:10658000404A51683960936803F580735B1A9246FC
:1065900002F21C4702F5836902F21448B3421AD38F
:1065A0000020002D69D004F00F039B0143F0050388
:1065B00063F30F00DAF80430DAB203321E444AF80B
:1065C00022009DF80700CAF8046000F0C9FE01200F
:1065D00007B0BDE8F08F0121384601F0E8F84846E1
:1065E00001F0FDF8404601F0FAF8DAF808000290F0
:1065F000C0B203300AEB800002A9FFF795FF029BAF
:1066000030BBDAB20AEB8202D16803919A1C0133E3
:10661000DBB20AEB83030292D3F80CB001F0030360
:10662000012B22D0022B15D08346404601F0DAF828
:1066300010B1029BCAF808305946384601F0B7F845
:10664000DAF80830DAF8042003F580739B1AA5E71E
:10665000D8B2CEE7BDF80E30C3F3891303334FEA47
:106660001B4B02EB93030293DFE7BDF80C30C3F33F
:1066700083134FEA1B4B1344F5E7A40544F00600CF
:1066800098E700BF34240020064B074810B50122CC
:106690001A7001F012FB044610B9044801F0A4FB83
:1066A000204610BD342400204C9202002C9302009E
:1066B00030B50A4C71B10A4A0A49121BD2080023AC
:1066C0009A4201D1002030BD31F82350854202D0DA
:1066D0000133F5E7034654F83300F4E76092020013
:1066E000D8920200F0220020094B013903EBC000D0
:1066F000032909D8DFE801F00A02040604207047E4
:106700000079704740797047002070470220704739
:1067100060920200034BD3E90130C31A584258413A
:10672000704700BF342400202DE9F04186B0FFF708
:10673000F1FF0546002840F0E680744CC4F81804C8
:10674000BFF34F8FA3680293DBB2033304EB8300E4
:1067500002A9FFF7E9FE029B18B1D4F81824002A19
:1067600055D0DAB2991C013304EB8202DBB204EBA0
:106770008303D268DB68049302F00303022B0392C5
:1067800002914FD1BDF80E306148C3F38917502FE5
:106790003E4628BF502666F38F1306F10801ADF878
:1067A0000E3001F0A2FA0546002800F0978001F0B3
:1067B000CBFA002303A90822284601F0D8FA02994F
:1067C000CB43DBB20133C9B20331B6EB830F4FEADF
:1067D000830804EB810122D908234246A6EB080670
:1067E000284601F0C4FAF6B24A4908F108033246D5
:1067F000284601F0BCFA029B033703EB9707029788
:10680000D4F81834002B41D1D4F8106451E06268F8
:106810009A4299D8A260284606B0BDE8F0810823C4
:106820003246E5E7012B59D1BDF80C303848C3F3A7
:106830008311062928BF062161F3891302318900DB
:10684000ADF80C3001F051FA0546002846D001F0B1
:106850007BFA0023082203A9284601F088FA0026C3
:10686000BDF80C20C2F38312B300964203F1080373
:10687000C6D202994A1CC9B20331029204EB8101CB
:106880000422284601F073FA0136E9E7284601F0B0
:106890005FFAFFF73FFF80F00100C5B2BBE7F36886
:1068A0005B7923B1336829461B6830469847F36803
:1068B0001E68002EF3D1284601F04AFA0DF10700B8
:1068C0008DF8076000F028FDD4F818340BB9029B4E
:1068D000A3609DF8070000F043FDDAE7D4F8104408
:1068E00054B90D4B0D480E49C01AC008000440F0C1
:1068F000020000F05DF8CCE7236820469B689847CB
:10690000E3681C68ECE7002585E700BF342400201D
:106910004C92020040240020609202008892020003
:10692000149302002DE9F34704460E46924601A94E
:10693000012218469946FFF715FE1B4F10B3019D23
:106940004FF00008AA1CC84508EB020123D11748E4
:10695000002100F0FDFE80F31000000440EA144026
:10696000E4006B1C04F03804DBB2EDB244F0010427
:1069700007EB8303033544EA881444EA8624D8608D
:1069800047F825403B781BB1FFF7CEFE0028FBD12E
:1069900002B0BDE8F087C9B207EB81015AF8283090
:1069A000CB6008F10108CEE73424002050280020F5
:1069B00000231A46FFF7B6BF07B50123019201AACB
:1069C000FFF7B0FF03B05DF804FB07B5CDE9002386
:1069D00002236A46FFF7A6FF03B05DF804FB000040
:1069E00030B50F49D1F8102403460020144634B9BD
:1069F000DC6820714AB9C1F81034226030BDE46807
:106A00002579854206D02468F1E7D26811682160B3
:106A10001360F3E701300A28E8D14FF0FF30EDE7CB
:106A200034240020084A38B50123D2F810441370EA
:106A30001D4604B938BDE3685D71236820465B6874
:106A40009847E3681C68F4E73424002007B5034640
:106A50000846197A052911D05B7A2BB1094A0A49EF
:106A6000019000F022FF01980849019000F01DFFFD
:106A7000019803B05DF804EB00F00CBF002AF8D0D9
:106A8000F2E700BF389302003D9302005D930200DD
:106A900030B5C38885B004460D4633B1144A009220
:106AA0001449154A284600F000FF217A05291DD017
:106AB000637A4BB1A088FFF717FE104B104953F8CB
:106AC0002020284600F0F1FE227A0E4BA08853F8D1
:106AD000222003920021FFF7EBFD039A0A490346A7
:106AE000284605B0BDE8304000F0DFBE05B030BD3F
:106AF000389302004893020040930200C4930200BE
:106B00003D930200E8930200609302002DE9F043F8
:106B100085B01F460C9D002395F80C902B730646FC
:106B20000C46904629463846FFF7B2FFB8F1060FEB
:106B300009D8DFE808F00412181F28334000314656
:106B4000284600F0B2FE002229463846FFF77EFFB5
:106B500085F80C9005B0BDE8F083226831462846E0
:106B600000F0A3FEEFE7D4E900233146284600F009
:106B70009CFEE8E7A36800933146D4E90023284649
:106B800000F093FEDFE7E3680193A36800933146CA
:106B9000D4E90023284600F088FED4E72369029355
:106BA000E3680193A36800933146D4E900232846A3
:106BB00000F07BFEC7E76369039323690293E368F0
:106BC0000193A36800933146D4E90023284600F0DE
:106BD0006CFEB8E708292DE9F74F80460E461746A8
:106BE0001C463CD8002593F80C901D73194610469E
:106BF000FFF74EFFDFF888A0DFF888B0AE4231D94A
:106C000018F805205946204600F04FFE0135082DA2
:106C1000F4D11949194DDFF870A0204600F045FE67
:106C20004FF0000B5E4522D918F80B207E2A05D8BC
:106C30001046019202F032FA019A00B92E22514612
:106C4000204600F032FE0BF1010BBBF1080FE9D139
:106C5000012221463846FFF7F9FE84F80C9003B074
:106C6000BDE8F08F5146204600F01FFECEE72946D2
:106C7000204600F01AFEE6E77493020072930200C9
:106C8000709302006A93020076930200C30710B566
:106C900007D4F023054A4008145C234019431154DB
:106CA00010BD0901C9B20F23F4E700BF202900205D
:106CB00030B5094B1C78094B196800239C4202DC53
:106CC0000022104630BD11F83350854201EBC3025B
:106CD000F7D00133F2E700BFEC2800203029002074
:106CE00013B504460191FFF7E3FF38B143682BB1B8
:106CF0000199204602B0BDE81040184702B010BD0F
:106D0000034B044819680022490800F014BA00BF78
:106D1000F0280020F828002010B5C0B2FFF7C8FF07
:106D20000446007801F050FC63785A1E53425341E8
:106D3000834208D1044BD3E90023134303D1BDE8B8
:106D40001040FFF7DDBF10BD1829002037B54308FC
:106D5000354AD35CC2074CBF1B0903F00F0304463E
:106D60000D46042B35D8DFE803F003252C383C0012
:106D700079B30121FFF78AFF00230DF107008DF899
:106D8000073000F0C9FA0120A4F12003C4F120016A
:106D9000264A20FA01F100FA03F30B43A040D2E99E
:106DA000004120430B43C2E900039DF8070000F0B7
:106DB000D7FA0EE0002918BF02212046FFF766FF30
:106DC00007E041B10321FFF761FF01212046FFF7F2
:106DD00087FF03B030BD0121EFE70029F9D104217D
:106DE000EBE709B10321E8E7FFF750FF294620460A
:106DF000FFF776FF0DF107008DF8075000F08CFAD1
:106E00000120A4F12003C4F12001084A20FA01F175
:106E100000FA03F30B43A040D2E9004124EA00004A
:106E200021EA0303BFE700BF202900201829002022
:106E30002DE9F041124E134F00243378A34208DCB1
:106E4000114BD3E90023134318D0BDE8F041FFF7FD
:106E500057BF3D6805EBC40815F8340001F0B4FBDA
:106E600098F801305A1E53425341181A4142414189
:106E700015F83400FFF76AFF0134DEE7BDE8F08162
:106E8000EC2800203029002018290020092AF7B515
:106E900005460C4616463CD901F01AFBD8B11E4BEC
:106EA0001E481D601E4B1F4F1C701F4B00211022DF
:106EB0001E6002F021F91D4B00200021C3E90001F2
:106EC000013CE4B20326FF2C0BD1194A19480021DA
:106ED00000F026F903E001F0BDFA0028DFD003B08E
:106EE000F0BD9DF8063015F834008DF8046005EB10
:106EF000C40223F007038DF8063001A993788DF8BA
:106F000005303A4601F0EEFA013CE4B20028DAD04E
:106F1000E5E70720E3E700BF302900202029002013
:106F2000EC280020196D0200F0280020182900200C
:106F3000316E0200089402001FB50021039001AADF
:106F400044F20100CDE9011100F004F805B05DF84C
:106F500004FB000010B572B6FFF764FDFFF7E4FB19
:106F60000028FBD1104B114C1149E41AE408240409
:106F700044F00100FFF71CFD0E4B1B68DB0700D53A
:106F800000BE0D4944F00200FFF712FDBFF34F8F22
:106F90000A490B4BCA6802F4E0621343CB60BFF3AB
:106FA0004F8F00BFFDE700BF609202008892020091
:106FB0000C940200F0ED00E01894020000ED00E0F7
:106FC0000400FA05D0E90223D1E90201994208BF81
:106FD00090422CBF012000207047000008B50B48EC
:106FE00000F0F1FA0A4B0B49D3E900231218D1E95A
:106FF000000143F100038B4208BF824203D212F129
:10700000807243F100031046194608BDF8220020A3
:1070100038290020B029002037B505460C460A481B
:1070200001A900F004FB60B10570446001A90648A5
:1070300000F027FB18B1054800F0CAFA002003B0A1
:1070400030BD0420FBE700BF9C290020F82200206F
:1070500038B5184B1B78044613B90025284638BDAF
:107060000028FAD0037F03F0FF05002BF5D0FFF7CF
:10707000B5FFD4E90223994208BF904214D3236993
:1070800003B92377D4E90530984721690029E4D072
:10709000237F03F0FF05002BDFD0D4E90223521831
:1070A00043F10003C4E902230348214600F0BBFE7C
:1070B000D4E700BF402900203494020013B5114BDF
:1070C00011491868019008231048582200F09CFAD2
:1070D000044698B90E4A0F4801A900F065F9044624
:1070E00060B90C48012100F051FA01230A4A09480D
:1070F000194600F0B3F9094B01221A70204602B07C
:1071000010BD00BF30940200442900209C290020BB
:1071100081710200F8220020FFFF7F00402900203B
:107120003AB103685A614A1E514251411961002027
:1071300070470720704738B5037F04460D4683B972
:107140008261FFF74BFF2369401941F10001C4E957
:10715000020103B1256121460020BDE83840FFF758
:107160005BBF002038BD0023014603770120FFF7F5
:1071700053BF0000014800F026BA00BFF8220020EB
:107180002DE9F04F85B0804600F008FA40B15A4A28
:10719000D2E9003113F1807341F10001C2E90031FD
:1071A0000021404600F009FA38B1544E336823B14B
:1071B0003068FFF74DFF002333600121404600F0A7
:1071C000FCF920B1FFF70AFF4D4BC3E900014D4820
:1071D0004A4F4D4EDFF8389103A900F062FA0028BB
:1071E00045D1DFF82491454EDFF828A1484600F04C
:1071F00030FE3368002875D07BB13368D0E90201D6
:10720000D3E90223994208BF90422DD233681B7FF5
:107210001BB13168484600F006FE484600F013FEF8
:10722000D0E902B307460193FFF7D8FE019BBBEB01
:10723000000463EB0105012C75F1000345DBB4F597
:10724000350F40D3FFF796FF304A02444FF49603C0
:107250000021504600F022F900283ED1336813B9CE
:10726000404600F0F3F8376005B0BDE8F08F0378D2
:10727000012B1DD0022B09D14FF0000A304600F03F
:10728000E2FD002834D080F81CA0F7E73BB9416844
:107290000B7F23B901230B77304600F0C4FD03A90F
:1072A000184800F029FA03A9164800F0FAF996E701
:1072B00041683B68994202D100233B60EFE73046CA
:1072C00000F0CAFDEBE7BA68C0E70021504600F0C5
:1072D0006AF93846FFF7BCFE01E00D28F9D000231B
:1072E000336083E7002BBFD1404600F0B3F8BBE723
:1072F000012389F80030D2E738290020B82900207E
:10730000B02900209C29002034940200FFFFB40023
:1073100040290020F822002070B5EFF3108672B6E5
:107320000C4A946801239CB993600B4B0B4DD3F826
:10733000801029401160C3F88050D3F88410516048
:107340004FF0FF32C3F88420047006B962B670BDF6
:107350000370FAE7BC29002000E100E0FC06FFBD55
:10736000084B9A6810B55AB150B9EFF3108172B654
:10737000054A1C6814605C685460986001B962B684
:1073800010BD00BFBC29002000E100E0435882B0DE
:107390003BB10023435043580193019B012002B0AD
:1073A00070471846FBE70000F8B5204B4479204DA4
:1073B00043F824201F4A204B05EBC4049B1A227972
:1073C000DB081B0432B143F002001C49FFF7F0FA5E
:1073D0000820F8BD02680C88C2F8084590F90460DE
:1073E0008A7804795201002ED2B219DB14498F1920
:1073F00087F800230122760904F01F0402FA04F43E
:1074000041F82640427905EBC201012445F83200DB
:107410000C7143F003000B49FFF7CAFA0020D8E7CC
:10742000094904F00F040A55ECE700BFD0290020F9
:10743000C829002060920200989202004094020045
:1074400000E100E06294020014ED00E00368012214
:107450001A607047036801225A60704773B501F1E2
:107460005005AD000068ADB24FF480348C4000266A
:10747000C0F80843C0F84843465101F5A871455982
:10748000019522F07F42019D40F82120C0F844433D
:107490000BB1C0F8044302B070BD00002DE9F74FF6
:1074A0000D4622F07F4402684FF4803705F1500604
:1074B0008F408046B60002EB8500C2F84873B6B232
:1074C000C2F80873D2F8041599464FF0000BD0F8B3
:1074D0004035C0F8401542F806B05B1A9259009248
:1074E00023F07F43012B009A4FEA850A0CD1264BEB
:1074F0004FF4806043F001039847D8F8003043F818
:1075000006B09B590193019BD8F80010D1F804658F
:10751000C1F84473A31B23F07F43012B1CD11A4BEA
:1075200005F5A875013443F0010341F825404FF4F7
:1075300080609847D8F80030D3F804359E4209D1CE
:10754000D8F800300020C3F84473C3F8047303B0C4
:10755000BDE8F08F0D20FAE78A44C9F1FF13CAF89D
:107560004045D1F80405221A013A22F07F4203F582
:107570007F439342EED3002AE2D10134CAF840455A
:10758000D1F804359842DAE78094020003680222B9
:10759000C3F8442309B1C3F80423704700684FF4CB
:1075A0008271FFF7F3BE4FF4803303FA01F10368F1
:1075B000C3F84813C3F808137047503189000068B6
:1075C00089B2FFF7E3BE0368D3F8040570470000F3
:1075D00090F90430002B09DB5A09012103F01F0345
:1075E00001FA03F34032024941F82230704700BFEC
:1075F00000E100E0024B034A1B681068184700BF17
:10760000D0290020C829002010B561B1B2FBF3F4E5
:1076100003FB1424A4B244B9C0E90014846082813D
:10762000C381204610BD0E20FCE70920FAE737B5DC
:1076300050E8013F9DB2C48925448489A54228BFF2
:107640002D1B0489A54202BFBFF32F8F002207E044
:10765000C5EA030540E80154002CE9D14FF00102CE
:107660008DF803200193019B9DF803200B6002F02D
:10767000FF0322B10B880068184403B030BD1846E0
:10768000FBE70A884B889A4209D150E8012FC2EAE9
:10769000024240E80123002BF7D10120704700206F
:1076A000704737B550E8023F1FFAA3F5C488A542DA
:1076B00002BFBFF32F8F00220DE0C48925448489C7
:1076C000A54228BF2D1BC3EA054540E80254002C03
:1076D000E8D14FF001028DF803200193019B9DF842
:1076E00003200B6002F0FF0322B14B8800681844AE
:1076F00003B030BD1846FBE70A884B889A4209D18F
:1077000050E8022FC2EA224240E80223002BF7D1C0
:10771000012070470020704701F01F024B09012132
:10772000914000EB830000F01EB801F01F0301221E
:107730009A404B0900EB8300D14300F02CB84B0971
:1077400001F01F0150F82300C84000F0010070470D
:1077500010B5034653E8000F0A4643E8002494F0AE
:10776000000FF7D110BD10B5034653E8002F42EAD1
:10777000010043E8000494F0000FF6D110BD10B5ED
:10778000034653E8000F00EA010243E8002494F0A6
:10779000000FF6D110BD10B5034653E8002F02EAE2
:1077A000010043E8000494F0000FF6D110BD10B5BD
:1077B000034653E8002F02EB010043E8000494F075
:1077C000000FF6D110BD10B5034653E8002FA2EB11
:1077D000010043E8000494F0000FF6D110BD012130
:1077E000FFF7C1BF0021FFF7CABF10B590B1D0E9C4
:1077F000012301689B1ADBB20A60013BDBB2FF2B5D
:10780000026802D10020107110BD11684C1C146078
:107810000B70F2E70E20F7E737B5054600240DF1AF
:1078200007008DF80740FFF777FD2A686B6811683D
:1078300099420ED9481E106011F8014CEB68298A54
:1078400001FB0434AB6811791B1ADBB2994238BFD3
:1078500013719DF80700FFF783FD204603B030BD8C
:1078600037B5054600230DF107000C468DF80730AB
:10787000FFF752FD2A681368591C1160E968641A01
:10788000298AB4FBF1F41C709DF80700FFF768FD2E
:1078900003B030BD826810B504462AB1436901685F
:1078A000006998470023A36010BD0EB403B5039987
:1078B00021B104AB01AA019300F06EF802B05DF8AB
:1078C00004EB03B07047826830B40468551C8560CF
:1078D000A154D0E901329A4202D330BCFFF7DABF9B
:1078E00030BC70472DE9F84F9846DDE90A4315464C
:1078F00082460F460A464FF00109AA420FD2C145FF
:1079000038BFC14613F0010B01D16CB90024012628
:10791000B8F1010F1BD908F1FF386E43F8E709F100
:107920000109B2FBF5F2E8E79B070ED5B8F1000FAD
:107930000CBF30262026A145E9D2013C31465046F5
:10794000FFF7C1FF002CF6D1E0E72026F3E7B7FBF5
:10795000F6F39D42E1D9DFF83C80B7FBF6F35046E1
:1079600018F8031006FB1377FFF7ADFF3346AB4261
:10797000B6FBF5F6F1D2BBF1000F02D00CB1A14578
:1079800001D3BDE8F88F20215046013CFFF79BFF53
:10799000F4E700BF869402002DE9F74F054617462D
:1079A0008846002900F0428118F8011B49B92B7B59
:1079B000002B00F03B81284603B0BDE8F04FFFF7F5
:1079C00069BF252940F0B780002698F800302D2B9C
:1079D000424608F1010823D0302B24D02B2B25D090
:1079E00000242A2B02F1010123D13B681A1D1B68D8
:1079F0003A601C440A4613782E2B26D101324FF0F0
:107A0000000A104610F8011BA1F1300CBCF1090F5F
:107A10001DD80A2303FB0A13A3F1300A0246F0E73C
:107A200046F00106D1E746F00206CEE746F004062E
:107A3000CBE711F8013CA3F130000928DBD80A227A
:107A400002FB0434303C0A46CBE74FF0000A12F840
:107A5000011B01F0FB0068289046F8D0782909D86E
:107A60006F290CD8632962D022D8252963D05829E0
:107A700000F0888098F80030002B95D197E7703996
:107A80000829F7D801A353F821F000BF077C0200B2
:107A9000757A0200757A0200957B0200757A020001
:107AA000737B0200757A0200757A0200857B020002
:107AB000642901D06929DDD13A68D2F80090111DFE
:107AC00089EAE9723960A2EBE9724FF0010B092AE9
:107AD00035DCD34538BFD3462CB1B9F1000F01DBFB
:107AE000720700D5013CB30702D5BAF1000F03D0ED
:107AF000F00701D44CBB0024B9F1000F2DDAC9F115
:107B000000092D212846FFF7DEFE06F00302022AB7
:107B100004D1BAF1000F01D11CBB0024CDE900460D
:107B200053460A2249462846FFF7DCFEA2E73B6897
:107B30001A1D19783A602846FFF7C5FE9AE70A230E
:107B40000BF1010BB2FBF3F2C1E7A345D4D2202124
:107B50002846013CFFF7B7FECCE77107D5D52B21AE
:107B6000D0E7A345DAD230212846013CFFF7ABFE2F
:107B7000D2E73968CDE900460A1D3A6053460A2229
:107B80000968D0E739680A1D3A60CDE900465346D6
:107B90001022F5E73B681A1D3A6016F00106D3F88B
:107BA000009028D1B9F1000F03D0484601F0F9FA4E
:107BB0000646B44200D904BB09F1FF3919F8011F88
:107BC00000293FF457AF2846FFF77DFEF6E7284629
:107BD0000136FFF778FE19F806100029F7D1A64202
:107BE000BFF448AF002C3FF445AF20212846013CAC
:107BF000FFF769FEF3E70026EDE720212846013C68
:107C0000FFF761FED5E73B681A1D3A603021284630
:107C10001C68FFF758FE78212846FFF754FE002223
:107C20000823CDE90032214610227CE703B0BDE8ED
:107C3000F08F00BF2DE9F84FB0F806A04579D2F8D3
:107C400000B09DF828900AFB05F5043D88460BEB33
:107C50000301A94203F1040488BFA5EB030BB4FBA5
:107C6000FAF607460AFB1644C2F800B04EB9AAEB72
:107C700004055D4528BF5D46BBF1000F04D1BDE89A
:107C8000F88F3F68013EF1E7043408EB06003C44FE
:107C90002A46B9F1000F0DD02146ABEB050B01F0E0
:107CA00002FADA452E443F6855464FF0000428BFDB
:107CB0005D46E1E701462046EFE7FFF796BDF8B5E0
:107CC00046790146721E0546002393422D6803D370
:107CD0000024A64202D8F8BD0133F6E70F68284613
:107CE000FFF7BEFD01343946F3E72DE9F843068A74
:107CF000CD1C0746FFF790FD043E35440446B5FB16
:107D0000F6F5F0B14FF48073EDB28380C680013D8B
:107D1000076081464FF00008A84512D23846FFF7A9
:107D20007BFD064648B163790133637108F10108B0
:107D3000C9F8000007608146EEE72046FFF7BFFF65
:107D400034462046BDE8F88301210430FFF72FBDFB
:107D500010B5012104460430FFF735FD10F0FF0F88
:107D600004D12046BDE81040FFF7A9BF10BD1FB5E4
:107D700003920022009203AAFFF75CFF05B05DF8B2
:107D800004FB1FB503920122009203AAFFF752FFE2
:107D900005B05DF804FB41DF7047000007B5002324
:107DA0000DF107008DF80730FFF7B6FAF1EE103A43
:107DB00023F09F03E1EE103ABFF35F8F094B40229F
:107DC000C3F884219DF80700FFF7CAFA01F0A8F86C
:107DD00020B1FFF7E0FF03B05DF804FB20BF40BF18
:107DE00020BFF8E700E100E0836800225A60C3E9A1
:107DF00004229A60DA601A6070470B684A68436030
:107E0000934208BF0023016008BF43607047436886
:107E100043B10268916852680B449342436004BFC7
:107E200000234360704770B5446806460D462068DD
:107E300018B1B3682946984718B923682B602560A4
:107E400070BD2468F3E74368186808B102681A60D7
:107E500070474368186870474368186800B97047EE
:107E6000884203D102681A60012070470346006807
:107E7000F4E7000010B50D49A1F59472914201D8C4
:107E800000200FE08C1AE30F03EBE4035B1002EB1E
:107E9000C30452F83330834205D802D204F10802F9
:107EA000ECE7606810BD2146E8E700BFA09902003A
:107EB00008B5FFF7DFFF024B002808BF184608BDD2
:107EC00062980200044B1868421C04BF034B1878E8
:107ED000831F58425841704730010010E00F00F0F6
:107EE000074B1B78062B09D1064B1B68C3F3031302
:107EF000033B032B02D8044AD05C70470020704734
:107F0000E00F00F0E80F00F0A899020008B5FFF7B5
:107F1000D9FF28B1834B844A1B68C3F30423136041
:107F2000FFF7DEFF10B1814B814A1A60FFF7CAFFED
:107F300028B1804B804A1B68C3F342331360FFF7BC
:107F4000CFFF20B17D4AD36823F08073D360FFF761
:107F5000B9FF40B14FF080430022C3F80C21C3F8B1
:107F60001021C3F83825FFF7BBFF10B1744B032273
:107F70001A60FFF7B5FF40B1724B05221A6001226B
:107F80009A6700229A603F225A606F4B1A68511C10
:107F90000BBF6E4B6E4B1A781B6802BF08331B6811
:107FA000C3F30313062A4DD1033B032B03D8694ABD
:107FB000D35C002B46D04FF08052674BD2F80414AC
:107FC000C3F82015D2F80814C3F82415D2F80C14FD
:107FD000C3F82815D2F81014C3F82C15D2F81414CD
:107FE000C3F83015D2F81814C3F83415D2F81C149D
:107FF000C3F84015D2F82014C3F84415D2F824145D
:10800000C3F84815D2F82814C3F84C15D2F82C142C
:10801000C3F85015D2F83014C3F85415D2F83414FC
:10802000C3F86015D2F83814C3F86415D2F83C14BC
:10803000C3F86815D2F84014C3F86C15D2F844247C
:10804000C3F87025FFF73EFF28B1444B444A1B6834
:1080500003F04F031360FFF735FF48B14FF0804343
:10806000D3F80024D20744BF6FF00102C3F8002404
:10807000354B1B68062B0CD1354B1B68033B032B80
:1080800002D8384AD35C23B1374A136843F480637B
:108090001360364AD2F8883043F47003C2F888304F
:1080A000BFF34F8FBFF36F8F4FF01023D3F8002231
:1080B000002A03DBD3F80432002B2FDA2C4B0122E9
:1080C000C3F80425D3F80024002AFBD04FF0102277
:1080D0001521C2F80012D3F80024002AFBD04FF07B
:1080E00010231522C3F80422214B1A46D3F800149A
:1080F0000029FBD00021C3F80415D2F80034002B6E
:10810000FBD0BFF34F8F19491A4BCA6802F4E062E3
:108110001343CB60BFF34F8F00BFFDE7164B174AE9
:108120001A6008BD240300104035014074C00740A8
:108130000DF0ADBA440200103C050040F0ED00E047
:10814000A00500401056004030010010E00F00F084
:1081500034010010A099020000C000405802001035
:10816000E40E0040A49902003C17004000ED00E03E
:1081700000E001400400FA05002300200090D00335
:10818000044B1A5C012393404FF0A042C2F808351B
:10819000704700BFAC99020008B50020FFF7F0FF60
:1081A0000120FFF7EDFF0220FFF7EAFFBDE80840DE
:1081B0000320FFF7E5BFC20708B501460CD54FF015
:1081C000A0430322C3F84427C3F84827C3F84C2729
:1081D000C3F85027FFF7E0FF8B070AD54FF0A04305
:1081E0000C22C3F83427C3F83827C3F83C27C3F858
:1081F000402708BD38B5074C051E04F1080318BF19
:108200001C4623682BB11A6822605B682846984791
:10821000F7E738BDDC29002020B9054B01225A7050
:10822000FFF7E8BF012802D1014A9070F8E77047D4
:10823000D429002020B9034B01225A70FFF7DABF7E
:10824000704700BFD429002038B50E4C2378B3B94D
:108250000D486360A3602361E36000F073F8054696
:1082600000F05EFE08B900F079F801232370074B97
:10827000D3F800340BB10123A370284638BD8525FF
:10828000F5E700BFD4290020198202000000014058
:1082900037B50D4C00230DF107008DF80730FFF7BF
:1082A0003BF8E368013BE360E36833B9074BD3F87D
:1082B000005415B900F064F8A5709DF80700FFF7A9
:1082C0004FF803B030BD00BFD429002000000140AA
:1082D000012813B50CD0032820D038B9124B012245
:1082E000C3F88020BFF34F8FBFF36F8F02B010BD74
:1082F0000E4C00230DF107008DF80730FFF70CF846
:1083000023780BB9FFF7A0FFE3689DF8070001335E
:10831000E3600123A370FFF723F8E7E700F01EF8FE
:10832000FFF7B6FFE2E700BF00E100E0D42900203C
:1083300000F18040002382B0036003680193019B39
:1083400002B07047044A137923B90121106091806B
:108350001846704785207047E8290020074B1A68A7
:10836000D20704D4C02283F8002301221A604FF000
:1083700080430122C3F81825704700BF00E100E0E8
:108380004FF0804208B50223C2F808334FF48270E0
:10839000FFF7CEFF034B01211960D2F81834DB033D
:1083A000FBD408BD0C000040124B1B6810B573B124
:1083B0004FF48070FFF7BCFF4FF080430122C3F8F9
:1083C00008230D4B587910B95A711B6898470B4B0D
:1083D0001B6873B14FF48270FFF7AAFF4FF0804320
:1083E0000222C3F80823044BBDE810401B6801209B
:1083F000184710BD00010040E8290020040100409A
:1084000000F1804000F5C040002382B003600368A3
:108410000193019B02B07047800000F1A040D0F8AA
:10842000002722F44032C0F80027D0F8003743EA92
:108430000141C0F800177047054B4FF0FF32072885
:1084400043F8202084BFC01880F84820704700BF40
:10845000F029002010B51A4C94F858306BBB4FF03F
:10846000FF3222FA03F1C90748BFE11803F1010303
:1084700048BF81F83020202BF3D10021C8B2FFF78C
:10848000DBFF01310C29F9D1042200210D4800F055
:1084900033FE0D4BC02283F8062340221A604FF4AE
:1084A000BE70FFF7ADFF094B4FF00042C3F8042345
:1084B000012384F85830002010BD0820FCE700BFDD
:1084C000F0290020442A002000E100E00060004084
:1084D000034B93F85800003818BF0120704700BFC5
:1084E000F0290020F0B5364D2C1894F93040002CBE
:1084F00064DA8C78C4F34004002C0BBF08230023FB
:108500000C260826B34201D10420F0BD55F8237093
:1085100001373FD12E1845F8232086F8303014B9A2
:10852000EA1882F848008A78540713D4D60733D55E
:10853000820002F1A042D2F8004724F00204C2F8FF
:108540000047204EC20800F007070124BC40B75C7A
:108550003C43B4548A780C7812F0020225D09B0078
:1085600003F1804303F5C0430202D3F8101521F450
:10857000473121F44071C3F810152404D3F81015C5
:1085800002F4F85204F4403422430A43C3F810259D
:108590000020BAE70133B5E74C7800F5E0724FF000
:1085A000A046A40046F82240CBE7083B2B4493F8B2
:1085B000501041EA841483F85040E9E70820A4E70A
:1085C000F0290020442A00204FF0A043D3F81035B2
:1085D00023FA00F000F00100704700002DE9F74F8A
:1085E00000244E4D01944FF48072012102F180432A
:1085F00003F5C04390B21B68012B06D1D5F80433B4
:108600000B4202D0FFF7FCFE0C430432B2F5907F20
:108610004FEA4101EAD1424B1B68012B0CD14FF4C8
:10862000BE70FFF7EDFE4FF0A04344F00044D3F8D6
:1086300020250192C3F8202514F0FF0F1AD0394FDE
:1086400000250126344210D0AB0003F1804303F52E
:10865000C043D3F81005D3F8101557F8253023B1CF
:10866000C1F30141C0F3042098470135082D4FEABA
:108670004606E7D1002C48DA2A4D4FF0A0482A4E92
:108680004FF00009012716F9013B5A1C31D0C3F302
:10869000C20202A90A44DCB212F8042C03F03F0A19
:1086A00003F0070307FA03F31A4222D00AF5E07336
:1086B000504658F82330C3F3014BBBF1020F0CBFF7
:1086C00003210221FFF7A8FE07FA0AF3C8F82035B4
:1086D00005EB0A0393F9303055F823304BB1A1096B
:1086E000032904D0BBF1020F12D1012901D1504658
:1086F000984709F10109B9F1040FC4D1D8F8203520
:108700000193C8F82035002BB9D103B0BDE8F08F34
:10871000BBF1030FEDD10229E8E700BF0060004084
:108720007C610040F0290020402A0020014B1B689A
:10873000184700BF4C2A00200D2809D10548064BD8
:108740000649C01AC008000440F00300FEF730B923
:10875000FEF7F2BB8892020060920200D2990200FA
:1087600008B54FF480410020FDF78EFF08B1FEF7F9
:10877000E3FBFDF7C9FE0120FFF71DFDFEF79EFCA0
:1087800008B1FEF7D9FB0D4840F233320121FEF764
:108790007DFB08B1FEF7D0FB09480A4B0A49C01A15
:1087A000C008000440F00300FEF702F9FDF7BCFF2B
:1087B0000028FBD1FFF7F2FAF8E700BF04230020FE
:1087C0008892020060920200EC9902000369C1687D
:1087D0008B429DBF8268D21802F1FF3203F1FF3352
:1087E00094BF501A581A70472DE9F843D0E9029403
:1087F0000546A9EB04084068904520440F46144400
:1088000004D900F050FCEC60BDE8F8834246A4EBCC
:10881000090400F048FC6868224607EB0801F0E70D
:108820002DE9F843C5680646894617464FF000080B
:108830003469B3687068A54228BFE418013C621B24
:108840005C1BBC4228BF3C46944228BF14464946A4
:108850002844224600F027FCB3682544AB4208BFF9
:1088600000253F1BA044A144F560E1D14046BDE88E
:10887000F883000010B5114C114AA2610223C4E92B
:108880000433104BE361A2644FF400730E4A0F49A6
:108890002362E26400231022E01DA3626362E362AC
:1088A000A3656365E365226500F059FC084920462D
:1088B00000F055FC2023A37110BD00BF8C2A0020BE
:1088C000049A0200142B0020042B00200D9A0200B1
:1088D000119A0200F8B5184C182300FB033503FB6E
:1088E00000402544C46A012C0F4616460FD0022CC6
:1088F0001AD0F4B92846FFF769FF864205D83246F8
:1089000039462846FFF770FF34462046F8BD284612
:10891000FFF75CFF8642344628BF044622463946AC
:108920002846FFF761FFF0E72846BDE8F840FFF76B
:1089300077BF0024E9E700BF8C2A0020FFF79ABF29
:10894000034B1A8882420CBF18460020704700BFB4
:10895000302D0020024B9B6903B11847704700BFC0
:10896000142D002037B50B46497A0F4A71B9D2E968
:1089700001141D7A0246002D18BF21465868FEF7E3
:10898000DAFB08B1FFF7E6FF03B030BD0021197232
:108990005369002BF8D00122ADF806008DF80420B1
:1089A00001A89847F0E700BF142D00204B880288EB
:1089B0009A4213D842889A4210D380888A8840F21B
:1089C000F313984294BF031AC31A934206D800F2D5
:1089D000F310904234BF0020012070470020704700
:1089E0000388122B70B5014659D004D8102B1ED025
:1089F000112B44D070BD502BFCD12F4BC288DB898A
:108A00009A42F7D1038A022BF4D186883046FFF7C9
:108A100097FF05460028EDD001F1120000F0EEF8B6
:108A200038BB6868FEF79FFB0028E3D009E0C37BF2
:108A3000012BDFD14FF6FF70FFF782FF054620B90B
:108A40000420BDE87040FFF785BF1C4A8E88068071
:108A5000002303721368C0F80A305368C0F80E3060
:108A600010310A30FFF7A2FF134B6872DB89002B2D
:108A7000C0D129463046BDE87040FFF773BF8088FB
:108A8000FFF75EFF04460028B4D04068FEF76BFB9A
:108A900008B1FFF75FFF4FF6FF732380AAE78688D0
:108AA0003046FFF74DFF05460028A3D008310A30B5
:108AB000FFF77CFF6872DCE7142D0020442D0020B6
:108AC0000AB1FEF729BEFEF730BE73B50191019CD5
:108AD00006466CB100252C46294601A8FEF72FFE5C
:108AE00018B106EB440301349D800135142DF3D1F8
:108AF0003046346002B070BD2DE9F04703888488A9
:108B0000103B8CB005460A2B1FD8DFE803F0063F68
:108B10001E1E1E1E1E1E1E604400314EB368DB4327
:108B2000009371686846FEF736FE009901A8FFF7CA
:108B3000CCFF0DF108094FF00008019B984507D3C1
:108B4000132C13D90420FEF7F7F90CB0BDE8F08719
:108B500039F802AB00270137514606EB8700FEF7D4
:108B6000E4FD1E2FF7D108F10108E6E71D48214674
:108B7000FEF7D2FD1C482146FEF7CEFDEB7B022B13
:108B8000E3D11A482146FEF7C7FDDEE71548214626
:108B9000FEF7CBFDD9E7027A15483F2A4FEA1215B6
:108BA000214694BF00220122FFF78AFF022D94BFC5
:108BB000002201220F482146FFF782FF012D0E48B7
:108BC00094BF002201222146FFF77AFFBDE7037A16
:108BD000002BBAD1427A0648C2F3C0022146F3E71D
:108BE0004C2D0020542D0020502D0020582D002009
:108BF000642D0020602D00205C2D0020007800F006
:108C00000100704790DF7047A5DF7047B5DF704700
:108C10007FB50023ADF80810ADF80A106A4602A926
:108C2000064603930093ADF80430FFF7EBFF0546CB
:108C300000B3124B124CE41AE408FFF739F924048C
:108C400044F0010403460F4932462046FDF7BDFEBD
:108C5000BDF80020BDF8023052EA030103D00A49F2
:108C60002046FDF7B2FEBDF804201AB107492046A0
:108C7000FDF7A2FE284604B070BD00BF609202005E
:108C8000A8920200189A0200629A0200A19A0200B9
:108C900013B5034680880C46B8B91A88242A00F018
:108CA000958014D8112A71D0232A00F09D80102AB3
:108CB0003BD0A37A4BB1E1880020FFF7A5FF002845
:108CC00040F098804FF48073638102B010BD3A2A5F
:108CD00064D0552AEDD1DB88C988A072172B38BF24
:108CE00017238B4228BF0B462381FFF78FFF60B10C
:108CF000FFF7DEF8484B4949024649481B1ADB0892
:108D00001B0443F00100FDF757FEE37A002BD0D19E
:108D10002369002BCDD040F6772200922289ADF84E
:108D20000420694620469847C3E7DB7B0A790A732B
:108D3000012B13D0022B14D0E18823898B4205D25A
:108D40000020FFF761FF70B90123E372217B637B91
:108D50008B42AED20020FFF75BFFAAE70B88E380CF
:108D6000EAE74B88FBE7112802D10123A372EDE764
:108D7000FFF79EF8284B2B49024629481B1ADB08AF
:108D80001B0443F00100FDF717FEDFE71723CB803C
:108D90000B8141F61B3348818B818AE75B89CA8846
:108DA000934228BF1346172B0A6938BF17230B813C
:108DB0004AB1C97A39B140F677210091ADF8043053
:108DC0006946204690470023638172E71A7A0B694F
:108DD0004A73002B3FF46DAF4DF67A218DF80500F4
:108DE00000918DF804209CE7197A237B994228BFD3
:108DF0001946B0E711283FF468AFFFF759F8064B62
:108E00000849024606481B1ADB081B0443F0010010
:108E1000FDF7D2FD59E700BFA8920200289B02008F
:108E200060920200F79A0200B0DF704766DF704779
:108E300010B5002104464088FFF7F8FF034608B943
:108E4000237210BD112801D10123F9E76368BDE841
:108E500010401847F0B5054685B00C46F1B1E8B1B1
:108E60000B78DE2B1AD182884B889A4204D10B7A78
:108E700013B10846FFF7DCFF2B88112B32D0512BA2
:108E80000ED0012B0AD12B7A012B07D1A988628839
:108E9000914203D123722046FFF7CAFF05B0F0BD0F
:108EA000AE886388B342F9D1AF79022FF6D1AD7B9A
:108EB0002B1F022BF2D800211022684600F01CF96B
:108EC000052D14BF4FF4C0730023694630468DF85A
:108ED0000070ADF80430FFF7A7FF0028DED063680C
:108EE0009847DBE76388AA889A4204BF4FF6FF736E
:108EF0006380D3E70288502A10B40DD1C4884A8811
:108F0000944209D1028A012A06D14B6923B1827C9D
:108F10005DF8044B808818475DF8044B70470000EB
:108F2000014B1878704700BFC82D002007B50849CD
:108F30006846FEF762FF019B13B903B05DF804FBBE
:108F4000D3E9002090476846FEF761FFF3E700BFD2
:108F50006C9B0200FFF7EABF61DF704730B5114B31
:108F60001B7891B0E3B1104D34240DF1020103A838
:108F7000ADF80240FFF7F0FF70B9294601A8FEF7EF
:108F80003CFF029B002BF0D003A8D3E900219047BF
:108F900001A8FEF73CFFF4E7052801D0FDF7CCFF60
:108FA00011B030BDC92D0020849B02004BDF7047FB
:108FB0001FB50D4C01A8FFF7F9FF70B9214602A8B3
:108FC000FEF71BFF039B002BF4D00198D3E900218F
:108FD000904702A8FEF71BFFF4E7052801D0FDF734
:108FE000ABFF04B010BD00BF9C9B02007F2805D8DA
:108FF000034B185C034B5B5C1840704700207047C4
:10900000B49B0200349C0200A0F16103192B98BFAD
:1090100020387047A0F14103192B98BF20307047CA
:109020007F2805D8034B185C034B5B5C18407047E6
:1090300000207047B49B0200349C0200A0F1610341
:10904000192B98BF20387047A0F14103192B98BF06
:10905000203070477F299ABF017001206FF02E00E9
:1090600070475AB10A787F2A0AD800B102600021FD
:1090700019605960501A18BF0120704700207047CE
:109080006FF02E007047000008B5034B5B689B68CB
:109090001B68984708BD00BF0C23002008B50921B4
:1090A000FFF7F2FF08BD844640EA010313F0030F07
:1090B00018D18446202A0BD32DE9F007B1E8F80730
:1090C000A0E8F807A2F12002202AF7D2BDE8F007B5
:1090D000042A07D351F8043B40F8043BA2F10402F0
:1090E000042AF7D2002A05D011F8013B00F8013B11
:1090F000013AF9D1604670478446002A2DD010F01D
:10910000030F04D000F8011B013A26D0F7E7C9B2DB
:1091100041EA012141EA0141202A12D3A2F12002B1
:109120002DE9F0030B460C460D460E460F468846C9
:109130008946A0E8FA03203AFBD2BDE8F0032032CA
:109140000BD0042A05D340F8041B043A05D0042AA6
:10915000F9D200F8011B013AFBD160467047024684
:1091600010F0030F16D111F0030F13D12DE9F00009
:109170004FF001374FF0803351F8044BA4EB070553
:1091800025EA04051D4002D142F8044BF4E7A1F1A1
:109190000401F0BC11F8013B02F8013B002BF9D1AE
:1091A000704700F1010110F0030F11D010F8012BEE
:1091B000002A23D010F0030F0AD010F8012B002A48
:1091C0001CD010F0030F03D010F8012B002A15D08B
:1091D0002DE970004FF001324FF0803350F8044B0E
:1091E000A4EB020525EA04051D4000D1F6E7A0F135
:1091F000040070BC10F8012B002AFBD1A0EB010089
:029200007047B5
:089204003582020000000000A9
:10920C00F98A020000000000918C0200542A002010
:10921C00E189020000000000558E0200802A002027
:08922C00F58E0200682A002003
:08923400D182020000000000DD
:10923C005D8F020000000000B18F020000000000F2
:10924C00642300202C240020342400206C230020D4
:04925C0018000000F6
:10926000B699020000000000BC9902000000000056
:10927000C399020000000000C7990200000000002E
:10928000CC990200000000002593020000000303B7
:10929000FC93020000000000259402000000000082
:1092A000B099020000000000579B02000000030379
:1092B000649B020000000303789B0200000003038C
:1092C000909B02000000030396940200000000003F
:0892D0009F9402000000000061
:1092D800F89202000000000004930200F02200202F
:1092E80000000000000000000338FDD870470000AF
:1092F800D563020041640200D16302007274745F96
:109308006C6F675F6261636B656E64004261636B7B
:10931800656E647320666C7573686564006170704F
:1093280000000000542800207F000000D4280020FE
:109338001B5B306D002573001B5B313B33316D00C7
:1093480025734C6F67732064726F70706564202892
:1093580025642925730D0A003C25733E2025733AA0
:109368002000202530327800202020007C00256352
:10937800001B5B313B33306D001B5B313B33326D7F
:10938800001B5B313B33336D001B5B313B33346D6A
:10939800001B5B313B33356D001B5B313B33366D56
:1093A800001B5B313B33376D007761726E696E6706
:1093B80000696E666F006465627567003893020025
:1093C800799302004093020081930200899302007E
:1093D8009193020099930200A1930200A9930200BD
:1093E8000000000012940200B1930200B993020039
:1093F800BE9302006170705F627574746F6E0000D6
:10940800F8280020466174616C206572726F7200E2
:1094180053797374656D207265736574006170703B
:109428005F74696D657200000100060000000000AD
:1094380034290020C56F020052544320696E7374AA
:10944800616E636520616C726561647920696E691B
:109458007469616C697A65642E005254433A2069D4
:109468006E697469616C697A65642E000000000099
:1094780000000000000000000338FDD870473031BC
:1094880032333435363738394142434445467077AC
:10949800725F6D676D7400736F72746C69737400BA
:1094A8004E52465F53554343455353004E52465F11
:1094B8004552524F525F5356435F48414E444C45C4
:1094C800525F4D495353494E47004E52465F4552ED
:1094D800524F525F534F46544445564943455F4E99
:1094E8004F545F454E41424C4544004E52465F45FD
:1094F80052524F525F494E5445524E414C004E52C3
:10950800465F4552524F525F4E4F5F4D454D004E9C
:1095180052465F4552524F525F4E4F545F464F5529
:109528004E44004E52465F4552524F525F4E4F5482
:109538005F535550504F52544544004E52465F4574
:1095480052524F525F494E56414C49445F50415226
:10955800414D004E52465F4552524F525F494E565A
:10956800414C49445F5354415445004E52465F456F
:1095780052524F525F494E56414C49445F4C454EFA
:10958800475448004E52465F4552524F525F494E2B
:1095980056414C49445F464C414753004E52465F42
:1095A8004552524F525F494E56414C49445F4441DF
:1095B8005441004E52465F4552524F525F44415407
:1095C800415F53495A45004E52465F4552524F52E9
:1095D8005F54494D454F5554004E52465F455252CF
:1095E8004F525F4E554C4C004E52465F4552524FBB
:1095F800525F464F5242494444454E004E52465FE0
:109608004552524F525F494E56414C49445F41447E
:109618004452004E52465F4552524F525F42555394
:1096280059004E52465F4552524F525F434F4E4E7D
:109638005F434F554E54004E52465F4552524F526B
:109648005F5245534F5552434553004E52465F456E
:1096580052524F525F4D4F44554C455F4E4F545FE9
:10966800494E495449414C495A4544004E52465F77
:109678004552524F525F4D555445585F494E4954D3
:109688005F4641494C4544004E52465F4552524F51
:10969800525F4D555445585F4C4F434B5F464149C7
:1096A8004C4544004E52465F4552524F525F4D550D
:1096B8005445585F554E4C4F434B5F4641494C45C6
:1096C80044004E52465F4552524F525F4D555445E5
:1096D800585F434F4E445F494E49545F4641494C99
:1096E8004544004E52465F4552524F525F4D4F44DB
:1096F800554C455F414C52454144595F494E495488
:1097080049414C495A4544004E52465F4552524FD2
:10971800525F53544F524147455F46554C4C004E9B
:1097280052465F4552524F525F4150495F4E4F5427
:109738005F494D504C454D454E544544004E5246A8
:109748005F4552524F525F464541545552455F4E10
:109758004F545F454E41424C4544004E52465F458A
:1097680052524F525F494F5F50454E44494E470051
:109778004E52465F4552524F525F4452565F5457BD
:10978800495F4552525F4F56455252554E004E5210
:10979800465F4552524F525F4452565F5457495F95
:1097A8004552525F414E41434B004E52465F45522F
:1097B800524F525F4452565F5457495F4552525F69
:1097C800444E41434B004E52465F4552524F525F02
:1097D800424C455F495053505F52585F504B545F5D
:1097E8005452554E4341544544004E52465F4552EB
:1097F800524F525F424C455F495053505F43484176
:109808004E4E454C5F414C52454144595F4558497D
:10981800535453004E52465F4552524F525F424C8A
:10982800455F495053505F4C494E4B5F4449534341
:109838004F4E4E4543544544004E52465F455252A2
:109848004F525F424C455F495053505F5045455217
:109858005F52454A454354454400556E6B6E6F77D9
:109868006E206572726F7220636F6465000000007D
:1098780000000000A894020001000000B494020057
:1098880002000000D294020003000000F3940200DA
:10989800040000000695020005000000179502006C
:1098A800060000002B950200070000004395020007
:1098B800080000005B950200090000007395020093
:1098C8000A0000008C9502000B000000A49502001D
:1098D8000C000000BB9502000D000000CF950200AF
:1098E8000E000000E19502000F000000F095020054
:1098F8001000000004960200110000001B960200F0
:10990800120000002A960200130000003F96020091
:109918008000000053960200810000007496020047
:10992800820000009096020083000000AC960200BE
:1099380084000000CA96020085000000EB96020031
:109948008600000010970200900000002797020090
:109958009100000045970200920000006397020002
:1099680000820000789702000182000096970200AA
:1099780002820000B297020000840000CE97020025
:1099880001840000F2970200028400001C98020083
:10999800038400004198020000000101000000015A
:1099A8000100000011121314636C6F636B00434CC9
:1099B8004F434B004750494F5445005052530055B0
:1099C8004152540055415254450053656E6420621B
:1099D8007574746F6E207374617465206368616E4A
:1099E80067652E00426C696E6B79206578616D70D1
:1099F8006C6520737461727465642E005465726DB1
:109A0800696E616C005254540053454747455200F3
:109A180073645F626C655F6761705F646174615FE6
:109A28006C656E6774685F75706461746528292059
:109A3800287265717565737429206F6E20636F6E67
:109A48006E656374696F6E2030782578207265744E
:109A580075726E65642025732E00546865207265E2
:109A6800717565737465642054582F52582070615D
:109A7800636B6574206C656E677468206973207405
:109A88006F6F206C6F6E672062792025752F2575A2
:109A9800206F63746574732E005468652072657155
:109AA80075657374656420636F6D62696E6174694E
:109AB8006F6E206F6620545820616E6420525820C3
:109AC8007061636B6574206C656E67746873206978
:109AD8007320746F6F206C6F6E6720627920257514
:109AE800206D6963726F7365636F6E64732E0073A4
:109AF800645F626C655F67617474635F65786368EF
:109B0800616E67655F6D74755F7265717565737495
:109B180028292072657475726E65642025732E007D
:109B280073645F626C655F67617474735F657863A3
:109B380068616E67655F6D74755F7265706C7928B2
:109B4800292072657475726E65642025732E006E07
:109B580072665F626C655F67617474006E72665FDF
:109B6800736468003C9202004C92020008000000F6
:109B78006E72665F7364685F626C65000C920200C7
:109B880034920200080000006E72665F7364685FBA
:109B9800736F6300049202000C9202000800000038
:109BA80043000000504F5349580000002020202057
:109BB8002020202020682828282820202020202035
:109BC8002020202020202020202020204810101095
:109BD80010101010101010101010101084848484AD
:109BE8008484848484841010101010101081818162
:109BF80081818101010101010101010101010101CD
:109C0800010101010101011010101010108282825F
:109C1800828282020202020202020202020202029C
:109C28000202020202020210101010200007032094
:109C3800041702010857104080000000A89B02008A
:109C4800AC9C0200C09D020053756E004D6F6E0003
:109C5800547565005765640054687500467269005C
:109C680053617400000000004A616E00466562009E
:109C78004D617200417072004D6179004A756E0045
:109C88004A756C0041756700536570004F63740036
:109C98004E6F76004465630000000000414D00509F
:109CA8004D000000E49D0200E09D0200E09D0200DE
:109CB800E09D0200E09D0200E09D0200E09D0200A0
:109CC800E09D0200E09D0200E09D0200FFFFFFFF13
:109CD800FFFFFFFFFFFFFFFFFFFF0000209D0200C7
:109CE800509C02005C9D0200709C0200A49C020033
:109CF800049D0200B49D0200109D0200256D2F25D1
:109D0800642F257900000000256120256220256543
:109D1800202554202559000053756E646179004D43
:109D28006F6E646179005475657364617900576575
:109D3800646E6573646179005468757273646179DF
:109D4800004672696461790053617475726461795F
:109D5800000000004A616E756172790046656272A2
:109D680075617279004D6172636800417072696C47
:109D7800004D6179004A756E65004A756C7900413D
:109D880075677573740053657074656D62657200EC
:109D98004F63746F626572004E6F76656D626572AF
:109DA80000446563656D62657200000025483A25C8
:109DB8004D3A255300000000ED8F02000990020083
:109DC80015900200219002003D9002004990020087
:0E9DD8005590020063900200000000002E0073
:109DE80000000000FF000000001001401100040006
:109DF8000090D0030D00030039870200449C020044
:109E0800449C0200449C0200449C0200449C0200C2
:040000032000637501
:00000001FF
