:020000022000DC
:1060000000000120756302005D6302005F6302000F
:106010006163020063630200656302000000000028
:1060200000000000000000000000000067630200A4
:1060300069630200000000006B6302006D630200F0
:10604000718402006F630200C18802006F63020066
:106050006F6302006F630200718702006F630200CA
:106060006F6302006F6302006F6302006F630200E0
:106070006F6302006F6302006F6302006F630200D0
:106080006F630200797602006F6302006F630200A3
:106090006F6302006F630200059F02006F630200DE
:1060A0006F6302006F6302006F6302006F630200A0
:1060B0006F6302006F630200000000000000000038
:1060C0006F6302006F6302006F6302006F63020080
:1060D0006F6302006F6302006F6302000000000044
:1060E00000000000000000000000000000000000B0
:1060F00000000000000000000000000000000000A0
:10610000000000000000000000000000000000008F
:10611000000000000000000000000000000000007F
:10612000000000000000000000000000000000006F
:10613000000000000000000000000000000000005F
:10614000000000000000000000000000000000004F
:10615000000000000000000000000000000000003F
:10616000000000000000000000000000000000002F
:10617000000000000000000000000000000000001F
:10618000000000000000000000000000000000000F
:1061900000000000000000000000000000000000FF
:1061A00000000000000000000000000000000000EF
:1061B00000000000000000000000000000000000DF
:1061C00000000000000000000000000000000000CF
:1061D00000000000000000000000000000000000BF
:1061E00000000000000000000000000000000000AF
:1061F000000000000000000000000000000000009F
:10620000354936480A1A02D0072291438D4634494F
:1062100034480A1A06D00722914381F309880222E2
:1062200082F3148830483149314A00F044F831484B
:106230003149324A00F03FF831483249324A00F0E1
:106240003AF832483249334A00F035F83248334997
:10625000334A00F030F833483349344A00F02BF821
:1062600033483449344A00F026F83448344900228F
:1062700000F02CF833483449002200F027F8334866
:106280003349091A082902DB002202604160314AC1
:1062900090471F481F49884205D00268043003B464
:1062A000904703BCF7E700208646EC46002000211B
:1062B000294A9047FEE7884207D0521A05D0037852
:1062C00001300B700131013AF9D17047884202D098
:1062D00002700130FAE770470000012000E0002062
:1062E0000000012000000120B8B20200702500204B
:1062F000B4250020D0630200D0630200B6A30200E0
:10630000B8B202007025002070250020A4A402006D
:10631000A4A40200A4A40200A4A40200A4A4020055
:10632000A4A40200A4A40200A4A40200B6B2020025
:10633000FCB20200B4250020B4250020B4250020C2
:10634000D0300020D0300020D0300020D0300020CD
:10635000D05000209D630200E18A0200FEE7FEE7C4
:10636000FEE7FEE7FEE7FEE7FEE7FEE7FEE7FEE705
:1063700000F002B8FFF7FCBF0F484FF00701884359
:1063800085460E4880470E48016841F4700101605F
:10639000BFF34F8FBFF36F8FFFF732BF09480A4932
:1063A0000A4A884207D0521A05D0037801300B7090
:1063B0000131013AF9D1704700000120BD7F020090
:1063C00088ED00E0A4A402007025002070250020C4
:1063D0007047000007B5044B0093044A402300F0C7
:1063E00032F803B05DF804FBF1630200B52500202C
:1063F0002DE9F84388461446B2B10F4B0F4E0325E2
:10640000002743F00109224608EB0701002002F0B3
:106410006FFD0744241A48B933782BB14FF47A4002
:10642000C847013D02D13570BDE8F88301233370C0
:10643000002CE8D1F8E700BFB0A40200B42500208A
:10644000704702F089BDF0B595B01D461646084666
:106450000C4601F0BBFC1A9B0D93CDE908650025A5
:106460002B46082205A920460A958DF82C500C953C
:1064700001F0C9FC079B0293069B03939DF814301F
:106480008DF8115003F00302012A1DD1BDF814202C
:10649000059DC3F3C203C2F383168DF81030B2001A
:1064A00008230EA9204601F0AEFCC5F3952508ABE4
:1064B0000093324602AB0EA9284600F027FB204687
:1064C00001F088FC15B0F0BD022AF8D1BDF81650D5
:1064D000C3F3C203C5F389158DF810300827082DC2
:1064E0002E4628BF08263B4632460EA9204601F01C
:1064F0008AFCAD1B08AB02AA31460EA8374400F057
:1065000069FB002DEBD1DAE708B5FFF79AFF0448E5
:10651000042100F065FA034B01225A7108BD00BF47
:1065200094A4020070250020037813F0040216D012
:1065300003F00303012B03D0022B09D00120704785
:106540000A6800880232C0F3831002440A60F5E74B
:106550000B684288023303EB92130B60EEE71046A0
:10656000704700002DE9F04F87B000230446861CD9
:106570000DF107000F4615468DF8073000F00EFFAD
:10658000404A51683960936803F580735B1A9246FC
:1065900002F21C4702F5836902F21448B3421AD38F
:1065A0000020002D69D004F00F039B0143F0050388
:1065B00063F30F00DAF80430DAB203321E444AF80B
:1065C00022009DF80700CAF8046000F00BFF0120CC
:1065D00007B0BDE8F08F0121384601F02AF948469E
:1065E00001F03FF9404601F03CF9DAF8080002906A
:1065F000C0B203300AEB800002A9FFF795FF029BAF
:1066000030BBDAB20AEB8202D16803919A1C0133E3
:10661000DBB20AEB83030292D3F80CB001F0030360
:10662000012B22D0022B15D08346404601F01CF9E5
:1066300010B1029BCAF808305946384601F0F9F803
:10664000DAF80830DAF8042003F580739B1AA5E71E
:10665000D8B2CEE7BDF80E30C3F3891303334FEA47
:106660001B4B02EB93030293DFE7BDF80C30C3F33F
:1066700083134FEA1B4B1344F5E7A40544F00600CF
:1066800098E700BFC8260020064B074810B5012236
:106690001A7001F054FB044610B9044801F0FCFBE9
:1066A000204610BDC826002008A40200ECA4020069
:1066B00030B50A4C71B10A4A0A49121BD2080023AC
:1066C0009A4201D1002030BD31F82350854202D0DA
:1066D0000133F5E7034654F83300F4E71CA4020045
:1066E00094A4020070250020094B013903EBC0007F
:1066F000032909D8DFE801F00A02040604207047E4
:106700000079704740797047002070470220704739
:106710001CA40200034BD3E90130C31A584258416C
:10672000704700BFC82600202DE9F04186B0FFF772
:10673000F1FF0546002840F0E680744CC4F81804C8
:10674000BFF34F8FA3680293DBB2033304EB8300E4
:1067500002A9FFF7E9FE029B18B1D4F81824002A19
:1067600055D0DAB2991C013304EB8202DBB204EBA0
:106770008303D268DB68049302F00303022B0392C5
:1067800002914FD1BDF80E306148C3F38917502FE5
:106790003E4628BF502666F38F1306F10801ADF878
:1067A0000E3001F0E4FA0546002800F0978001F071
:1067B0000DFB002303A90822284601F01AFB0299C9
:1067C000CB43DBB20133C9B20331B6EB830F4FEADF
:1067D000830804EB810122D908234246A6EB080670
:1067E000284601F006FBF6B24A4908F10803324692
:1067F000284601F0FEFA029B033703EB9707029746
:10680000D4F81834002B41D1D4F8106451E06268F8
:106810009A4299D8A260284606B0BDE8F0810823C4
:106820003246E5E7012B59D1BDF80C303848C3F3A7
:106830008311062928BF062161F3891302318900DB
:10684000ADF80C3001F093FA0546002846D001F06F
:10685000BDFA0023082203A9284601F0CAFA00263F
:10686000BDF80C20C2F38312B300964203F1080373
:10687000C6D202994A1CC9B20331029204EB8101CB
:106880000422284601F0B5FA0136E9E7284601F06E
:10689000A1FAFFF73FFF80F00100C5B2BBE7F36844
:1068A0005B7923B1336829461B6830469847F36803
:1068B0001E68002EF3D1284601F08CFA0DF1070076
:1068C0008DF8076000F06AFDD4F818340BB9029B0C
:1068D000A3609DF8070000F085FDDAE7D4F81044C6
:1068E00054B90D4B0D480E49C01AC008000440F0C1
:1068F000020000F05DF8CCE7236820469B689847CB
:10690000E3681C68ECE7002585E700BFC826002087
:1069100008A40200D42600201CA4020044A4020003
:10692000D4A402002DE9F34704460E46924601A97D
:10693000012218469946FFF715FE1B4F10B3019D23
:106940004FF00008AA1CC84508EB020123D11748E4
:10695000002100F03FFF80F31000000440EA1440E3
:10696000E4006B1C04F03804DBB2EDB244F0010427
:1069700007EB8303033544EA881444EA8624D8608D
:1069800047F825403B781BB1FFF7CEFE0028FBD12E
:1069900002B0BDE8F087C9B207EB81015AF8283090
:1069A000CB6008F10108CEE7C8260020E42A0020C9
:1069B00000231A46FFF7B6BF07B50123019201AACB
:1069C000FFF7B0FF03B05DF804FB07B5CDE9002386
:1069D00002236A46FFF7A6FF03B05DF804FB000040
:1069E00030B50F49D1F8102403460020144634B9BD
:1069F000DC6820714AB9C1F81034226030BDE46807
:106A00002579854206D02468F1E7D26811682160B3
:106A10001360F3E701300A28E8D14FF0FF30EDE7CB
:106A2000C8260020084A38B50123D2F81044137054
:106A30001D4604B938BDE3685D71236820465B6874
:106A40009847E3681C68F4E7C826002007B50346AA
:106A50000846197A052911D05B7A2BB1094A0A49EF
:106A6000019000F064FF01980849019000F05FFF79
:106A7000019803B05DF804EB00F04EBF002AF8D097
:106A8000F2E700BFF8A40200FDA402001DA5020069
:106A900030B5C38885B004460D4633B1144A009220
:106AA0001449154A284600F042FF217A05291DD0D5
:106AB000637A4BB1A088FFF717FE104B104953F8CB
:106AC0002020284600F033FF227A0E4BA08853F88E
:106AD000222003920021FFF7EBFD039A0A490346A7
:106AE000284605B0BDE8304000F021BF05B030BDFC
:106AF000F8A4020008A5020000A5020084A5020077
:106B0000FDA40200A8A5020020A502002DE9F04383
:106B100085B01F460C9D002395F80C902B730646FC
:106B20000C46904629463846FFF7B2FFB8F1060FEB
:106B300009D8DFE808F00412181F28334000314656
:106B4000284600F0F4FE002229463846FFF77EFF73
:106B500085F80C9005B0BDE8F083226831462846E0
:106B600000F0E5FEEFE7D4E900233146284600F0C7
:106B7000DEFEE8E7A36800933146D4E90023284607
:106B800000F0D5FEDFE7E3680193A3680093314688
:106B9000D4E90023284600F0CAFED4E72369029313
:106BA000E3680193A36800933146D4E900232846A3
:106BB00000F0BDFEC7E76369039323690293E368AE
:106BC0000193A36800933146D4E90023284600F0DE
:106BD000AEFEB8E708292DE9F74F80460E46174666
:106BE0001C463CD8002593F80C901D73194610469E
:106BF000FFF74EFFDFF888A0DFF888B0AE4231D94A
:106C000018F805205946204600F091FE0135082D60
:106C1000F4D11949194DDFF870A0204600F087FE25
:106C20004FF0000B5E4522D918F80B207E2A05D8BC
:106C30001046019203F00CFB019A00B92E22514636
:106C4000204600F074FE0BF1010BBBF1080FE9D1F7
:106C5000012221463846FFF7F9FE84F80C9003B074
:106C6000BDE8F08F5146204600F061FECEE7294690
:106C7000204600F05CFEE6E734A5020032A50200E3
:106C800030A502002AA5020036A50200C30710B5F0
:106C900007D4F023054A4008145C234019431154DB
:106CA00010BD0901C9B20F23F4E700BFB02B0020CB
:106CB00030B5094B1C78094B196800239C4202DC53
:106CC0000022104630BD11F83350854201EBC3025B
:106CD000F7D00133F2E700BF802B0020C02B00204B
:106CE00013B504460191FFF7E3FF38B143682BB1B8
:106CF0000199204602B0BDE81040184702B010BD0F
:106D0000034B044819680022490800F056BA00BF36
:106D1000842B0020882B002010B5C0B2FFF7C8FFDD
:106D20000446007801F01AFD63785A1E534253411D
:106D3000834208D1044BD3E90023134303D1BDE8B8
:106D40001040FFF7DDBF10BDA82B002037B543086A
:106D5000354AD35CC2074CBF1B0903F00F0304463E
:106D60000D46042B35D8DFE803F003252C383C0012
:106D700079B30121FFF78AFF00230DF107008DF899
:106D8000073000F00BFB0120A4F12003C4F1200127
:106D9000264A20FA01F100FA03F30B43A040D2E99E
:106DA000004120430B43C2E900039DF8070000F0B7
:106DB00019FB0EE0002918BF02212046FFF766FFED
:106DC00007E041B10321FFF761FF01212046FFF7F2
:106DD00087FF03B030BD0121EFE70029F9D104217D
:106DE000EBE709B10321E8E7FFF750FF294620460A
:106DF000FFF776FF0DF107008DF8075000F0CEFA8F
:106E00000120A4F12003C4F12001084A20FA01F175
:106E100000FA03F30B43A040D2E9004124EA00004A
:106E200021EA0303BFE700BFB02B0020A82B0020FE
:106E30002DE9F041124E134F00243378A34208DCB1
:106E4000114BD3E90023134318D0BDE8F041FFF7FD
:106E500057BF3D6805EBC40815F8340001F07EFC0F
:106E600098F801305A1E53425341181A4142414189
:106E700015F83400FFF76AFF0134DEE7BDE8F08162
:106E8000802B0020C02B0020A82B0020092AF7B55A
:106E900005460C4616463CD901F07EFBD8B11E4B88
:106EA0001E481D601E4B1F4F1C701F4B00211022DF
:106EB0001E6003F0FBF91D4B00200021C3E9000117
:106EC000013CE4B20326FF2C0BD1194A19480021DA
:106ED00000F068F903E001F021FB0028DFD003B0E7
:106EE000F0BD9DF8063015F834008DF8046005EB10
:106EF000C40223F007038DF8063001A993788DF8BA
:106F000005303A4601F052FB013CE4B20028DAD0E9
:106F1000E5E70720E3E700BFC02B0020B02B0020EF
:106F2000802B0020196D0200842B0020A82B00204C
:106F3000316E0200C8A5020070B5084D084E00244D
:106F40002B789C4201D3002070BD3368012113F8D7
:106F5000340001F09DFB0134F2E700BF802B0020DC
:106F6000C02B002073B5114D114E00242B789C428C
:106F700014D300230DF107008DF8073000F00EFA4E
:106F80000C4B00210020C3E900019DF8070000F030
:106F900029FA094800F029F902B070BD336813F8E6
:106FA000340001F0B9FB0134E0E700BF802B002082
:106FB000C02B0020A82B0020882B00201FB500210B
:106FC000039001AA44F20100CDE9011100F004F898
:106FD00005B05DF804FB000010B572B6FFF722FDA6
:106FE000FFF7A2FB0028FBD1104B114C1149E41A0A
:106FF000E408240444F00100FFF7DAFC0E4B1B68A0
:10700000DB0700D500BE0D4944F00200FFF7D0FCBD
:10701000BFF34F8F0A490B4BCA6802F4E062134377
:10702000CB60BFF34F8F00BFFDE700BF1CA4020081
:1070300044A40200CCA50200F0ED00E0D8A50200B7
:1070400000ED00E00400FA05D0E90223D1E90201D5
:10705000994208BF90422CBF0120002070470000D9
:1070600008B50B4800F0F1FA0A4B0B49D3E90023AD
:107070001218D1E9000143F100038B4208BF82429C
:1070800003D212F1807243F100031046194608BD85
:1070900078250020C82B0020402C002037B505465D
:1070A0000C460A4801A900F004FB60B10570446079
:1070B00001A9064800F027FB18B1054800F0CAFAFC
:1070C000002003B030BD0420FBE700BF2C2C0020C3
:1070D0007825002038B5184B1B78044613B90025D5
:1070E000284638BD0028FAD0037F03F0FF05002BA7
:1070F000F5D0FFF7B5FFD4E90223994208BF9042CB
:1071000014D3236903B92377D4E90530984721695B
:107110000029E4D0237F03F0FF05002BDFD0D4E962
:107120000223521843F10003C4E902230348214615
:1071300000F0D1FED4E700BFD02B0020F4A5020060
:1071400013B5114B114918680190082310485822B3
:1071500000F09CFA044698B90E4A0F4801A900F0C5
:1071600065F9044660B90C48012100F051FA012389
:107170000A4A0948194600F0B3F9094B01221A706E
:10718000204602B010BD00BFF0A50200D42B0020A5
:107190002C2C00200572020078250020FFFF7F00C4
:1071A000D02B00203AB103685A614A1E5142514126
:1071B0001961002070470720704738B5037F0446E7
:1071C0000D4683B98261FFF74BFF2369401941F1F6
:1071D0000001C4E9020103B1256121460020BDE898
:1071E0003840FFF75BBF002038BD0023014603771E
:1071F0000120FFF753BF0000014800F026BA00BF8E
:10720000782500202DE9F04F85B0804600F008FA7F
:1072100040B15A4AD2E9003113F1807341F10001C3
:10722000C2E900310021404600F009FA38B1544E5D
:10723000336823B13068FFF74DFF0023336001212D
:10724000404600F0FCF920B1FFF70AFF4D4BC3E9BF
:1072500000014D484A4F4D4EDFF8389103A900F028
:1072600062FA002845D1DFF82491454EDFF828A1C5
:10727000484600F046FE3368002875D07BB133687D
:10728000D0E90201D3E90223994208BF90422DD2EE
:1072900033681B7F1BB13168484600F01CFE48462E
:1072A00000F029FED0E902B307460193FFF7D8FEAC
:1072B000019BBBEB000463EB0105012C75F100039E
:1072C00045DBB4F5350F40D3FFF796FF304A024453
:1072D0004FF496030021504600F022F900283ED1D9
:1072E000336813B9404600F0F3F8376005B0BDE8E5
:1072F000F08F0378012B1DD0022B09D14FF0000A2B
:10730000304600F0F8FD002834D080F81CA0F7E7E4
:107310003BB941680B7F23B901230B77304600F05E
:10732000DAFD03A9184800F029FA03A9164800F06D
:10733000FAF996E741683B68994202D100233B6025
:10734000EFE7304600F0E0FDEBE7BA68C0E7002168
:10735000504600F06AF93846FFF7BCFE01E00D2800
:10736000F9D00023336083E7002BBFD1404600F003
:10737000B3F8BBE7012389F80030D2E7C82B00201F
:10738000482C0020402C00202C2C0020F4A50200CA
:10739000FFFFB400D02B00207825002070B5EFF35C
:1073A000108672B60C4A946801239CB993600B4B0B
:1073B0000B4DD3F8801029401160C3F88050D3F8EA
:1073C000841051604FF0FF32C3F88420047006B976
:1073D00062B670BD0370FAE74C2C002000E100E0BB
:1073E000FC06FFBD084B9A6810B55AB150B9EFF3CF
:1073F000108172B6054A1C6814605C68546098601D
:1074000001B962B610BD00BF4C2C002000E100E0C5
:10741000435882B03BB10023435043580193019B32
:10742000012002B070471846FBE70000F8B5204B7A
:107430004479204D43F824201F4A204B05EBC40417
:107440009B1A2279DB081B0432B143F002001C496D
:10745000FFF7AEFA0820F8BD02680C88C2F80845AC
:1074600090F904608A7804795201002ED2B219DBB7
:1074700014498F1987F800230122760904F01F04AC
:1074800002FA04F441F82640427905EBC2010124D6
:1074900045F832000C7143F003000B49FFF788FAFE
:1074A0000020D8E7094904F00F040A55ECE700BFB3
:1074B000602C0020582C00201CA4020054A40200C0
:1074C00000A6020000E100E022A6020014ED00E0A8
:1074D000036801221A607047036801225A607047EE
:1074E00073B501F15005AD000068ADB24FF48034C2
:1074F0008C400026C0F80843C0F84843465101F5C7
:10750000A8714559019522F07F42019D40F8212044
:10751000C0F844430BB1C0F8044302B070BD000092
:107520002DE9F74F0D4622F07F4402684FF4803773
:1075300005F150068F408046B60002EB8500C2F888
:107540004873B6B2C2F80873D2F8041599464FF0E2
:10755000000BD0F84035C0F8401542F806B05B1A71
:107560009259009223F07F43012B009A4FEA850A3B
:107570000CD1264B4FF4806043F001039847D8F8B4
:10758000003043F806B09B590193019BD8F80010D6
:10759000D1F80465C1F84473A31B23F07F43012B8A
:1075A0001CD11A4B05F5A875013443F0010341F8CD
:1075B00025404FF480609847D8F80030D3F8043560
:1075C0009E4209D1D8F800300020C3F84473C3F8B4
:1075D000047303B0BDE8F08F0D20FAE78A44C9F1C7
:1075E000FF13CAF84045D1F80405221A013A22F0E7
:1075F0007F4203F57F439342EED3002AE2D1013468
:10760000CAF84045D1F804359842DAE740A60200AE
:1076100003680222C3F8442309B1C3F80423704766
:1076200000684FF48271FFF7F3BE4FF4803303FA22
:1076300001F10368C3F84813C3F8081370475031C9
:107640008900006889B2FFF7E3BE0368D3F8040538
:107650007047000090F90430002B09DB5A09012122
:1076600003F01F0301FA03F34032024941F82230CC
:10767000704700BF00E100E0024B034A1B6810683E
:10768000184700BF602C0020582C002010B561B1B5
:10769000B2FBF3F403FB1424A4B244B9C0E9001410
:1076A00084608281C381204610BD0E20FCE7092042
:1076B000FAE737B550E8013F9DB2C4892544848973
:1076C000A54228BF2D1B0489A54202BFBFF32F8FFF
:1076D000002207E0C5EA030540E80154002CE9D187
:1076E0004FF001028DF803200193019B9DF80320C8
:1076F0000B6002F0FF0322B10B880068184403B04E
:1077000030BD1846FBE70A884B889A4209D150E8F9
:10771000012FC2EA024240E80123002BF7D10120E9
:1077200070470020704737B550E8023F1FFAA3F5B5
:10773000C488A54202BFBFF32F8F00220DE0C48989
:1077400025448489A54228BF2D1BC3EA054540E88E
:107750000254002CE8D14FF001028DF80320019370
:10776000019B9DF803200B6002F0FF0322B14B88C0
:107770000068184403B030BD1846FBE70A884B8800
:107780009A4209D150E8022FC2EA224240E802237D
:10779000002BF7D1012070470020704701F01F0235
:1077A0004B090121914000EB830000F01EB801F06D
:1077B0001F0301229A404B0900EB8300D14300F0E4
:1077C0002CB84B0901F01F0150F82300C84000F00D
:1077D0000100704710B5034653E8000F0A4643E81E
:1077E000002494F0000FF7D110BD10B5034653E804
:1077F000002F42EA010043E8000494F0000FF6D1A4
:1078000010BD10B5034653E8000F00EA010243E83B
:10781000002494F0000FF6D110BD10B5034653E8D4
:10782000002F02EA010043E8000494F0000FF6D1B3
:1078300010BD10B5034653E8002F02EB010043E8EA
:10784000000494F0000FF6D110BD10B5034653E8C4
:10785000002FA2EB010043E8000494F0000FF6D1E2
:1078600010BD0121FFF7C1BF0021FFF7CABF10B54E
:1078700090B1D0E9012301689B1ADBB20A60013B99
:10788000DBB2FF2B026802D10020107110BD11681D
:107890004C1C14600B70F2E70E20F7E737B5054675
:1078A00000240DF107008DF80740FFF777FD2A68E7
:1078B0006B68116899420ED9481E106011F8014C8E
:1078C000EB68298A01FB0434AB6811791B1ADBB21F
:1078D000994238BF13719DF80700FFF783FD2046DA
:1078E00003B030BD37B5054600230DF107000C4647
:1078F0008DF80730FFF752FD2A681368591C116094
:10790000E968641A298AB4FBF1F41C709DF8070039
:10791000FFF768FD03B030BD826810B504462AB198
:1079200043690168006998470023A36010BD0EB445
:1079300003B5039921B104AB01AA019300F06EF8DD
:1079400002B05DF804EB03B07047826830B404689D
:10795000551C8560A154D0E901329A4202D330BC53
:10796000FFF7DABF30BC70472DE9F84F9846DDE9E4
:107970000A43154682460F460A464FF00109AA42BD
:107980000FD2C14538BFC14613F0010B01D16CB90C
:1079900000240126B8F1010F1BD908F1FF386E430E
:1079A000F8E709F10109B2FBF5F2E8E79B070ED50C
:1079B000B8F1000F0CBF30262026A145E9D2013CCA
:1079C00031465046FFF7C1FF002CF6D1E0E72026F4
:1079D000F3E7B7FBF6F39D42E1D9DFF83C80B7FB54
:1079E000F6F3504618F8031006FB1377FFF7ADFFC8
:1079F0003346AB42B6FBF5F6F1D2BBF1000F02D035
:107A00000CB1A14501D3BDE8F88F20215046013CBF
:107A1000FFF79BFFF4E700BF46A602002DE9F74FF2
:107A2000054617468846002900F0428118F8011BD8
:107A300049B92B7B002B00F03B81284603B0BDE801
:107A4000F04FFFF769BF252940F0B780002698F86E
:107A500000302D2B424608F1010823D0302B24D0D2
:107A60002B2B25D000242A2B02F1010123D13B68C6
:107A70001A1D1B683A601C440A4613782E2B26D127
:107A800001324FF0000A104610F8011BA1F1300C32
:107A9000BCF1090F1DD80A2303FB0A13A3F1300A16
:107AA0000246F0E746F00106D1E746F00206CEE7CF
:107AB00046F00406CBE711F8013CA3F13000092899
:107AC000DBD80A2202FB0434303C0A46CBE74FF0F5
:107AD000000A12F8011B01F0FB0068289046F8D05C
:107AE000782909D86F290CD8632962D022D8252992
:107AF00063D0582900F0888098F80030002B95D189
:107B000097E770390829F7D801A353F821F000BF8F
:107B10008B7C0200F97A0200F97A0200197C0200DB
:107B2000F97A0200F77B0200F97A0200F97A020082
:107B3000097C0200642901D06929DDD13A68D2F8B4
:107B40000090111D89EAE9723960A2EBE9724FF0E9
:107B5000010B092A35DCD34538BFD3462CB1B9F126
:107B6000000F01DB720700D5013CB30702D5BAF163
:107B7000000F03D0F00701D44CBB0024B9F1000F73
:107B80002DDAC9F100092D212846FFF7DEFE06F0A7
:107B90000302022A04D1BAF1000F01D11CBB002458
:107BA000CDE9004653460A2249462846FFF7DCFE47
:107BB000A2E73B681A1D19783A602846FFF7C5FE10
:107BC0009AE70A230BF1010BB2FBF3F2C1E7A345DD
:107BD000D4D220212846013CFFF7B7FECCE771073D
:107BE000D5D52B21D0E7A345DAD230212846013C58
:107BF000FFF7ABFED2E73968CDE900460A1D3A60CF
:107C000053460A220968D0E739680A1D3A60CDE96F
:107C1000004653461022F5E73B681A1D3A6016F0FD
:107C20000106D3F8009028D1B9F1000F03D04846DF
:107C300002F091FB0646B44200D904BB09F1FF39BA
:107C400019F8011F00293FF457AF2846FFF77DFEC2
:107C5000F6E728460136FFF778FE19F806100029E6
:107C6000F7D1A642BFF448AF002C3FF445AF202126
:107C70002846013CFFF769FEF3E70026EDE72021E7
:107C80002846013CFFF761FED5E73B681A1D3A60C4
:107C9000302128461C68FFF758FE78212846FFF758
:107CA00054FE00220823CDE90032214610227CE751
:107CB00003B0BDE8F08F00BF2DE9F84FB0F806A083
:107CC0004579D2F800B09DF828900AFB05F5043DEF
:107CD00088460BEB0301A94203F1040488BFA5EB1E
:107CE000030BB4FBFAF607460AFB1644C2F800B0D1
:107CF0004EB9AAEB04055D4528BF5D46BBF1000FF8
:107D000004D1BDE8F88F3F68013EF1E7043408EB89
:107D100006003C442A46B9F1000F0DD02146ABEBDA
:107D2000050B02F09AFADA452E443F6855464FF0AB
:107D3000000428BF5D46E1E701462046EFE7FFF774
:107D400096BDF8B546790146721E0546002393425A
:107D50002D6803D30024A64202D8F8BD0133F6E70C
:107D60000F682846FFF7BEFD01343946F3E72DE9D9
:107D7000F843068ACD1C0746FFF790FD043E3544C4
:107D80000446B5FBF6F5F0B14FF48073EDB2838095
:107D9000C680013D076081464FF00008A84512D219
:107DA0003846FFF77BFD064648B1637901336371BE
:107DB00008F10108C9F8000007608146EEE7204697
:107DC000FFF7BFFF34462046BDE8F88301210430A9
:107DD000FFF72FBD10B5012104460430FFF735FD34
:107DE00010F0FF0F04D12046BDE81040FFF7A9BFF7
:107DF00010BD1FB503920022009203AAFFF75CFF9B
:107E000005B05DF804FB1FB503920122009203AA9E
:107E1000FFF752FF05B05DF804FB41DF704700003B
:107E2000064B10B500241C70054B1C60BFF35F8F20
:107E30000449054800F039F8204610BD6C2C00209C
:107E4000702C002060A60200642C002007B50023DF
:107E50000DF107008DF80730FFF7A0FAF1EE103AA8
:107E600023F09F03E1EE103ABFF35F8F094B4022EE
:107E7000C3F884219DF80700FFF7B4FA02F028F850
:107E800020B1FFF7CAFF03B05DF804FB20BF40BF7D
:107E900020BFF8E700E100E0836800225A60C3E9F0
:107EA00004229A60DA601A6070470B684A6843607F
:107EB000934208BF0023016008BF436070474368D6
:107EC00043B10268916852680B449342436004BF17
:107ED00000234360704770B5446806460D4620682D
:107EE00018B1B3682946984718B923682B602560F4
:107EF00070BD2468F3E74368186808B102681A6027
:107F000070474368186870474368186800B970473D
:107F1000884203D102681A60012070470346006856
:107F2000F4E7000010B50D49A1F59472914201D813
:107F300000200FE08C1AE30F03EBE4035B1002EB6D
:107F4000C30452F83330834205D802D204F1080248
:107F5000ECE7606810BD2146E8E700BF6CAB0200AB
:107F600008B5FFF7DFFF024B002808BF184608BD21
:107F70002FAA0200044B1868421C04BF034B187858
:107F8000831F58425841704730010010E00F00F045
:107F9000074B1B78062B09D1064B1B68C3F3031351
:107FA000033B032B02D8044AD05C70470020704783
:107FB000E00F00F0E80F00F074AB020008B5FFF727
:107FC000D9FF28B1834B844A1B68C3F30423136091
:107FD000FFF7DEFF10B1814B814A1A60FFF7CAFF3D
:107FE00028B1804B804A1B68C3F342331360FFF70C
:107FF000CFFF20B17D4AD36823F08073D360FFF7B1
:10800000B9FF40B14FF080430022C3F80C21C3F800
:108010001021C3F83825FFF7BBFF10B1744B0322C2
:108020001A60FFF7B5FF40B1724B05221A600122BA
:108030009A6700229A603F225A606F4B1A68511C5F
:108040000BBF6E4B6E4B1A781B6802BF08331B6860
:10805000C3F30313062A4DD1033B032B03D8694A0C
:10806000D35C002B46D04FF08052674BD2F80414FB
:10807000C3F82015D2F80814C3F82415D2F80C144C
:10808000C3F82815D2F81014C3F82C15D2F814141C
:10809000C3F83015D2F81814C3F83415D2F81C14EC
:1080A000C3F84015D2F82014C3F84415D2F82414AC
:1080B000C3F84815D2F82814C3F84C15D2F82C147C
:1080C000C3F85015D2F83014C3F85415D2F834144C
:1080D000C3F86015D2F83814C3F86415D2F83C140C
:1080E000C3F86815D2F84014C3F86C15D2F84424CC
:1080F000C3F87025FFF73EFF28B1444B444A1B6884
:1081000003F04F031360FFF735FF48B14FF0804392
:10811000D3F80024D20744BF6FF00102C3F8002453
:10812000354B1B68062B0CD1354B1B68033B032BCF
:1081300002D8384AD35C23B1374A136843F48063CA
:108140001360364AD2F8883043F47003C2F888309E
:10815000BFF34F8FBFF36F8F4FF01023D3F8002280
:10816000002A03DBD3F80432002B2FDA2C4B012238
:10817000C3F80425D3F80024002AFBD04FF01022C6
:108180001521C2F80012D3F80024002AFBD04FF0CA
:1081900010231522C3F80422214B1A46D3F80014E9
:1081A0000029FBD00021C3F80415D2F80034002BBD
:1081B000FBD0BFF34F8F19491A4BCA6802F4E06233
:1081C0001343CB60BFF34F8F00BFFDE7164B174A39
:1081D0001A6008BD240300104035014074C00740F8
:1081E0000DF0ADBA440200103C050040F0ED00E097
:1081F000A00500401056004030010010E00F00F0D4
:10820000340100106CAB020000C0004058020010A6
:10821000E40E004070AB02003C17004000ED00E0AF
:1082200000E001400400FA05802500200090D00302
:10823000044B1A5C012393404FF0A042C2F80C3566
:10824000704700BF78AB0200044B1A5C01239340D7
:108250004FF0A042C2F80835704700BF78AB02006B
:1082600008B50020FFF7F0FF0120FFF7EDFF022027
:10827000FFF7EAFFBDE808400320FFF7E5BFC207AC
:1082800008B501460CD54FF0A0430322C3F844279C
:10829000C3F84827C3F84C27C3F85027FFF7E0FF7F
:1082A0008B070AD54FF0A0430C22C3F83427C3F83C
:1082B0003827C3F83C27C3F8402708BD38B5074C1A
:1082C000051E04F1080318BF1C4623682BB11A6869
:1082D00022605B6828469847F7E738BD7C2C002071
:1082E00020B9054B01225A70FFF7E8BF012802D1DF
:1082F000014A9070F8E77047742C002020B9034BB6
:1083000001225A70FFF7DABF704700BF742C0020BB
:1083100038B50E4C2378B3B90D486360A360236170
:10832000E36000F073F8054601F0D2FD08B900F0F3
:1083300079F801232370074BD3F800340BB10123E4
:10834000A370284638BD8525F5E700BF742C0020B2
:10835000E18202000000014037B50D4C00230DF111
:1083600007008DF80730FFF719F8E368013BE36079
:10837000E36833B9074BD3F8005415B900F064F83B
:10838000A5709DF80700FFF72DF803B030BD00BFC2
:10839000742C002000000140012813B50CD00328E4
:1083A00020D038B9124B0122C3F88020BFF34F8F81
:1083B000BFF36F8F02B010BD0E4C00230DF107000C
:1083C0008DF80730FEF7EAFF23780BB9FFF7A0FF1F
:1083D000E3689DF807000133E3600123A370FFF712
:1083E00001F8E7E700F01EF8FFF7B6FFE2E700BF8D
:1083F00000E100E0742C002000F18040002382B0F6
:10840000036003680193019B02B07047044A13792B
:1084100023B901211060918018467047852070476C
:10842000882C0020074B1A68D20704D4C02283F896
:10843000002301221A604FF080430122C3F818255F
:10844000704700BF00E100E04FF0804208B5022312
:10845000C2F808334FF48270FFF7CEFF034B0121BF
:108460001960D2F81834DB03FBD408BD0C000040BF
:10847000124B1B6810B573B14FF48070FFF7BCFF4F
:108480004FF080430122C3F808230D4B587910B9EF
:108490005A711B6898470B4B1B6873B14FF482707D
:1084A000FFF7AAFF4FF080430222C3F80823044BD2
:1084B000BDE810401B680120184710BD00010040B6
:1084C000882C00200401004000F1804000F5C040ED
:1084D000002382B0036003680193019B02B07047E0
:1084E000800000F1A040D0F8002722F44032C0F80C
:1084F0000027D0F8003743EA0141C0F80017704761
:10850000054B4FF0FF32072843F8202084BFC018E6
:1085100080F84820704700BF902C002010B51A4CFE
:1085200094F858306BBB4FF0FF3222FA03F1C907C1
:1085300048BFE11803F1010348BF81F83020202B28
:10854000F3D10021C8B2FFF7DBFF01310C29F9D1CB
:10855000042200210D4801F0A9FE0D4BC02283F832
:10856000062340221A604FF4BE70FFF7ADFF094B9F
:108570004FF00042C3F80423012384F85830002050
:1085800010BD0820FCE700BF902C0020E42C002048
:1085900000E100E000600040034B93F85800003811
:1085A00018BF0120704700BF902C0020F0B5364D59
:1085B0002C1894F93040002C64DA8C78C4F3400411
:1085C000002C0BBF082300230C260826B34201D140
:1085D0000420F0BD55F8237001373FD12E1845F81F
:1085E000232086F8303014B9EA1882F848008A78D7
:1085F000540713D4D60733D5820002F1A042D2F833
:10860000004724F00204C2F80047204EC20800F0E0
:1086100007070124BC40B75C3C43B4548A780C780B
:1086200012F0020225D09B0003F1804303F5C04302
:108630000202D3F8101521F4473121F44071C3F838
:1086400010152404D3F8101502F4F85204F4403441
:1086500022430A43C3F810250020BAE70133B5E7E7
:108660004C7800F5E0724FF0A046A40046F8224096
:10867000CBE7083B2B4493F8501041EA841483F86D
:108680005040E9E70820A4E7902C0020E42C0020CB
:1086900038B51F4C251895F93020072A16DD2244DD
:1086A00092F848309B09032B0BD14FF0A043D3F82D
:1086B0001015C14001F001010231BDE83840FFF75B
:1086C0000FBF012B0CBF02210321F6E7D3B2072B0A
:1086D0001CD8930003F1804303F5C043D3F8100581
:1086E00040F00100C3F8100502F14000800080B2A4
:1086F000FFF7EAFE51B195F9303054F823302BB131
:10870000012303FA02F2034BC3F8042338BD00BF70
:10871000902C0020006000400E4B034493F9302061
:10872000072A02DD0021FFF7DBBED3B2072B10D8EA
:10873000930003F1804303F5C043D3F8101521F0F3
:108740000101C3F81015012303FA02F2024BC3F82A
:1087500008237047902C0020006000404FF0A04399
:10876000D3F8103523FA00F000F001007047000044
:108770002DE9F74F00244E4D01944FF480720121F2
:1087800002F1804303F5C04390B21B68012B06D170
:10879000D5F804330B4202D0FFF796FE0C430432A7
:1087A000B2F5907F4FEA4101EAD1424B1B68012BA1
:1087B0000CD14FF4BE70FFF787FE4FF0A04344F09A
:1087C0000044D3F820250192C3F8202514F0FF0FB0
:1087D0001AD0394F00250126344210D0AB0003F1E6
:1087E000804303F5C043D3F81005D3F8101557F8AC
:1087F000253023B1C1F30141C0F30420984701356E
:10880000082D4FEA4606E7D1002C48DA2A4D4FF0F2
:10881000A0482A4E4FF00009012716F9013B5A1CC7
:1088200031D0C3F3C20202A90A44DCB212F8042C0C
:1088300003F03F0A03F0070307FA03F31A4222D0BA
:108840000AF5E073504658F82330C3F3014BBBF1EF
:10885000020F0CBF03210221FFF742FE07FA0AF3C1
:10886000C8F8203505EB0A0393F9303055F823306A
:108870004BB1A109032904D0BBF1020F12D1012988
:1088800001D15046984709F10109B9F1040FC4D14B
:10889000D8F820350193C8F82035002BB9D103B0A2
:1088A000BDE8F08FBBF1030FEDD10229E8E700BF6F
:1088B000006000407C610040902C0020E02C0020F3
:1088C000014B1B68184700BFEC2C002072DF70477B
:1088D00073DF704776DF70477ADF70477CDF704761
:1088E0007FDF70478FDF7047B1DF7047FEF766BBF1
:1088F00008B50B4B01211878FFF7EAFF08B1FEF726
:108900005DFB0020FFF794FC064B07480749C01A9F
:10891000C0080004BDE8084040F00300FEF748B876
:108920009C2500201CA4020044A402009EAB02006F
:108930000388212B13B5044654D007D8112B30D00F
:10894000132B47D0102B0CD002B010BD522B51D09E
:10895000562B01D03B2BF7D1A0881321FFF7BAFF8C
:108960001AE0284B28482949C01AC008000440F0E2
:108970000300FEF71DF80120FFF75AFC0020FFF767
:1089800063FC234BA1882348198001F015F908B135
:10899000FEF714FBFEF7D0FA0028D5D0FEF70EFB49
:1089A000D2E7184B18481C49C01AC008000440F010
:1089B0000300FDF7FDFF0120FFF746FC144B4FF6C7
:1089C000FF721A80FEF7CEFA08B1FEF7F7FAFFF74A
:1089D0008FFFB9E70E4800231A4685210088FFF76C
:1089E0007FFFD9E7002301A98088ADF80430FFF7A5
:1089F00079FFD1E7064800231A4619460088FFF799
:108A000073FFC9E71CA4020044A40200B0AB02003B
:108A10009E250020602D0020BAAB020008B5037827
:108A20004BB9054B3B211888FFF754FF18B1BDE83F
:108A30000840FEF7C3BA08BD9E2500200D2807B5E3
:108A40001BD1124B12480191C01AC00800041149F1
:108A500040F00300FDF7ACFF0F4B019A0F49188857
:108A600001F08EF930F008020CD043F2020290427D
:108A700008D043F20142904204D003B05DF804EB09
:108A8000FEF79CBA03B05DF804FB00BF1CA4020013
:108A900044A40200C7AB02009E250020482D002000
:108AA00010B50A4B0A4CE41AE408240444F0030409
:108AB00002203AB1FFF7BCFB06492046BDE8104052
:108AC000FDF776BFFFF7C0FB0349F6E71CA40200E1
:108AD00044A40200E1AB0200F2AB0200FEF76EBA62
:108AE00000B54FF48041A7B00020FDF7CDFD08B1DF
:108AF000FEF764FAFDF708FD0120FFF7C0FBA04870
:108B000040F233320121FEF7C1F908B1FEF756FAFF
:108B1000FEF716FB08B1FEF751FA9A4C9A4B9B49A7
:108B2000E41AE408240444F003042046FDF740FF5F
:108B3000FDF7FAFD0028FBD1FFF772F908B1FEF747
:108B40003DFA93492046FDF733FFFDF7EDFD002880
:108B5000FBD101F07FF908B1FEF730FA002317A925
:108B60000120179301F0FEF908B1FEF727FA17A8C4
:108B700001F0AAFA08B1FEF721FA86492046FDF76E
:108B800017FFFDF7D1FD0028FBD1112382488DF896
:108B9000203001F0E0FB804982B208A8FFF79EFE7A
:108BA00008B1FEF70BFA0021082217A801F07EFB9E
:108BB0007A494FF0C87317A8CDE91713FFF78CFE59
:108BC00008B1FEF7FBF976492046FDF7F1FEFDF707
:108BD000ABFD01460028FAD1724800F0E5FE08B16D
:108BE000FEF7ECF970492046FDF7E2FEFDF79CFD2B
:108BF00005460028FAD16D4B6D499B7C8DF80630F7
:108C000041F223522046ADF80420FDF7DEFE29464E
:108C10003C2208A801F04AFB664E022329468DF843
:108C200020303C2240F2016317A8ADF8223001F059
:108C30003DFB3246012352F8041BADF86C3008A806
:108C400001AB1C9300F004FA5B490546024620463E
:108C5000FDF7B2FEFDF768FD0028FBD115B12846EF
:108C6000FEF7ACF9554AB16817A800F0F1F952497E
:108C7000054602462046FDF79FFEFDF755FD0028FC
:108C8000FBD115B12846FEF799F91822002102A858
:108C900001F00CFB0023ADF81430012203934FF4D4
:108CA000807344498DF80820ADF81C3002AA402397
:108CB00043480493FFF70AFE3F4905460246204613
:108CC000FDF77AFEFDF730FD0028FBD115B12846EF
:108CD000FEF774F93B492046FDF76AFEFDF724FDD7
:108CE0000028FBD1384B089017A93848179300F09B
:108CF00051FF08B1FEF762F9354B2C48089308A9DB
:108D000000F0D0FF08B1FEF759F932492046FDF7CF
:108D10004FFEFDF709FD05460028FAD11C22014649
:108D200017A801F0C3FA4FF4A0334FF4A022CDE905
:108D3000182303238DF86830274B1C9317A8274B63
:108D40001795ADF86A508DF86C501D9300F048FCF3
:108D500008B1FEF733F922492046FDF729FEFDF759
:108D6000E3FC0028FBD11F492046FDF721FEFFF759
:108D7000BFFDFDF7D9FC0028FBD1FFF767F8F8E746
:108D80008425002044A402001CA4020004AC0200BC
:108D900006AC020008AC02000AAC02005000A000C1
:108DA00018AC0200342D00201AAC0200482D00201F
:108DB0001CAC02008C2500204DAC02009825002040
:108DC0009C2500205BAC0200ED880200602D002095
:108DD000A18A02005DAC02001D8A0200DD8A020049
:108DE0005FAC020061AC02000369C1688B429DBFA9
:108DF0008268D21802F1FF3203F1FF3394BF501A98
:108E0000581A70472DE9F843D0E902940546A9EBBA
:108E100004084068904520440F46144404D901F0EA
:108E20001CFAEC60BDE8F8834246A4EB090401F0AB
:108E300014FA6868224607EB0801F0E72DE9F843C9
:108E4000C5680646894617464FF000083469B3687E
:108E50007068A54228BFE418013C621B5C1BBC4241
:108E600028BF3C46944228BF14464946284422461F
:108E700001F0F3F9B3682544AB4208BF00253F1B5E
:108E8000A044A144F560E1D14046BDE8F88300006C
:108E900010B5114C114AA2610223C4E90433104BEE
:108EA000E361A2644FF400730E4A0F492362E26447
:108EB00000231022E01DA3626362E362A365636581
:108EC000E365226501F025FA0849204601F021FA00
:108ED0002023A37110BD00BF6C2D002079AC0200CF
:108EE000F42D0020E42D002082AC020086AC0200AC
:108EF000F8B5184C182300FB033503FB004025444C
:108F0000C46A012C0F4616460FD0022C1AD0F4B9B1
:108F10002846FFF769FF864205D83246394628467B
:108F2000FFF770FF34462046F8BD2846FFF75CFF88
:108F30008642344628BF0446224639462846FFF773
:108F400061FFF0E72846BDE8F840FFF777BF00244F
:108F5000E9E700BF6C2D0020FFF79ABF6DDF704777
:108F600079DF70477DDF704764DF70472DE9F04F90
:108F700085B000250E9CBDF83CB0B4F800A001916E
:108F8000074690461E46A9463A884A450DDC45B13B
:108F90002388013BA3EB0A039BB2FF2B3AD806F8C8
:108FA0000A30002005B0BDE8F08F7A6852F8290039
:108FB000039000220DF10B0103A8FFF7D5FF002855
:108FC000F0D19DF80B20424521D12288002D14BFFD
:108FD0000020022002EB0801014459451ADC3DB98A
:108FE000013292B2019B2280B35422880132228046
:108FF00022880DF10B01324403A8FFF7B5FF0028CA
:10900000D0D121889DF80B200A442280012509F146
:109010000109B9E70C20C5E72DE9F341089FBDF828
:1090200024801546CDE90078022204461E46FFF74B
:109030009DFF50B93346102229462046CDE90878D5
:1090400002B0BDE8F041FFF791BF02B0BDE8F0818A
:109050002DE9F04F00231788138090F82D3085B04C
:1090600006460D46144653B3082F01D80C2027E1BD
:1090700002A8FFF773FF002840F02281238808220E
:10908000EA54238801339BB21B222380EA542088B0
:10909000013080B2208006220DF10901284401F040
:1090A000DCF823889DF8082006339BB212F0FE02FC
:1090B00018BF01222380EA54238801332380B37828
:1090C000FBB123880433BB42D0D802A8FFF748FF86
:1090D000002840F0F58023880322EA5423880133D6
:1090E0009BB219222380EA542388BDF8082001335B
:1090F0009BB2E9182380EA54120A4A70238802338B
:109100002380F2789AB12388D91CB942AED80221C3
:10911000E954238801339BB201212380E954238839
:109120000B449BB22380EA5423880B44238072684B
:10913000AAB12388D91CB94298D8022192F90020FB
:10914000E954238801339BB20A212380E954238800
:1091500001339BB22380EA5423880133238033896F
:10916000002B40F0A180338A5BB1CDE900472B464C
:109170000722032106F11000FFF74EFF002840F000
:109180009F80338B5BB1CDE900472B46152214211C
:1091900006F11800FFF740FF002840F09180326A86
:1091A000002A40F09080D6F82480B8F1000F30D02B
:1091B000B8F804302188981C8A1C0244BA423FF651
:1091C00055AFFE283FF652AF03336B54238801336B
:1091D0009BB2FF222380EA54238801339BB2238071
:1091E000B8F80020EA54E918120A4A7020880230C0
:1091F00080B22080B8F804205AB1D8F808100029AD
:109200006BD0284401F029F82388B8F804201344CF
:10921000238096F82C30002B40F09A80307800287C
:109220004ED03388012B58D0228802F1020CBC4565
:109230003FF61CAF012805D17378023313449F42D7
:10924000FFF414AF023FBF1ABFB202A905EB0C0036
:10925000ADF80870FFF786FE90BB3178BDF8083096
:10926000022900F0BA8072789A4202D3BB4240F2DF
:10927000B280012940F0B380974293B2C0F0AF8032
:10928000ADF808300821BDF80830FE2B3FF6EEAEF1
:1092900022880133AB542288013292B22280A95431
:1092A0002288134423800BE0CDE900472B46062299
:1092B000022106F10800FFF7AFFE00283FF453AF8C
:1092C00005B0BDE8F08FB4F800C00CF10603BB4256
:1092D0003FF6CCAE1188052901D80720F0E76FF4DE
:1092E000486E01EB0E039BB24FF27D3E7345F4D9FD
:1092F0005388052BF1D96FF44860181880B2704577
:10930000EBD94FF6FF70814203D0834201D09942DE
:10931000E3D8052305F80C30238801339BB21221D2
:109320002380E954238801339BB223801188E954B8
:10933000E818090A4170238802339BB223805288BF
:10934000EA54E918120A4A702388023323802AE774
:10935000B36A002BC1D04FF000094FF00C0A4FF058
:10936000160B96F82C305FFA89F293427FF656AFCF
:10937000B16A0AFB02F201EB0208B8F80430981C4B
:10938000FE283FF673AE208803332B542388013325
:109390009BB2238005F803B0238801339BB223805E
:1093A0008A5AEA54E918120A4A702088023080B2B8
:1093B0002080B8F804205AB1D8F8081000298CD0C1
:1093C000284400F04AFF2388B8F80420134423807F
:1093D00009F10109C5E7092155E7BB42FBD9ADF801
:1093E00008704FE775DF704776DF70477ADF7047A8
:1093F0007BDF7047034B1A8882420CBF184600205F
:10940000704700BF10300020024B9B6903B1184722
:10941000704700BFF42F002073B585B22846FFF7D0
:10942000E9FF044670B1164E027A337B9A420BD2A2
:1094300000F10A012846FFF7D5FFE8B1112801D055
:10944000FFF7E2FF02B070BD00230372337C43B12B
:109450003B212846FFF7C8FF30F0080301D0FFF793
:10946000D3FF7369002BEDD000228DF80420ADF8F6
:10947000065001A89847E5E7237A01332372E1E714
:10948000F42F002037B50B46497A0F4A71B9D2E95B
:1094900001141D7A0246002D18BF21465868FDF7B9
:1094A0008CFE08B1FFF7B0FF03B030BD0021197288
:1094B0005369002BF8D00122ADF806008DF8042086
:1094C00001A89847F0E700BFF42F00204B880288DE
:1094D0009A4213D842889A4210D380888A8840F2F0
:1094E000F313984294BF031AC31A934206D800F2AA
:1094F000F310904234BF00200120704700207047D5
:109500000388122B70B5014659D004D8102B1ED0F9
:10951000112B44D070BD502BFCD12F4BC288DB895E
:109520009A42F7D1038A022BF4D186883046FFF79E
:1095300061FF05460028EDD001F1120000F03FF96F
:1095400038BB6868FDF751FE0028E3D009E0C37B13
:10955000012BDFD14FF6FF70FFF74CFF054620B916
:109560000420BDE87040FFF74FBF1C4A8E8806807C
:10957000002303721368C0F80A305368C0F80E3035
:1095800010310A30FFF7A2FF134B6872DB89002B02
:10959000C0D129463046BDE87040FFF773BF8088D0
:1095A000FFF728FF04460028B4D04068FDF71DFEF1
:1095B00008B1FFF729FF4FF6FF732380AAE78688DB
:1095C0003046FFF717FF05460028A3D008310A30C0
:1095D000FFF77CFF6872DCE7F42F002024300020C6
:1095E000F8B5064648B305460FCD154F3C460FC4A7
:1095F00095E8070084E807003068124C3C60B0B181
:10960000FFF7F4FEC0B932681368236053686360E3
:109610000D480E4A4FF6FF7303800D4B40F8043F90
:109620000021FDF7BFFD002818BF032004E02046FD
:10963000FFF7DEFE0028EBD0F8BD0E20FCE700BFF0
:10964000F42F002024300020103000201994020054
:10965000303000200AB1FEF7A1B8FEF7A8B873B504
:109660000191019C06466CB100252C46294601A8B3
:10967000FEF7A7F818B106EB440301349D800135CD
:10968000142DF3D13046346002B070BD2DE9F0479F
:1096900003888488103B8CB005460A2B1FD8DFE86E
:1096A00003F0063F1E1E1E1E1E1E1E604400314E8D
:1096B000B368DB43009371686846FEF7AEF8009923
:1096C00001A8FFF7CCFF0DF108094FF00008019B3E
:1096D000984507D3132C13D90420FDF76FFC0CB069
:1096E000BDE8F08739F802AB00270137514606EB99
:1096F0008700FEF75CF81E2FF7D108F10108E6E7B6
:109700001D482146FEF74AF81C482146FEF746F858
:10971000EB7B022BE3D11A482146FEF73FF8DEE748
:1097200015482146FEF743F8D9E7027A15483F2A43
:109730004FEA1215214694BF00220122FFF78AFF4B
:10974000022D94BF002201220F482146FFF782FF1D
:10975000012D0E4894BF002201222146FFF77AFF17
:10976000BDE7037A002BBAD1427A0648C2F3C002A1
:109770002146F3E7503000205830002054300020BC
:109780005C30002068300020643000206030002011
:10979000AADF7047002301380B70042806D8DFE8E1
:1097A00000F00306080A0C0011230B7070472123F8
:1097B000FBE73123F9E71223F7E72223F5E70078E7
:1097C00000F001007047F0B58B7891B0012B0C468A
:1097D00038BF01238DF80E3005460B88ADF80C30EC
:1097E000002116466846032200F060FD607C694651
:1097F000FFF7D0FFA07C0DF10101FFF7CBFFE27B6B
:10980000237B217D43EAC203227C43EA02139DF8B5
:109810000220002922F0190203F0190314BF0221CB
:109820000121134361F342031C22002109A88DF892
:10983000023000F03BFD637B13F0300F15D002AF18
:1098400003220021384600F031FDE07C0DF10901D2
:10985000FFF7A0FF11238DF808309DF80A300E970E
:10986000012262F342038DF80A30637B8DF82430C5
:109870001422A37B8DF82530002104A800F016FDEA
:1098800003AB0493A388ADF81C30A368CDF814D0C3
:109890001BB1E288ADF818200893A369002B31D0E2
:1098A00001AF03220021384600F000FDA3691A88A9
:1098B000ADF82C205A88ADF82E205A680D97187BE9
:1098C0000A923946FFF766FFA3690DF10501587B3F
:1098D000FFF760FFA269917A137A43EAC103D17A54
:1098E000927B43EA01139DF80610002A03F0190346
:1098F00021F0190114BF022201220B4362F342033B
:109900008DF80630E36903B10C93334604AA09A924
:109910002846FFF73DFF11B0F0BD90DF7047A5DF8F
:109920007047B5DF704700007FB50023ADF8081021
:10993000ADF80A106A4602A9064603930093ADF8F3
:109940000430FFF7EAFF054600B3124B124CE41A4D
:10995000E408FEF705FB240444F0010403460F4924
:1099600032462046FDF731F8BDF80020BDF8023040
:1099700052EA030103D00A492046FDF726F8BDF854
:1099800004201AB107492046FDF716F8284604B00E
:1099900070BD00BF1CA4020064A402008DAC0200D4
:1099A000D7AC020016AD020078B14FF01713036078
:1099B0001B2303711723C380038141F61B3200234D
:1099C000016143818281184670470E207047000074
:1099D00013B5034680880C46B8B91A88242A00F0CB
:1099E000958014D8112A71D0232A00F09D80102A66
:1099F0003BD0A37A4BB1E1880020FFF790FF00280D
:109A000040F098804FF48073638102B010BD3A2A11
:109A100064D0552AEDD1DB88C988A072172B38BFD6
:109A200017238B4228BF0B462381FFF77AFF60B1D3
:109A3000FEF796FA484B4949024649481B1ADB088B
:109A40001B0443F00100FCF7B7FFE37A002BD0D1F1
:109A50002369002BCDD040F6772200922289ADF801
:109A60000420694620469847C3E7DB7B0A790A73DE
:109A7000012B13D0022B14D0E18823898B4205D20D
:109A80000020FFF74CFF70B90123E372217B637B59
:109A90008B42AED20020FFF747FFAAE70B88E38096
:109AA000EAE74B88FBE7112802D10123A372EDE717
:109AB000FEF756FA284B2B49024629481B1ADB08A9
:109AC0001B0443F00100FCF777FFDFE71723CB808F
:109AD0000B8141F61B3348818B818AE75B89CA88F9
:109AE000934228BF1346172B0A6938BF17230B81EF
:109AF0004AB1C97A39B140F677210091ADF8043006
:109B00006946204690470023638172E71A7A0B6901
:109B10004A73002B3FF46DAF4DF67A218DF80500A6
:109B200000918DF804209CE7197A237B994228BF85
:109B30001946B0E711283FF468AFFEF711FA064B5B
:109B40000849024606481B1ADB081B0443F00100C3
:109B5000FCF732FF59E700BF64A402009DAD02008C
:109B60001CA402006CAD0200B0DF704766DF7047D6
:109B700010B5002104464088FFF7F8FF034608B9F6
:109B8000237210BD112801D10123F9E76368BDE8F4
:109B90001040184760B159B10378DE2B0AD00B682A
:109BA0004360DE2303704FF6FF734380002070474D
:109BB0000E2070470820704728B10378DE2B04D1AF
:109BC0004180002070470E20704708207047F0B594
:109BD000054685B00C46F1B1E8B10B78DE2B1AD101
:109BE00082884B889A4204D10B7A13B10846FFF75A
:109BF000BFFF2B88112B32D0512B0ED0012B0AD155
:109C00002B7A012B07D1A9886288914203D1237254
:109C10002046FFF7ADFF05B0F0BDAE886388B342C4
:109C2000F9D1AF79022FF6D1AD7B2B1F022BF2D8E1
:109C300000211022684600F039FB052D14BF4FF4B7
:109C4000C0730023694630468DF80070ADF80430CB
:109C5000FFF78AFF0028DED063689847DBE7638858
:109C6000AA889A4204BF4FF6FF736380D3E7A8DF48
:109C70007047AEDF704762DF70470288502A10B429
:109C80000DD1C4884A88944209D1028A012A06D19A
:109C90004B6923B1827C5DF8044B808818475DF8DE
:109CA000044B7047F0B50B6843618FB0334B02AA89
:109CB000044603F11007164618685968154603C58F
:109CC0000833BB422A46F7D104F112013046FFF7B0
:109CD000D2FF00284FD1A37C8DF80630224641F2F6
:109CE000235301A90120ADF80430FFF7C0FF00287D
:109CF00041D10146202206A800F0D8FA41F22453AF
:109D0000ADF81830A37C8DF81A309DF82530224626
:109D100023F0120301254FF0011643F0120332F82D
:109D20000A0B079606A98DF825308DF829508DF875
:109D30002B50FFF748FDF0B90146202206A800F09D
:109D4000B5FA41F22553ADF81830A37C8DF81A30DE
:109D50009DF825300796224623F00A0343F00A03B4
:109D600032F8020B8DF8253006A98DF829508DF8B0
:109D70002A50FFF728FD0FB0F0BD00BFD9AD02009B
:109D800070B588B00D468DF80720102204460126D4
:109D90000DEB02000021ADF80E6000F087FA6B8930
:109DA000ADF810300DF10703079304A90DF10E0370
:109DB00020468DF812600693FFF75BFF08B070BD78
:109DC00010DF704713B5044609496846FEF76DF881
:109DD000019808B902B010BDD0E900212046904793
:109DE00018B16846FEF76BF8F2E71120F2E700BF02
:109DF000F8AD020013B5044607496846FEF755F86A
:109E0000019B0BB902B010BD2046D3E90021904759
:109E10006846FEF754F8F3E710AE02000B4991F8DC
:109E200016335A09EC231341DB0706D5084B9A6811
:109E30003AB94FF480030B60704742F20200FDF71D
:109E4000BDB81A6842F480021A60704700E100E071
:109E50004C2C0020F7B5194F3C7864BB184E0125F7
:109E600020463570FFF7AEFF112821D02046FFF7BE
:109E7000C1FF144B8DF80340186801900DF10300E9
:109E8000FDF78CFA104901A8FFF79AFF0446B0FAD3
:109E900080F0400938709DF80300FDF7A3FA3CB943
:109EA0000A4B34701C70FFF7B9FF2846FFF7A2FF7A
:109EB000204603B0F0BD0824FAE700BFCD300020F3
:109EC000CC300020F1AD0200D96F0200CE3000206E
:109ED000014B1878704700BFCD30002007B5084906
:109EE0006846FDF7E2FF019B13B903B05DF804FB80
:109EF000D3E9002090476846FDF7E1FFF3E700BF94
:109F000004AE0200FFF7EABF60DF704769DF704709
:109F100061DF704730B5114B1B7891B0E3B1104D44
:109F200034240DF1020103A8ADF80240FFF7F0FF61
:109F300070B9294601A8FDF7B8FF029B002BF0D0AD
:109F400003A8D3E90021904701A8FDF7B8FFF4E783
:109F5000052801D0FDF732F811B030BDCF30002018
:109F600054B0020030B5054685B00C46002900F01B
:109F700099804D4B0B600C22002101A800F096F94E
:109F800001238DF8063022688DF80450062301A9BC
:109F90002020ADF80830FFF7B9FF60B1FDF7E0FF12
:109FA000424B4349024643481B1ADB081B0443F05B
:109FB0000100FCF701FD0C22002101A800F076F958
:109FC00001238DF805302268002301A94020ADF857
:109FD0000630FFF79BFF60B1FDF7C2FF334B3649F8
:109FE000024634481B1ADB081B0443F00100FCF74F
:109FF000E3FC0C22002101A800F058F90A23226892
:10A000008DF8043001A90120FFF780FF60B1FDF752
:10A01000A7FF264B2949024626481B1ADB081B04CA
:10A0200043F00100FCF7C8FC0C22002101A800F05D
:10A030003DF94FF400632268019301A9A120FFF7C5
:10A0400065FF60B1FDF78CFF184B1D4902461948AA
:10A050001B1ADB081B0443F00100FCF7ADFC0C22CB
:10A06000002101A800F022F99DF8043022686FF366
:10A07000000301A9A0208DF80430FFF747FF034635
:10A0800068B1FDF76DFF094B0E49024609481B1ADE
:10A09000DB081B0443F00100FCF78EFC002318468C
:10A0A00005B030BD0E23FAE77025002074A402002D
:10A0B0001CAE02001CA4020062AE0200AEAE0200A2
:10A0C000FAAE02004BAF020073B505460668FFF713
:10A0D0001BFF2B68B34204461DD91A481A4B1B4973
:10A0E0001B1ADB081B0443F002000190FCF760FC24
:10A0F0002B68174901983246FCF767FC4FF08053F4
:10A100002A68D3F80C31134901989B0203F10053DC
:10A110009A1AFCF751FC2CB90F4B01221A702046F9
:10A1200002B070BD2046FDF71BFF074B0B490246EE
:10A1300004481B1ADB081B0443F00100FCF73CFC3D
:10A14000EDE700BF1CA4020074A402009EAF020051
:10A15000CDAF0200FEAF0200CF30002028B00200D9
:10A160004BDF70471FB50D4C01A8FFF7F9FF70B921
:10A17000214602A8FDF799FE039B002BF4D001981D
:10A18000D3E90021904702A8FDF799FEF4E70528DE
:10A1900001D0FCF713FF04B010BD00BF6CB002008B
:10A1A0007F2805D8034B185C034B5B5C1840704755
:10A1B0000020704784B0020004B10200A0F16103E6
:10A1C000192B98BF20387047A0F14103192B98BF75
:10A1D000203070477F2805D8034B185C034B5B5C2D
:10A1E000184070470020704784B0020004B102009C
:10A1F000A0F16103192B98BF20387047A0F14103EB
:10A20000192B98BF203070477F299ABF0170012019
:10A210006FF02E0070475AB10A787F2A0AD800B131
:10A220000260002119605960501A18BF0120704760
:10A23000002070476FF02E007047000008B5034BF8
:10A240005B689B681B68984708BD00BFA02500207D
:10A2500008B50921FFF7F2FF08BD844640EA010373
:10A2600013F0030F18D18446202A0BD32DE9F007F1
:10A27000B1E8F807A0E8F807A2F12002202AF7D2F7
:10A28000BDE8F007042A07D351F8043B40F8043B2B
:10A29000A2F10402042AF7D2002A05D011F8013BEA
:10A2A00000F8013B013AF9D1604670478446002A24
:10A2B0002DD010F0030F04D000F8011B013A26D076
:10A2C000F7E7C9B241EA012141EA0141202A12D34C
:10A2D000A2F120022DE9F0030B460C460D460E4676
:10A2E0000F4688468946A0E8FA03203AFBD2BDE82B
:10A2F000F00320320BD0042A05D340F8041B043AA3
:10A3000005D0042AF9D200F8011B013AFBD16046BE
:10A310007047024610F0030F16D111F0030F13D14E
:10A320002DE9F0004FF001374FF0803351F8044B26
:10A33000A4EB070525EA04051D4002D142F8044BB1
:10A34000F4E7A1F10401F0BC11F8013B02F8013B74
:10A35000002BF9D1704700F1010110F0030F11D06B
:10A3600010F8012B002A23D010F0030F0AD010F8A8
:10A37000012B002A1CD010F0030F03D010F8012B82
:10A38000002A15D02DE970004FF001324FF08033D4
:10A3900050F8044BA4EB020525EA04051D4000D14A
:10A3A000F6E7A0F1040070BC10F8012B002AFBD1E5
:06A3B000A0EB0100704764
:08A3B800FD820200000000001C
:10A3C0008D96020000000000D1990200342D00207B
:10A3D0000195020000000000CF9B0200602D0020CC
:10A3E0007B9C0200482D0020318902000000000003
:08A3F000998302000000000047
:10A3F800159F02000000000065A102000000000097
:10A40800F8250020C0260020C826002000260020AD
:04A418001800000028
:10A41C0082AB02000000000088AB020000000000CC
:10A42C008FAB02000000000093AB020000000000A4
:10A43C0098AB020000000000E5A40200000003033A
:10A44C00BCA5020000000000E5A502000000000011
:10A45C007CAB020000000000CCAD02000000030346
:10A46C00E9AD02000000030345B002000000030345
:10A47C0060B002000000030356A6020000000000BA
:08A48C006CA6020000000000B4
:10A49400B8A4020000000000C4A40200702500203B
:10A4A4000000000000000000000000000338FDD898
:10A4B40070470000D563020041640200D1630200CA
:10A4C4007274745F6C6F675F6261636B656E640066
:10A4D4004261636B656E647320666C757368656452
:10A4E4000061707000000000E82A00207F00000076
:10A4F400682B00201B5B306D002573001B5B313B18
:10A5040033316D0025734C6F67732064726F707004
:10A514006564202825642925730D0A003C25733EB3
:10A524002025733A20002025303278002020200096
:10A534007C002563001B5B313B33306D001B5B31BA
:10A544003B33326D001B5B313B33336D001B5B319E
:10A554003B33346D001B5B313B33356D001B5B318A
:10A564003B33366D001B5B313B33376D00776172D3
:10A574006E696E6700696E666F0064656275670078
:10A58400F8A4020039A5020000A5020041A50200BA
:10A5940049A5020051A5020059A5020061A50200C7
:10A5A40069A5020000000000D2A5020071A5020006
:10A5B40079A502007EA502006170705F62757474F3
:10A5C4006F6E0000882B0020466174616C206572F8
:10A5D400726F720053797374656D2072657365745C
:10A5E400006170705F74696D65720000010006009F
:10A5F40000000000C42B0020497002005254432084
:10A60400696E7374616E636520616C7265616479EF
:10A6140020696E697469616C697A65642E005254AC
:10A62400433A20696E697469616C697A65642E00C5
:10A634000000000000000000000000000338FDD806
:10A644007047303132333435363738394142434438
:10A6540045467077725F6D676D740000C0A3020099
:10A66400C0A3020004000000736F72746C697374F9
:10A67400004E52465F53554343455353004E524692
:10A684005F4552524F525F5356435F48414E444CCC
:10A6940045525F4D495353494E47004E52465F451C
:10A6A40052524F525F534F46544445564943455FB7
:10A6B4004E4F545F454E41424C4544004E52465F16
:10A6C4004552524F525F494E5445524E414C004EF2
:10A6D40052465F4552524F525F4E4F5F4D454D00BB
:10A6E4004E52465F4552524F525F4E4F545F464F53
:10A6F400554E44004E52465F4552524F525F4E4FA4
:10A70400545F535550504F52544544004E52465F87
:10A714004552524F525F494E56414C49445F504155
:10A7240052414D004E52465F4552524F525F494E80
:10A7340056414C49445F5354415445004E52465F80
:10A744004552524F525F494E56414C49445F4C4525
:10A754004E475448004E52465F4552524F525F494D
:10A764004E56414C49445F464C414753004E524675
:10A774005F4552524F525F494E56414C49445F44E3
:10A78400415441004E52465F4552524F525F44413C
:10A7940054415F53495A45004E52465F4552524F09
:10A7A400525F54494D454F5554004E52465F4552F1
:10A7B400524F525F4E554C4C004E52465F455252DA
:10A7C4004F525F464F5242494444454E004E524612
:10A7D4005F4552524F525F494E56414C49445F4186
:10A7E400444452004E52465F4552524F525F4255C6
:10A7F4005359004E52465F4552524F525F434F4E9B
:10A804004E5F434F554E54004E52465F4552524F91
:10A81400525F5245534F5552434553004E52465F83
:10A824004552524F525F4D4F44554C455F4E4F5425
:10A834005F494E495449414C495A4544004E524699
:10A844005F4552524F525F4D555445585F494E49EA
:10A85400545F4641494C4544004E52465F4552526E
:10A864004F525F4D555445585F4C4F434B5F4641E3
:10A87400494C4544004E52465F4552524F525F4D3B
:10A88400555445585F554E4C4F434B5F4641494CD8
:10A894004544004E52465F4552524F525F4D555407
:10A8A40045585F434F4E445F494E49545F464149C2
:10A8B4004C4544004E52465F4552524F525F4D4FF5
:10A8C40044554C455F414C52454144595F494E49BA
:10A8D4005449414C495A4544004E52465F455252F0
:10A8E4004F525F53544F524147455F46554C4C00BD
:10A8F4004E52465F4552524F525F4150495F4E4F50
:10A90400545F494D504C454D454E544544004E52BC
:10A91400465F4552524F525F464541545552455F3A
:10A924004E4F545F454E41424C4544004E52465FA3
:10A934004552524F525F494F5F50454E44494E472E
:10A94400004E52465F4552524F525F4452565F5436
:10A9540057495F4552525F4F56455252554E004E2D
:10A9640052465F4552524F525F4452565F545749C4
:10A974005F4552525F414E41434B004E52465F4544
:10A9840052524F525F4452565F5457495F45525298
:10A994005F444E41434B004E52465F4552524F5224
:10A9A4005F424C455F495053505F52585F504B547F
:10A9B4005F5452554E4341544544004E52465F4500
:10A9C40052524F525F424C455F495053505F434887
:10A9D400414E4E454C5F414C52454144595F4558A8
:10A9E40049535453004E52465F4552524F525F42B0
:10A9F4004C455F495053505F4C494E4B5F4449535B
:10AA0400434F4E4E4543544544004E52465F4552D3
:10AA1400524F525F424C455F495053505F50454539
:10AA2400525F52454A454354454400556E6B6E6F20
:10AA3400776E206572726F7220636F646500000028
:10AA44000000000075A602000100000081A60200BB
:10AA5400020000009FA6020003000000C0A602003E
:10AA640004000000D3A6020005000000E4A60200D2
:10AA740006000000F8A602000700000010A702006C
:10AA84000800000028A702000900000040A70200F7
:10AA94000A00000059A702000B00000071A7020081
:10AAA4000C00000088A702000D0000009CA7020013
:10AAB4000E000000AEA702000F000000BDA70200B8
:10AAC40010000000D1A7020011000000E8A7020056
:10AAD40012000000F7A70200130000000CA80200F7
:10AAE4008000000020A802008100000041A80200AC
:10AAF400820000005DA802008300000079A8020023
:10AB04008400000097A8020085000000B8A8020095
:10AB140086000000DDA8020090000000F4A80200F6
:10AB24009100000012A902009200000030A9020066
:10AB34000082000045A902000182000063A902000E
:10AB4400028200007FA90200008400009BA9020089
:10AB540001840000BFA9020002840000E9A90200E8
:10AB6400038400000EAA020000000101000000019D
:10AB74000100000011121314636C6F636B00434CEB
:10AB84004F434B004750494F5445005052530055D2
:10AB940041525400554152544500616476657274C3
:10ABA4006973696E6720737461727400436F6E6EAB
:10ABB400656374656400446973636F6E6E65637482
:10ABC40065640053656E6420627574746F6E2073DF
:10ABD40074617465206368616E67652E00526563F5
:10ABE4006569766564204C4544204F4E21005265CA
:10ABF400636569766564204C4544204F46462100D0
:10AC04003100320033004E6F726469635F426C69D5
:10AC14006E6B7900340035004C42535F55554944FE
:10AC24005F53455256494345203A203078257820D1
:10AC34002C206D5F6C62732E757569645F74797016
:10AC440065203A2030782578006572725F636F64FE
:10AC540065203A20256400360037003800426C69CC
:10AC64006E6B79206578616D706C652073746172A8
:10AC74007465642E005465726D696E616C00525483
:10AC840054005345474745520073645F626C655FE7
:10AC94006761705F646174615F6C656E6774685F3F
:10ACA40075706461746528292028726571756573EF
:10ACB4007429206F6E20636F6E6E656374696F6EA6
:10ACC40020307825782072657475726E656420254D
:10ACD400732E0054686520726571756573746564BC
:10ACE4002054582F5258207061636B6574206C6532
:10ACF4006E67746820697320746F6F206C6F6E6761
:10AD04002062792025752F2575206F63746574730F
:10AD14002E005468652072657175657374656420CE
:10AD2400636F6D62696E6174696F6E206F66205423
:10AD34005820616E64205258207061636B657420E2
:10AD44006C656E6774687320697320746F6F206C10
:10AD54006F6E67206279202575206D6963726F7349
:10AD640065636F6E64732E0073645F626C655F6706
:10AD7400617474635F65786368616E67655F6D7441
:10AD8400755F7265717565737428292072657475B1
:10AD9400726E65642025732E0073645F626C655F58
:10ADA40067617474735F65786368616E67655F6D0E
:10ADB40074755F7265706C79282920726574757278
:10ADC4006E65642025732E006E72665F626C655F2B
:10ADD400676174740023D1BCEA5F782315DEEF1237
:10ADE40012000000006E72665F7364680001000068
:10ADF40007000000F0A30200F0A302000800000016
:10AE0400F8A3020008A4020008000000F0A3020056
:10AE1400F8A302000800000073645F626C655F635E
:10AE240066675F73657428292072657475726E6530
:10AE340064202573207768656E20617474656D7075
:10AE440074696E6720746F2073657420424C455F8B
:10AE5400434F4E4E5F4346475F4741502E00736455
:10AE64005F626C655F6366675F736574282920722F
:10AE7400657475726E6564202573207768656E202D
:10AE8400617474656D7074696E6720746F20736586
:10AE94007420424C455F4741505F4346475F524FE1
:10AEA4004C455F434F554E542E0073645F626C658E
:10AEB4005F6366675F7365742829207265747572B1
:10AEC4006E6564202573207768656E2061747465EF
:10AED4006D7074696E6720746F2073657420424CC2
:10AEE400455F434F4D4D4F4E5F4346475F56535F5B
:10AEF400555549442E0073645F626C655F636667F1
:10AF04005F73657428292072657475726E65642098
:10AF14002573207768656E20617474656D7074693B
:10AF24006E6720746F2073657420424C455F4741FF
:10AF34005454535F4346475F415454525F54414213
:10AF44005F53495A452E0073645F626C655F6366A4
:10AF5400675F73657428292072657475726E656401
:10AF6400202573207768656E20617474656D707434
:10AF7400696E6720746F2073657420424C455F4787
:10AF8400415454535F4346475F53455256494345E2
:10AF94005F4348414E4745442E00496E73756666CB
:10AFA400696369656E742052414D20616C6C6F63F6
:10AFB4006174656420666F722074686520536F66DF
:10AFC400744465766963652E004368616E67652025
:10AFD4007468652052414D207374617274206C6FE3
:10AFE400636174696F6E2066726F6D2030782578A6
:10AFF40020746F20307825782E004D6178696D7546
:10B004006D2052414D2073697A6520666F7220610C
:10B0140070706C69636174696F6E20697320307835
:10B0240025782E0073645F626C655F656E61626C87
:10B034006528292072657475726E65642025732EE7
:10B04400006E72665F7364685F626C650000000086
:10B05400C0A30200F0A30200080000006E72665F45
:10B064007364685F736F6300B8A30200C0A3020037
:10B074000800000043000000504F534958000000EE
:10B084002020202020202020206828282828202054
:10B0940020202020202020202020202020202020AC
:10B0A4004810101010101010101010101010101064
:10B0B4008484848484848484848410101010101004
:10B0C400108181818181810101010101010101015D
:10B0D4000101010101010101010101101010101011
:10B0E400108282828282820202020202020202022E
:10B0F40002020202020202020202021010101020D6
:10B1040000070320041702010857104080000000C4
:10B1140078B002007CB1020090B2020053756E0058
:10B124004D6F6E0054756500576564005468750072
:10B134004672690053617400000000004A616E00A9
:10B14400466562004D617200417072004D61790084
:10B154004A756E004A756C0041756700536570004E
:10B164004F6374004E6F7600446563000000000076
:10B17400414D00504D000000B4B20200B0B20200D4
:10B18400B0B20200B0B20200B0B20200B0B202002B
:10B19400B0B20200B0B20200B0B20200B0B202001B
:10B1A400FFFFFFFFFFFFFFFFFFFFFFFFFFFF0000A9
:10B1B400F0B1020020B102002CB2020040B1020042
:10B1C40074B10200D4B1020084B20200E0B1020002
:10B1D400256D2F25642F2579000000002561202589
:10B1E40062202565202554202559000053756E647E
:10B1F4006179004D6F6E64617900547565736461A3
:10B2040079005765646E657364617900546875727A
:10B21400736461790046726964617900536174757D
:10B2240072646179000000004A616E756172790090
:10B234004665627275617279004D6172636800419E
:10B244007072696C004D6179004A756E65004A75CB
:10B254006C79004175677573740053657074656D1E
:10B26400626572004F63746F626572004E6F76653B
:10B274006D62657200446563656D6265720000000D
:10B2840025483A254D3A255300000000A1A10200AB
:10B29400BDA10200C9A10200D5A10200F1A10200D2
:10B2A400FDA1020009A2020017A202000000000092
:02B2B4002E006A
:10B2B80000000000FF000000001001401100040021
:10B2C8000090D0030D0003003D8A0200F42C0020FA
:10B2D8001F000000132D00201F000000FF00FFFFCB
:10B2E80014B1020014B1020014B1020014B102003A
:04B2F80014B102008B
:040000032000637501
:00000001FF
