:020000022000DC
:1060000000000120756302005D6302005F6302000F
:106010006163020063630200656302000000000028
:1060200000000000000000000000000067630200A4
:1060300069630200000000006B6302006D630200F0
:10604000E99202006F630200F59602006F6302009E
:106050006F6302006F630200A59502006F63020088
:106060006F6302006F6302006F6302006F630200E0
:106070006F6302006F6302006F6302006F630200D0
:106080006F630200397602006F6302006F630200E3
:106090006F6302006F63020011D702006F6302009A
:1060A0006F6302006F6302006F6302006F630200A0
:1060B0006F6302006F630200000000000000000038
:1060C0006F6302006F6302006F6302006F63020080
:1060D0006F6302006F6302006F6302000000000044
:1060E00000000000000000000000000000000000B0
:1060F00000000000000000000000000000000000A0
:10610000000000000000000000000000000000008F
:10611000000000000000000000000000000000007F
:10612000000000000000000000000000000000006F
:10613000000000000000000000000000000000005F
:10614000000000000000000000000000000000004F
:10615000000000000000000000000000000000003F
:10616000000000000000000000000000000000002F
:10617000000000000000000000000000000000001F
:10618000000000000000000000000000000000000F
:1061900000000000000000000000000000000000FF
:1061A00000000000000000000000000000000000EF
:1061B00000000000000000000000000000000000DF
:1061C00000000000000000000000000000000000CF
:1061D00000000000000000000000000000000000BF
:1061E00000000000000000000000000000000000AF
:1061F000000000000000000000000000000000009F
:10620000354936480A1A02D0072291438D4634494F
:1062100034480A1A06D00722914381F309880222E2
:1062200082F3148830483149314A00F044F831484B
:106230003149324A00F03FF831483249324A00F0E1
:106240003AF832483249334A00F035F83248334997
:10625000334A00F030F833483349344A00F02BF821
:1062600033483449344A00F026F83448344900228F
:1062700000F02CF833483449002200F027F8334866
:106280003349091A082902DB002202604160314AC1
:1062900090471F481F49884205D00268043003B464
:1062A000904703BCF7E700208646EC46002000211B
:1062B000294A9047FEE7884207D0521A05D0037852
:1062C00001300B700131013AF9D17047884202D098
:1062D00002700130FAE770470000012000E0002062
:1062E0000000012000000120F0FA020084220020BA
:1062F000DC220020D0630200D063020028DC020010
:10630000F0FA02008422002084220020A0DD020096
:10631000A0DD0200A0DD0200A0DD0200A0DD020081
:10632000A0DD0200A0DD0200A0DD0200EEFA020006
:1063300048FB0200DC220020DC220020DC220020BE
:10634000783400207834002078340020783400201D
:10635000785400209D630200FD990200FEE7FEE7ED
:10636000FEE7FEE7FEE7FEE7FEE7FEE7FEE7FEE705
:1063700000F002B8FFF7FCBF0F484FF00701884359
:1063800085460E4880470E48016841F4700101605F
:10639000BFF34F8FBFF36F8FFFF732BF09480A4932
:1063A0000A4A884207D0521A05D0037801300B7090
:1063B0000131013AF9D1704700000120C18E02007D
:1063C00088ED00E08CDD0200702200208422002095
:1063D0007047000007B5044B0093044A402300F0C7
:1063E00032F803B05DF804FBF1630200DD22002007
:1063F0002DE9F84388461446B2B10F4B0F4E0325E2
:10640000002743F00109224608EB0701002003F0B2
:106410006BFC0744241A48B933782BB14FF47A4007
:10642000C847013D02D13570BDE8F88301233370C0
:10643000002CE8D1F8E700BFA0DD0200DC2200203C
:10644000704703F085BCF0B595B01D46164608466A
:106450000C4602F03DFC1A9B0D93CDE90865002522
:106460002B46082205A920460A958DF82C500C953C
:1064700002F04BFC079B0293069B03939DF814309C
:106480008DF8115003F00302012A1DD1BDF814202C
:10649000059DC3F3C203C2F383168DF81030B2001A
:1064A00008230EA9204602F030FCC5F3952508AB61
:1064B0000093324602AB0EA9284600F033FB20467B
:1064C00002F00AFC15B0F0BD022AF8D1BDF8165052
:1064D000C3F3C203C5F389158DF810300827082DC2
:1064E0002E4628BF08263B4632460EA9204602F01B
:1064F0000CFCAD1B08AB02AA31460EA8374400F0D5
:1065000075FB002DEBD1DAE708B5FFF79AFF0448D9
:10651000042100F071FA034B01225A7108BD00BF3B
:106520007CDD020084220020037813F0040216D0E0
:1065300003F00303012B03D0022B09D00120704785
:106540000A6800880232C0F3831002440A60F5E74B
:106550000B684288023303EB92130B60EEE71046A0
:10656000704700002DE9F04F87B000230446861CD9
:106570000DF107000F4615468DF8073000F0EEFECE
:10658000404A51683960936803F580735B1A9246FC
:1065900002F21C4702F5836902F21448B3421AD38F
:1065A0000020002D69D004F00F039B0143F0050388
:1065B00063F30F00DAF80430DAB203321E444AF80B
:1065C00022009DF80700CAF8046000F0EBFE0120ED
:1065D00007B0BDE8F08F0121384601F0BFFE484604
:1065E00001F0D4FE404601F0D1FEDAF80800029036
:1065F000C0B203300AEB800002A9FFF795FF029BAF
:1066000030BBDAB20AEB8202D16803919A1C0133E3
:10661000DBB20AEB83030292D3F80CB001F0030360
:10662000012B22D0022B15D08346404601F0B1FE4B
:1066300010B1029BCAF808305946384601F08EFE68
:10664000DAF80830DAF8042003F580739B1AA5E71E
:10665000D8B2CEE7BDF80E30C3F3891303334FEA47
:106660001B4B02EB93030293DFE7BDF80C30C3F33F
:1066700083134FEA1B4B1344F5E7A40544F00600CF
:1066800098E700BFF0230020064B074810B5012211
:106690001A7002F0D6FA044610B9044802F07EFBE4
:1066A000204610BDF0230020A0DC0200DCDD02004B
:1066B00030B50A4C71B10A4A0A49121BD2080023AC
:1066C0009A4201D1002030BD31F82350854202D0DA
:1066D0000133F5E7034654F83300F4E7B4DC020075
:1066E0007CDD020084220020094B013903EBC0004D
:1066F000032909D8DFE801F00A02040604207047E4
:106700000079704740797047002070470220704739
:10671000B4DC0200034BD3E90130C31A584258419C
:10672000704700BFF02300202DE9F04186B0FFF74D
:10673000F1FF0546002840F0E680744CC4F81804C8
:10674000BFF34F8FA3680293DBB2033304EB8300E4
:1067500002A9FFF7E9FE029B18B1D4F81824002A19
:1067600055D0DAB2991C013304EB8202DBB204EBA0
:106770008303D268DB68049302F00303022B0392C5
:1067800002914FD1BDF80E306148C3F38917502FE5
:106790003E4628BF502666F38F1306F10801ADF878
:1067A0000E3002F066FA0546002800F0978002F0ED
:1067B0008FFA002303A90822284602F09CFA0299C6
:1067C000CB43DBB20133C9B20331B6EB830F4FEADF
:1067D000830804EB810122D908234246A6EB080670
:1067E000284602F088FAF6B24A4908F10803324610
:1067F000284602F080FA029B033703EB97070297C3
:10680000D4F81834002B41D1D4F8106451E06268F8
:106810009A4299D8A260284606B0BDE8F0810823C4
:106820003246E5E7012B59D1BDF80C303848C3F3A7
:106830008311062928BF062161F3891302318900DB
:10684000ADF80C3002F015FA0546002846D002F0EB
:106850003FFA0023082203A9284602F04CFA00263A
:10686000BDF80C20C2F38312B300964203F1080373
:10687000C6D202994A1CC9B20331029204EB8101CB
:106880000422284602F037FA0136E9E7284602F0EA
:1068900023FAFFF73FFF80F00100C5B2BBE7F368C2
:1068A0005B7923B1336829461B6830469847F36803
:1068B0001E68002EF3D1284602F00EFA0DF10700F3
:1068C0008DF8076000F04AFDD4F818340BB9029B2C
:1068D000A3609DF8070000F065FDDAE7D4F81044E6
:1068E00054B90D4B0D480E49C01AC008000440F0C1
:1068F000020000F05DF8CCE7236820469B689847CB
:10690000E3681C68ECE7002585E700BFF023002062
:10691000A0DC0200FC230020B4DC0200DCDC02006E
:10692000C4DD02002DE9F34704460E46924601A954
:10693000012218469946FFF715FE1B4F10B3019D23
:106940004FF00008AA1CC84508EB020123D11748E4
:10695000002101F0BCFC80F31000000440EA144068
:10696000E4006B1C04F03804DBB2EDB244F0010427
:1069700007EB8303033544EA881444EA8624D8608D
:1069800047F825403B781BB1FFF7CEFE0028FBD12E
:1069900002B0BDE8F087C9B207EB81015AF8283090
:1069A000CB6008F10108CEE7F02300200C2800207E
:1069B00000231A46FFF7B6BF07B50123019201AACB
:1069C000FFF7B0FF03B05DF804FB07B5CDE9002386
:1069D00002236A46FFF7A6FF03B05DF804FB1FB56C
:1069E000CDE90123069B039301AA0323FFF79AFF36
:1069F00005B05DF804FB000030B50F49D1F8102454
:106A000003460020144634B9DC6820714AB9C1F845
:106A10001034226030BDE4682579854206D02468B0
:106A2000F1E7D268116821601360F3E701300A28AA
:106A3000E8D14FF0FF30EDE7F0230020084A38B5E9
:106A40000123D2F8104413701D4604B938BDE36821
:106A50005D71236820465B689847E3681C68F4E72B
:106A6000F023002007B503460846197A052911D0FE
:106A70005B7A2BB1094A0A49019001F0EDFC0198BB
:106A80000849019001F0E8FC019803B05DF804EBBF
:106A900001F0D7BC002AF8D0F2E700BFE8DD020021
:106AA000EDDD02000DDE020030B5C38885B004467E
:106AB0000D4633B1144A00921449154A284601F094
:106AC000CBFC217A05291DD0637A4BB1A088FFF752
:106AD0000BFE104B104953F82020284601F0BCFC57
:106AE000227A0E4BA08853F8222003920021FFF750
:106AF000DFFD039A0A490346284605B0BDE8304049
:106B000001F0AABC05B030BDE8DD0200F8DD0200EE
:106B1000F0DD020074DE0200EDDD020098DE02000E
:106B200010DE02002DE9F04385B01F460C9D0023C6
:106B300095F80C902B7306460C469046294638462D
:106B4000FFF7B2FFB8F1060F09D8DFE808F004122A
:106B5000181F283340003146284601F07DFC0022F2
:106B600029463846FFF77EFF85F80C9005B0BDE852
:106B7000F08322683146284601F06EFCEFE7D4E945
:106B800000233146284601F067FCE8E7A36800933C
:106B90003146D4E90023284601F05EFCDFE7E368D4
:106BA0000193A36800933146D4E90023284601F0FD
:106BB00053FCD4E723690293E3680193A36800932D
:106BC0003146D4E90023284601F046FCC7E7636953
:106BD000039323690293E3680193A368009331460A
:106BE000D4E90023284601F037FCB8E708292DE94D
:106BF000F74F80460E4617461C463CD8002593F8B2
:106C00000C901D7319461046FFF74EFFDFF888A061
:106C1000DFF888B0AE4231D918F805205946204631
:106C200001F01AFC0135082DF4D11949194DDFF88E
:106C300070A0204601F010FC4FF0000B5E4522D9F9
:106C400018F80B207E2A05D81046019206F006FFA0
:106C5000019A00B92E225146204601F0FDFB0BF1AE
:106C6000010BBBF1080FE9D1012221463846FFF79D
:106C7000F9FE84F80C9003B0BDE8F08F5146204631
:106C800001F0EAFBCEE72946204601F0E5FBE6E706
:106C900024DE020022DE020020DE02001ADE0200F4
:106CA00026DE0200C30710B507D4F023054A4008CA
:106CB000145C23401943115410BD0901C9B20F23BC
:106CC000F4E700BFD828002030B5094B1C78094BE9
:106CD000196800239C4202DC0022104630BD11F8E6
:106CE0003350854201EBC302F7D00133F2E700BF16
:106CF000A8280020E828002013B504460191FFF7DA
:106D0000E3FF38B143682BB10199204602B0BDE8DA
:106D10001040184702B010BD034B04481968002208
:106D2000490800F02ABA00BFAC280020B028002093
:106D300010B5C0B2FFF7C8FF0446007802F028FC87
:106D400063785A1E53425341834208D1044BD3E91E
:106D50000023134303D1BDE81040FFF7DDBF10BD92
:106D6000D028002037B54308354AD35CC2074CBF52
:106D70001B0903F00F0304460D46042B35D8DFE84A
:106D800003F003252C383C0079B30121FFF78AFF7B
:106D900000230DF107008DF8073000F0DFFA012025
:106DA000A4F12003C4F12001264A20FA01F100FADF
:106DB00003F30B43A040D2E9004120430B43C2E957
:106DC00000039DF8070000F0EDFA0EE0002918BF5F
:106DD00002212046FFF766FF07E041B10321FFF7DC
:106DE00061FF01212046FFF787FF03B030BD01217D
:106DF000EFE70029F9D10421EBE709B10321E8E726
:106E0000FFF750FF29462046FFF776FF0DF10700F8
:106E10008DF8075000F0A2FA0120A4F12003C4F17C
:106E20002001084A20FA01F100FA03F30B43A040C5
:106E3000D2E9004124EA000021EA0303BFE700BFD2
:106E4000D8280020D02800202DE9F041124E134F01
:106E500000243378A34208DC114BD3E90023134309
:106E600018D0BDE8F041FFF757BF3D6805EBC408F7
:106E700015F8340002F08CFB98F801305A1E53428A
:106E80005341181A4142414115F83400FFF76AFF97
:106E90000134DEE7BDE8F081A8280020E8280020C2
:106EA000D0280020092AF7B505460C4616463CD9DD
:106EB00002F0AEFAD8B11E4B1E481D601E4B1F4F8C
:106EC0001C701F4B002110221E6006F028FE1D4B77
:106ED00000200021C3E90001013CE4B20326FF2C9D
:106EE0000BD1194A1948002100F03CF903E002F0E7
:106EF00051FA0028DFD003B0F0BD9DF8063015F838
:106F000034008DF8046005EBC40223F007038DF80C
:106F1000063001A993788DF805303A4602F082FADE
:106F2000013CE4B20028DAD0E5E70720E3E700BF40
:106F3000E8280020D8280020A8280020316D020071
:106F4000AC280020D0280020496E0200B8DE0200E4
:106F500070B5084D084E00242B789C4201D30020C8
:106F600070BD3368012113F8340002F0CDFA01340A
:106F7000F2E700BFA8280020E82800201FB5002164
:106F8000039001AA44F20100CDE9011100F004F8D8
:106F900005B05DF804FB000010B572B6FFF74EFDBA
:106FA000FFF7C2FB0028FBD1104B114C1149E41A2A
:106FB000E408240444F00100FFF7FAFC0E4B1B68C0
:106FC000DB0700D500BE0D4944F00200FFF7F0FCDE
:106FD000BFF34F8F0A490B4BCA6802F4E0621343B8
:106FE000CB60BFF34F8F00BFFDE700BFB4DC0200F2
:106FF000DCDC0200BCDE0200F0ED00E0C8DE0200D6
:1070000000ED00E00400FA05D0E90223D1E9020115
:10701000994208BF90422CBF012000207047000019
:1070200008B50B4800F0F1FA0A4B0B49D3E90023ED
:107030001218D1E9000143F100038B4208BF8242DC
:1070400003D212F1807243F100031046194608BDC5
:107050008C220020F02800206829002037B5054642
:107060000C460A4801A901F066F860B10570446059
:1070700001A9064801F089F818B1054800F0CAFADC
:10708000002003B030BD0420FBE700BF54290020DE
:107090008C22002038B5184B1B78044613B9002504
:1070A000284638BD0028FAD0037F03F0FF05002BE7
:1070B000F5D0FFF7B5FFD4E90223994208BF90420B
:1070C00014D3236903B92377D4E90530984721699C
:1070D0000029E4D0237F03F0FF05002BDFD0D4E9A3
:1070E0000223521843F10003C4E902230348214656
:1070F00001F073FED4E700BFF8280020E4DE0200B0
:1071000013B5114B114918680190082310485822F3
:1071100000F0FEFF044698B90E4A0F4801A900F09E
:1071200065F9044660B90C48012100F051FA0123C9
:107130000A4A0948194600F0B3F9094B01221A70AE
:10714000204602B010BD00BFE0DE0200FC28002097
:1071500054290020C57102008C220020FFFF7F000F
:10716000F82800203AB103685A614A1E5142514141
:107170001961002070470720704738B5037F044627
:107180000D4683B98261FFF74BFF2369401941F136
:107190000001C4E9020103B1256121460020BDE8D8
:1071A0003840FFF75BBF002038BD0023014603775E
:1071B0000120FFF753BF0000014800F026BA00BFCE
:1071C0008C2200202DE9F04F85B0804600F008FAAF
:1071D00040B15A4AD2E9003113F1807341F1000104
:1071E000C2E900310021404600F009FA38B1544E9E
:1071F000336823B13068FFF74DFF0023336001216E
:10720000404600F0FCF920B1FFF70AFF4D4BC3E9FF
:1072100000014D484A4F4D4EDFF8389103A900F068
:10722000C4FF002845D1DFF82491454EDFF828A19E
:10723000484601F0E8FD3368002875D07BB133681B
:10724000D0E90201D3E90223994208BF90422DD22E
:1072500033681B7F1BB13168484601F0BEFD4846CC
:1072600001F0CBFDD0E902B307460193FFF7D8FE4A
:10727000019BBBEB000463EB0105012C75F10003DE
:1072800045DBB4F5350F40D3FFF796FF304A024493
:107290004FF496030021504600F022F900283ED119
:1072A000336813B9404600F0F3F8376005B0BDE825
:1072B000F08F0378012B1DD0022B09D14FF0000A6B
:1072C000304601F09AFD002834D080F81CA0F7E782
:1072D0003BB941680B7F23B901230B77304601F09E
:1072E0007CFD03A9184800F08BFF03A9164800F0A5
:1072F0005CFF96E741683B68994202D100233B60FE
:10730000EFE7304601F082FDEBE7BA68C0E7002105
:10731000504600F06AF93846FFF7BCFE01E00D2840
:10732000F9D00023336083E7002BBFD1404600F043
:10733000B3F8BBE7012389F80030D2E7F02800203A
:10734000702900206829002054290020E4DE020072
:10735000FFFFB400F82800208C22002070B5EFF366
:10736000108672B60C4A946801239CB993600B4B4B
:107370000B4DD3F8801029401160C3F88050D3F82A
:10738000841051604FF0FF32C3F88420047006B9B6
:1073900062B670BD0370FAE77429002000E100E0D6
:1073A000FC06FFBD084B9A6810B55AB150B9EFF30F
:1073B000108172B6054A1C6814605C68546098605D
:1073C00001B962B610BD00BF7429002000E100E0E1
:1073D000435882B03BB10023435043580193019B73
:1073E000012002B070471846FBE70000F8B5204BBB
:1073F0004479204D43F824201F4A204B05EBC40458
:107400009B1A2279DB081B0432B143F002001C49AD
:10741000FFF7CEFA0820F8BD02680C88C2F80845CC
:1074200090F904608A7804795201002ED2B219DBF7
:1074300014498F1987F800230122760904F01F04EC
:1074400002FA04F441F82640427905EBC201012416
:1074500045F832000C7143F003000B49FFF7A8FA1E
:107460000020D8E7094904F00F040A55ECE700BFF3
:107470008829002080290020B4DC0200ECDC020016
:10748000F0DE020000E100E012DF020014ED00E097
:10749000036801221A607047036801225A6070472E
:1074A00073B501F15005AD000068ADB24FF4803402
:1074B0008C400026C0F80843C0F84843465101F507
:1074C000A8714559019522F07F42019D40F8212085
:1074D000C0F844430BB1C0F8044302B070BD0000D3
:1074E0002DE9F74F0D4622F07F4402684FF48037B4
:1074F00005F150068F408046B60002EB8500C2F8C9
:107500004873B6B2C2F80873D2F8041599464FF022
:10751000000BD0F84035C0F8401542F806B05B1AB1
:107520009259009223F07F43012B009A4FEA850A7B
:107530000CD1264B4FF4806043F001039847D8F8F4
:10754000003043F806B09B590193019BD8F8001016
:10755000D1F80465C1F84473A31B23F07F43012BCA
:107560001CD11A4B05F5A875013443F0010341F80D
:1075700025404FF480609847D8F80030D3F80435A0
:107580009E4209D1D8F800300020C3F84473C3F8F4
:10759000047303B0BDE8F08F0D20FAE78A44C9F107
:1075A000FF13CAF84045D1F80405221A013A22F027
:1075B0007F4203F57F439342EED3002AE2D10134A8
:1075C000CAF84045D1F804359842DAE730DF0200C6
:1075D00003680222C3F8442309B1C3F804237047A7
:1075E00000684FF48271FFF7F3BE4FF4803303FA63
:1075F00001F10368C3F84813C3F80813704750310A
:107600008900006889B2FFF7E3BE0368D3F8040578
:107610007047000090F90430002B09DB5A09012162
:1076200003F01F0301FA03F34032024941F822300C
:10763000704700BF00E100E0024B034A1B6810687E
:10764000184700BF882900208029002070B5064D0A
:107650000646002455F8043B0BB1304698470134E8
:10766000042CF7D170BD00BF98290020033080B2F0
:1076700040F2FE33984230B51FD8134B1A783AB90E
:107680001C895D892C440444A4B2B4F5806F0AD9E6
:107690001A7DAAB99A8BDC8B2244024492B2B2F5CD
:1076A000806F0DD801220A801446142202FB043395
:1076B0005A8910445881002030BD48F20860FBE729
:1076C00048F20660F8E700BFCC2900200B4A0C4BBB
:1076D0005188142000FB0131CB6833B9042049687C
:1076E00010700122074801F013B9074905231370F0
:1076F00002238B80012209680023F3E7B0290020D0
:10770000CC29002070220020082A002007B5002381
:1077100005490093054A09680548082301F062F805
:1077200003B05DF804FB00BF082A002044DF02001C
:107730007022002007B5002301460093034A044845
:10774000082301F04FF803B05DF804FB3CDF0200B2
:107750007022002013B500230C4600930146084A0E
:107760000848042301F03EF838B90749142303FB05
:1077700004140123237402B010BD48F20D60FAE72F
:1077800038DF020070220020CC29002037B50A48DB
:107790000A4B42689C881968538803250333057097
:1077A0009BB2002000909B0001EB8401044801F093
:1077B00019F803B030BD00BFB0290020082A00200E
:1077C0007022002010B50146044800F0B4FC1C22D1
:1077D0000446002106F0A3F9204610BDF42900203C
:1077E0004388033300EB830399420BD382884FF61F
:1077F000FF739A4208D0038833B18068431C584213
:1078000058417047022070470120704738B5144B2B
:1078100014220D4602FB00302B68446804F58051A9
:10782000A3B15C88033403EB84048C4215D2236833
:10783000013312D02046FFF7D3FF012808D00228D9
:107840000BD00028F1D12C60012038BD0834ECE7C2
:107850006388033304EB8304E7E70020F5E700BF08
:10786000CC290020426873B504460D466AB3244B08
:10787000D9688A4229D31B699A4226D812F0030399
:1078800023D120490089098988421ED12068916846
:1078900088421AD11C494868824203D900F58050B9
:1078A00082420DD389698A420CD901F580518A42FE
:1078B00008D201222A80B3FA83F0400902B070BDD9
:1078C0001A46F7E748F20963F5E700232B801E46C6
:1078D0000196288801A9FFF799FF30B92B88013359
:1078E0009BB2012B2B80F3D9E8E7019B22689968B2
:1078F0009142EED16360034B1B892381DEE700BF19
:1079000070220020B0290020CC2900202DE9F84366
:107910001C461D4B1B7806460F46154673B382B3B3
:107920007CB3DFF86C804FF01409A388012B02D9D7
:1079300048F2096020E009FB03F318F803302BB983
:10794000A0882146FFF762FF20B92060A388013399
:10795000A380EAE723681EB1998832889142EFD16B
:107960001FB119883A889142EAD19A68C5E9002383
:10797000064B1B892B810020BDE8F88348F201608B
:10798000FAE748F20460F7E7A8290020B0290020B0
:10799000CC29002008B5074B5888191DFFF736FF82
:1079A00018B1BDE80840FFF7F1BEBDE80840FFF799
:1079B0008DBE00BFB02900202DE9F04FA44FDFF8A5
:1079C000B49289B00646B8463B6823B9A1484946F7
:1079D00000F0EBFB3860D8F8005029784B1E052BDF
:1079E00007D8DFE813F022007C007C000E010E01B6
:1079F000660148F20E641422002103A806F08FF8F5
:107A000041F61D539C4208BF0024D8F8003004946E
:107A10001A78013A052A00F2F881DFE812F0E40151
:107A2000E8010802180224022E022EB18A4B00221D
:107A30005A604FF40644DEE72B79032B1DD8DFE8AC
:107A400003F015022B3685490B78022B08461AD015
:107A50000B7D022B4FF0010317D114225343C218A0
:107A60000020C8545068FFF765FE03E001232B7126
:107A7000FFF74CFE002800F0BE80774B00225A60D2
:107A800048F20D64B7E70023E7E7734A1370002359
:107A9000536041F61D54AEE771497248002302223B
:107AA0002B718A800968012200F032FFE2E76C4CFA
:107AB00000262E712068694DFFF73CFE6A4BD4F812
:107AC00000C05A8814235343EA18EE5451682160C9
:107AD000A188C2F804C011810222A280CAE7B5F8C9
:107AE00014A0AA7DDFF874B1AEB1022AEB8806D9E2
:107AF000142101FB0AB1DA1C088902440A8114220C
:107B000002FB0ABAC3F57F43BAF80A20FD331344D7
:107B1000AAF80A308DE7142303FB0AB318895C68BE
:107B200004EB8004062A69D8DFE802F0274E3644C9
:107B30001D5A040041F61D54AA7DEB88022A06D97D
:107B4000142101FB0AB1DA1C088902440A811422BB
:107B500002FB0ABAC3F57F43BAF80A20FD33134487
:107B6000AAF80A3047E74148414900234360AB691E
:107B70000360FFF777FE00285BD00223AB7500237C
:107B800000930423EA182146364800F02BFE002813
:107B900031D048F20D64CFE72B69002B14BF0323CB
:107BA0000123AB750023009305F10C02042304F1BB
:107BB0000801E9E70123AB750022EB8800922A69EE
:107BC0009B0004F10C01DFE703290CBF052306230A
:107BD000AB7500230093042305F10802E118D3E7F5
:107BE0000623AB75224B1988204B5868FFF7B2FD6E
:107BF00004460028A0D109B0BDE8F08F48F20E6419
:107C00009AE7002E7FF415AF2B79012B34D0022B8D
:107C10003FF43FAF002B7FF4ECAE02232B710DF14C
:107C20000A01EB68039303A8CDE90466FFF71AFE87
:107C300010B948F20964DEE60498BDF80A1083889A
:107C4000EB8003882B81FFF785FD044627E000BF0A
:107C5000C8290020F4290020A8290020CC290020D0
:107C6000082A002070220020B02900208C29002042
:107C7000102A0020C0290020814B03AA3146A81DEC
:107C8000FFF744FE7E4B044668B999880498FFF7D5
:107C900061FD044648F209639C423FF4FAAE002CB1
:107CA0007FF4A9AEA7E708223146184605F037FF52
:107CB000F0E7002E7FF4BDAE724B1A7BB2B11E739B
:107CC0001A78013A062A3FF694AE01A151F822F043
:107CD0007B7D0200A17D0200BF7D0200C57D020008
:107CE000F3790200CB7D0200DD7D02001A78072ABD
:107CF000E6D801A151F822F0197D0200C17C0200F2
:107D0000C17C02003F7D0200537D0200777D0200AE
:107D1000777D02003B7D02001A895B4901321A819E
:107D200000225A801A730A78B2FA82F252099A72C1
:107D30000A7DB2FA82F25209DA72012207E053494F
:107D400058688A884088033202448A8002221A7066
:107D5000B6E74D4C5A884D49142505FB0242086888
:107D6000546850608888108102200C60888000214F
:107D700011740622EBE70722E9E79A7A32B9DA7A38
:107D80008AB900221A705A805A6082E63E4900225F
:107D90009A72CA68002AF2D1097C0029EFD05A8071
:107DA000FFF7F8FD51E70022DA72374A116A00291D
:107DB000E7D192F82420002AE3D00122EFE7FFF771
:107DC000E5FC42E7FFF782FC3FE72F4A5B8814217E
:107DD00001FB03235868FFF7ADFC36E700225A6029
:107DE000FFF794FC31E700238DF80C300DE0012201
:107DF0008DF80C201A89ADF818209A88DB68059355
:107E0000ADF81A2000238DF81C3003A8FFF71EFCE4
:107E1000002649461E48C8F8006000F0F1F91D48E8
:107E2000012100F0A7FA00287FF4CEADE3E602229C
:107E30008DF80C201A89ADF818209A88ADF81A2010
:107E4000DA689B7D05929A1F53425341DBE7032278
:107E50008DF80C20DA88ADF818201A89DB68ADF8A7
:107E60001A200593D1E704228DF80C20DB88ADF8A9
:107E700018300023ADF81A30F3E70523B4E700BF4C
:107E8000142A0020B0290020CC290020082A002034
:107E9000F4290020042A00204068FFF78DBD00006F
:107EA00008B50548012100F04DFA18B9BDE80840B1
:107EB000FFF782BD08BD00BF042A00202DE9F34171
:107EC0009846374B1B7806460D46002B5CD00029A0
:107ED0005DD009884FF6FF7399425BD06B88002B09
:107EE00058D06B689B0758D14AB92F890DF1020110
:107EF0003846FFF7BBFB30B102B0BDE8F081138814
:107F00005788ADF8023001A8FFF75CFC044660B961
:107F1000BDF80230234A142101FB0323588903389A
:107F2000C01B588148F20760E6E780F80080002314
:107F30008375BDF8023083826B68036101211A48A2
:107F400000F00CFA2B882381B8F1030F6B88A38013
:107F500004BF0423A3754FF0000508BF3368E06039
:107F600008BFA3611148E780658101A900F00DF900
:107F700036B1E36833600E4B75601B89B57233818F
:107F8000FFF78EFF0020B7E748F20160B4E748F240
:107F90000460B1E748F20360AEE748F20260ABE785
:107FA000A8290020CC290020C4290020F429002081
:107FB000B029002073B50D460446C8B1C1B10DF11A
:107FC0000601FFF74FFCB0B10C4BBDF80600666828
:107FD000142202FB003001210C3000F0BFF963686D
:107FE0002E600C336B600123A372002002B070BDC1
:107FF00048F20460FAE748F20960F7E7CC2900206C
:1080000013B50446A8B10DF10601FFF72BFC98B19A
:108010000C4ABDF80630142101FB0323DA6872B163
:10802000A27A62B1DA680020013ADA60A07202B086
:1080300010BD48F20460FAE748F20960F7E748F239
:108040000560F4E7CC29002002230022FFF736BFA9
:1080500018B103230022FFF731BF48F204607047D4
:10806000114B1B7813B50446ABB14FF6FF73984222
:1080700014D001A8FFF7A6FB98B1052303700123D4
:108080000371C48001A9094800F07FF8FFF708FFD9
:10809000002002B010BD48F20160FAE748F2036028
:1080A000F7E748F20760F4E7A8290020F429002048
:1080B00007B5ADF80600ADF804100DF1060001A9F2
:1080C000FFF724FC03B05DF804FB07B51346ADF8D9
:1080D00006000A4600200DF10601FFF717FC03B069
:1080E0005DF804FB07B51346ADF806000A460DF12E
:1080F00006000021FFF70AFC03B05DF804FB20B185
:1081000019B103680B600020704748F204607047A3
:1081100010B561B1B2FBF3F403FB1424A4B244B96B
:10812000C0E9001484608281C381204610BD0E2006
:10813000FCE70920FAE737B550E8013F9DB2C48952
:1081400025448489A54228BF2D1B0489A54202BF6E
:10815000BFF32F8F002207E0C5EA030540E8015472
:10816000002CE9D14FF001028DF803200193019B0F
:108170009DF803200B6002F0FF0322B10B8800681A
:10818000184403B030BD1846FBE70A884B889A4272
:1081900009D150E8012FC2EA024240E80123002B36
:1081A000F7D1012070470020704737B550E8023FF3
:1081B0001FFAA3F5C488A54202BFBFF32F8F002288
:1081C0000DE0C48925448489A54228BF2D1BC3EA3C
:1081D000054540E80254002CE8D14FF001028DF82B
:1081E00003200193019B9DF803200B6002F0FF0325
:1081F00022B14B880068184403B030BD1846FBE735
:108200000A884B889A4209D150E8022FC2EA2242DA
:1082100040E80223002BF7D101207047002070476F
:1082200001F01F024B090121914000EB830000F097
:1082300065B84B0910B501F01F040121A14000EB06
:10824000830000F04FF8E04000F0010010BD01F0A5
:108250001F0301229A404B0900EB8300D14300F039
:1082600065B84B0901F01F0150F82300C84000F029
:10827000010070472DE9F0474F1E7F0980460E46EA
:108280000137002558F8254008EB8509E44394FAA6
:10829000A4F4B4FA84F44FEA451A202C06D101352F
:1082A000AF42EFD834462046BDE8F0875444A6429A
:1082B000F5D921464046FFF7BCFF0028F3D0D9F896
:1082C0000040E44394FAA4F4B4FA84F4E5E710B56A
:1082D000034653E8000F0A4643E8002494F0000FD9
:1082E000F7D110BD10B5034653E8000F40EA010274
:1082F00043E8002494F0000FF6D110BD10B50346FA
:1083000053E8002F42EA010043E8000494F0000F14
:10831000F6D110BD10B5034653E8000F00EA010284
:1083200043E8002494F0000FF6D110BD10B50346C9
:1083300053E8002F02EA010043E8000494F0000F24
:10834000F6D110BD10B5034653E8000F00EB010253
:1083500043E8002494F0000FF6D110BD10B5034699
:1083600053E8002F02EB010043E8000494F0000FF3
:10837000F6D110BD10B5034653E8002FA2EB010063
:1083800043E8000494F0000FF6D110BD0121FFF77F
:10839000B5BF0021FFF7BEBF10B590B1D0E90123F2
:1083A00001689B1ADBB20A60013BDBB2FF2B02685B
:1083B00002D10020107110BD11684C1C14600B70AC
:1083C000F2E70E20F7E737B5054600240DF1070068
:1083D0008DF80740FEF7C2FF2A686B681168994262
:1083E0000ED9481E106011F8014CEB68298A01FB78
:1083F0000434AB6811791B1ADBB2994238BF137190
:108400009DF80700FEF7CEFF204603B030BD37B51C
:10841000054600230DF107000C468DF80730FEF7E6
:108420009DFF2A681368591C1160E968641A298A3B
:10843000B4FBF1F41C709DF80700FEF7B3FF03B026
:1084400030BD826810B504462AB1436901680069ED
:1084500098470023A36010BD0EB403B5039921B162
:1084600004AB01AA019300F06FF802B05DF804EBD1
:1084700003B07047826830B40468551C8560A1540D
:10848000D0E901329A4202D330BCFFF7DABF30BCE8
:10849000704700002DE9F84F9846DDE90A4315467C
:1084A00082460F460A464FF00109AA420FD2C14543
:1084B00038BFC14613F0010B01D16CB9002401266D
:1084C000B8F1010F1BD908F1FF386E43F8E709F145
:1084D0000109B2FBF5F2E8E79B070ED5B8F1000FF2
:1084E0000CBF30262026A145E9D2013C314650463A
:1084F000FFF7C0FF002CF6D1E0E72026F3E7B7FB3B
:10850000F6F39D42E1D9DFF83C80B7FBF6F3504625
:1085100018F8031006FB1377FFF7ACFF3346AB42A6
:10852000B6FBF5F6F1D2BBF1000F02D00CB1A145BC
:1085300001D3BDE8F88F20215046013CFFF79AFF98
:10854000F4E700BF4CDF02002DE9F74F0546174660
:108550008846002900F0428118F8011B49B92B7B9D
:10856000002B00F03B81284603B0BDE8F04FFFF739
:1085700068BF252940F0B780002698F800302D2BE1
:10858000424608F1010823D0302B24D02B2B25D0D4
:1085900000242A2B02F1010123D13B681A1D1B681C
:1085A0003A601C440A4613782E2B26D101324FF034
:1085B000000A104610F8011BA1F1300CBCF1090FA4
:1085C0001DD80A2303FB0A13A3F1300A0246F0E781
:1085D00046F00106D1E746F00206CEE746F0040673
:1085E000CBE711F8013CA3F130000928DBD80A22BF
:1085F00002FB0434303C0A46CBE74FF0000A12F885
:10860000011B01F0FB0068289046F8D0782909D8B2
:108610006F290CD8632962D022D8252963D0582924
:1086200000F0888098F80030002B95D197E77039DA
:108630000829F7D801A353F821F000BFB78702003B
:108640002586020025860200458702002586020055
:108650002387020025860200258602003587020056
:10866000642901D06929DDD13A68D2F80090111D42
:1086700089EAE9723960A2EBE9724FF0010B092A2D
:1086800035DCD34538BFD3462CB1B9F1000F01DB3F
:10869000720700D5013CB30702D5BAF1000F03D031
:1086A000F00701D44CBB0024B9F1000F2DDAC9F159
:1086B00000092D212846FFF7DDFE06F00302022AFD
:1086C00004D1BAF1000F01D11CBB0024CDE9004652
:1086D00053460A2249462846FFF7DCFEA2E73B68DC
:1086E0001A1D19783A602846FFF7C4FE9AE70A2354
:1086F0000BF1010BB2FBF3F2C1E7A345D4D2202169
:108700002846013CFFF7B6FECCE77107D5D52B21F3
:10871000D0E7A345DAD230212846013CFFF7AAFE74
:10872000D2E73968CDE900460A1D3A6053460A226D
:108730000968D0E739680A1D3A60CDE9004653461A
:108740001022F5E73B681A1D3A6016F00106D3F8CF
:10875000009028D1B9F1000F03D0484605F034FA53
:108760000646B44200D904BB09F1FF3919F8011FCC
:1087700000293FF457AF2846FFF77CFEF6E728466E
:108780000136FFF777FE19F806100029F7D1A64247
:10879000BFF448AF002C3FF445AF20212846013CF0
:1087A000FFF768FEF3E70026EDE720212846013CAD
:1087B000FFF760FED5E73B681A1D3A603021284676
:1087C0001C68FFF757FE78212846FFF753FE00226A
:1087D0000823CDE90032214610227CE703B0BDE832
:1087E000F08F00BF2DE9F34188B93D4B3D483E4A2B
:1087F000C01AC0080E243D4B009400043C4940F0D0
:108800000100FEF7ECF8204602B0BDE8F0814AB95D
:10881000334B3448374AC01AC0080E24334B0094F7
:108820000004EBE7D0F800E0BEF1000F09D12C4BBB
:108830002C48314AC01AC00808242C4B009400046C
:10884000DCE74BB9264B27482C4AC01AC00809243C
:10885000264B00940004D1E74568D5F80480B3FBAB
:10886000F8F508FB15354DB11D4B1E48244AC01ABA
:10887000C00809241D4B00940004BFE78D0709D0F0
:10888000174B18481F4AC01AC0081024174B0094F1
:108890000004B3E712F0030F09D0114B11481A4A34
:1088A000C01AC0081024114B00940004A6E7C56844
:1088B000A9420BD34D1EEC180569AC4206D8DEF870
:1088C0000C40A44602B0BDE8F0416047044B0548A7
:1088D0000E4AC01AC0081024044B009400048DE70F
:1088E000B4DC020004DD02005CDF0200F2E0020002
:1088F00061DF0200DEDF02008ADF02009DDF02008E
:10890000E4DF02000EE0020026E0020049E002007F
:10891000F7B580B92A4B2B482B4AC01AC0080E2441
:108920002A4B009400042A4940F00100FEF757F852
:10893000204603B0F0BDD0F800C0BCF1000F09D153
:108940001F4B2048234AC01AC00808241F4B00941C
:108950000004E8E74AB91A4B1A481F4AC01AC0086F
:1089600009241A4B00940004DDE74768D7F800E0BB
:108970000EF1FF370F4209D0114B1248174AC01AA7
:10898000C0081024114B00940004CCE7C768B9421A
:108990000CD304694D1E0EFB0255A54206D8DCF827
:1089A0001040A44603B0BDE8F0406047044B0548C2
:1089B0000B4AC01AC0081024044B00940004B2E70C
:1089C000B4DC020004DD02005CDF020005E102000D
:1089D00061DF02008ADF02009DDF020070E002001A
:1089E00096E0020029DF704728DF704770B5036802
:1089F0009E6886B004460D466EB11422002168467A
:108A000005F08DF8A3680593237901952BB1012B0F
:108A10000DD06846B04706B070BD01238DF8003018
:108A200023690293E368039363690493F1E70223E4
:108A30008DF80030E3681B030293F5E7034B187AC7
:108A40000122B0FA80F05A74400970472C2A0020A5
:108A500070B5244C244E237A25463BB9234924483B
:108A6000FFF7A3FB306008B9606070BD0223346873
:108A70002B72237973B1012B24D020460321FFF7F9
:108A8000B5FF00232B726B6018491948BDE8704090
:108A9000FFF7B6BBD4E90523D21AB2F5805FD4E95B
:108AA000031028BF4FF480529208012A38BF0122D8
:108AB00019441844FFF796FF50B11128DDD1012366
:108AC0002B72D2E7D4E903031844FFF78DFFF3E7D5
:108AD0002B7C002BC9D10146BDE87040022000F07C
:108AE00009B800BF2C2A0020442A0020402A002078
:108AF0001C2A002038B5831E012B45D8234C237A2D
:108B0000002B41D0022B09D1032830D0204B00226A
:108B10001B68E2601A793AB1012A22D0637C7BBBE0
:108B2000BDE83840FFF794BFD3E905128D1AB5F5BB
:108B3000805F94BF521902F580529A619142EDD143
:108B400002284FF0000308BF19462372104B18BFCC
:108B50000D211868FFF74AFF0E490F48FFF750FB39
:108B6000DCE71A6901321A615B699A42E7E7E36858
:108B70000133082B01D8E360D0E70023E360DFE78F
:108B8000BDE8384004F09ABD38BD00BF2C2A002053
:108B9000442A0020402A00201C2A002000F0FD0367
:108BA000012B08D1044B00225A74421E50425041FE
:108BB0001874FFF74DBF70472C2A00202DE9F84F9D
:108BC000B0F806A04579D2F800B09DF828900AFBCD
:108BD00005F5043D88460BEB0301A94203F10404AB
:108BE00088BFA5EB030BB4FBFAF607460AFB164455
:108BF000C2F800B04EB9AAEB04055D4528BF5D463A
:108C0000BBF1000F04D1BDE8F88F3F68013EF1E7EA
:108C1000043408EB06003C442A46B9F1000F0DD09D
:108C20002146ABEB050B04F051FFDA452E443F68BB
:108C300055464FF0000428BF5D46E1E70146204657
:108C4000EFE7FFF7A9BBF8B546790146721E054666
:108C5000002393422D6803D30024A64202D8F8BD16
:108C60000133F6E70F682846FFF7D1FB0134394698
:108C7000F3E72DE9F843068ACD1C0746FFF7A3FB6F
:108C8000043E35440446B5FBF6F5F0B14FF480736D
:108C9000EDB28380C680013D076081464FF0000839
:108CA000A84512D23846FFF78EFB064648B16379D5
:108CB0000133637108F10108C9F8000007608146BB
:108CC000EEE72046FFF7BFFF34462046BDE8F883B5
:108CD00001210430FFF742BB10B5012104460430E6
:108CE000FFF748FB10F0FF0F04D12046BDE810400D
:108CF000FFF7A9BF10BD1FB503920022009203AA7F
:108D0000FFF75CFF05B05DF804FB1FB5039201227D
:108D1000009203AAFFF752FF05B05DF804FB41DFA4
:108D200070470000064B10B500241C70054B1C60FA
:108D3000BFF35F8F0449054800F039F8204610BDA5
:108D4000502A0020542A002024E10200482A002052
:108D500007B500230DF107008DF80730FEF7FEFA86
:108D6000F1EE103A23F09F03E1EE103ABFF35F8F6C
:108D7000094B4022C3F884219DF80700FEF712FB3F
:108D800004F0ACFC20B1FFF7CAFF03B05DF804FBB0
:108D900020BF40BF20BFF8E700E100E08368002269
:108DA0005A60C3E904229A60DA601A6070470B685F
:108DB0004A684360934208BF0023016008BF4360D4
:108DC0007047436843B10268916852680B4493420C
:108DD000436004BF00234360704770B54468064693
:108DE0000D46206818B1B3682946984718B923681A
:108DF0002B60256070BD2468F3E74368186808B1EC
:108E000002681A60704743681868704743681868BA
:108E100000B97047884203D102681A600120704788
:108E200003460068F4E7000010B50D49A1F59472FF
:108E3000914201D800200FE08C1AE30F03EBE4030A
:108E40005B1002EBC30452F83330834205D802D2E0
:108E500004F10802ECE7606810BD2146E8E700BFB6
:108E600030E6020008B5FFF7DFFF024B002808BF1D
:108E7000184608BDF3E40200044B1868421C04BF06
:108E8000034B1878831F5842584170473001001037
:108E9000E00F00F0074B1B78062B09D1064B1B682F
:108EA000C3F30313033B032B02D8044AD05C70477F
:108EB00000207047E00F00F0E80F00F038E60200F5
:108EC00008B5FFF7D9FF28B1834B844A1B68C3F369
:108ED00004231360FFF7DEFF10B1814B814A1A6053
:108EE000FFF7CAFF28B1804B804A1B68C3F34233A7
:108EF0001360FFF7CFFF20B17D4AD36823F0807362
:108F0000D360FFF7B9FF40B14FF080430022C3F8B0
:108F10000C21C3F81021C3F83825FFF7BBFF10B1AF
:108F2000744B03221A60FFF7B5FF40B1724B052264
:108F30001A6001229A6700229A603F225A606F4BA2
:108F40001A68511C0BBF6E4B6E4B1A781B6802BF20
:108F500008331B68C3F30313062A4DD1033B032BCD
:108F600003D8694AD35C002B46D04FF08052674B40
:108F7000D2F80414C3F82015D2F80814C3F8241545
:108F8000D2F80C14C3F82815D2F81014C3F82C1515
:108F9000D2F81414C3F83015D2F81814C3F83415E5
:108FA000D2F81C14C3F84015D2F82014C3F84415A5
:108FB000D2F82414C3F84815D2F82814C3F84C1575
:108FC000D2F82C14C3F85015D2F83014C3F8541545
:108FD000D2F83414C3F86015D2F83814C3F8641505
:108FE000D2F83C14C3F86815D2F84014C3F86C15D5
:108FF000D2F84424C3F87025FFF73EFF28B1444B54
:10900000444A1B6803F04F031360FFF735FF48B174
:109010004FF08043D3F80024D20744BF6FF0010221
:10902000C3F80024354B1B68062B0CD1354B1B684D
:10903000033B032B02D8384AD35C23B1374A136869
:1090400043F480631360364AD2F8883043F47003E7
:10905000C2F88830BFF34F8FBFF36F8F4FF01023EC
:10906000D3F80022002A03DBD3F80432002B2FDAD6
:109070002C4B0122C3F80425D3F80024002AFBD08E
:109080004FF010221521C2F80012D3F80024002A54
:10909000FBD04FF010231522C3F80422214B1A46AF
:1090A000D3F800140029FBD00021C3F80415D2F82E
:1090B0000034002BFBD0BFF34F8F19491A4BCA68FD
:1090C00002F4E0621343CB60BFF34F8F00BFFDE7B4
:1090D000164B174A1A6008BD2403001040350140A2
:1090E00074C007400DF0ADBA440200103C050040CA
:1090F000F0ED00E0A00500401056004030010010E7
:10910000E00F00F03401001030E6020000C0004023
:1091100058020010E40E004034E602003C17004004
:1091200000ED00E000E001400400FA059422002078
:109130000090D00338B5074C051E04F1080318BF92
:109140001C4623682BB11A6822605B682846984742
:10915000F7E738BD602A002020B9054B01225A707C
:10916000FFF7E8BF012802D1014A9070F8E7704785
:10917000582A002020B9034B01225A70FFF7DABFAA
:10918000704700BF582A002038B50E4C2378B3B979
:109190000D486360A3602361E36000F073F8054647
:1091A00004F09CFA08B900F079F801232370074B0A
:1091B000D3F800340BB10123A370284638BD8525B0
:1091C000F5E700BF582A0020599102000000014035
:1091D00037B50D4C00230DF107008DF80730FEF771
:1091E000BDF8E368013BE360E36833B9074BD3F8AC
:1091F000005415B900F064F8A5709DF80700FEF75B
:10920000D1F803B030BD00BF582A00200000014053
:10921000012813B50CD0032820D038B9124B0122F5
:10922000C3F88020BFF34F8FBFF36F8F02B010BD24
:109230000E4C00230DF107008DF80730FEF78EF875
:1092400023780BB9FFF7A0FFE3689DF8070001330F
:10925000E3600123A370FEF7A5F8E7E700F01EF82E
:10926000FFF7B6FFE2E700BF00E100E0582A002068
:1092700000F18040002382B0036003680193019BEA
:1092800002B07047044A137923B90121106091801C
:1092900018467047852070476C2A0020074B1A68D3
:1092A000D20704D4C02283F8002301221A604FF0B1
:1092B00080430122C3F81825704700BF00E100E099
:1092C0004FF0804208B50223C2F808334FF4827091
:1092D000FFF7CEFF034B01211960D2F81834DB03EE
:1092E000FBD408BD0C000040124B1B6810B573B1D5
:1092F0004FF48070FFF7BCFF4FF080430122C3F8AA
:1093000008230D4B587910B95A711B6898470B4BBD
:109310001B6873B14FF48270FFF7AAFF4FF08043D0
:109320000222C3F80823044BBDE810401B6801204B
:10933000184710BD000100406C2A002004010040C5
:1093400000F1804000F5C040002382B00360036854
:109350000193019B02B07047800000F1A040D0F85B
:10936000002722F44032C0F80027D0F8003743EA43
:109370000141C0F800177047054B4FF0FF32072836
:1093800043F8202084BFC01880F84820704700BFF1
:10939000742A002010B51A4C94F858306BBB4FF06B
:1093A000FF3222FA03F1C90748BFE11803F10103B4
:1093B00048BF81F83020202BF3D10021C8B2FFF73D
:1093C000DBFF01310C29F9D1042200210D4804F002
:1093D000A6FB0D4BC02283F8062340221A604FF4EF
:1093E000BE70FFF7ADFF094B4FF00042C3F80423F6
:1093F000012384F85830002010BD0820FCE700BF8E
:10940000742A0020C82A002000E100E0006000402B
:10941000034B93F85800003818BF0120704700BF75
:10942000742A0020F0B5364D2C1894F93040002CE9
:1094300064DA8C78C4F34004002C0BBF08230023AB
:109440000C260826B34201D10420F0BD55F8237044
:1094500001373FD12E1845F8232086F8303014B953
:10946000EA1882F848008A78540713D4D60733D50F
:10947000820002F1A042D2F8004724F00204C2F8B0
:109480000047204EC20800F007070124BC40B75C2B
:109490003C43B4548A780C7812F0020225D09B0029
:1094A00003F1804303F5C0430202D3F8101521F401
:1094B000473121F44071C3F810152404D3F8101576
:1094C00002F4F85204F4403422430A43C3F810254E
:1094D0000020BAE70133B5E74C7800F5E0724FF0B1
:1094E000A046A40046F82240CBE7083B2B4493F863
:1094F000501041EA841483F85040E9E70820A4E7BB
:10950000742A0020C82A002038B51F4C251895F968
:109510003020072A16DD224492F848309B09032B9D
:109520000BD14FF0A043D3F81015C14001F0010159
:109530000231BDE83840FFF70FBF012B0CBF0221FD
:109540000321F6E7D3B2072B1CD8930003F1804325
:1095500003F5C043D3F8100540F00100C3F810052F
:1095600002F14000800080B2FFF7EAFE51B195F9A8
:10957000303054F823302BB1012303FA02F2034BAD
:10958000C3F8042338BD00BF742A002000600040E7
:109590004FF0A043D3F8103523FA00F000F001009B
:1095A000704700002DE9F74F00244E4D01944FF411
:1095B0008072012102F1804303F5C04390B21B6821
:1095C000012B06D1D5F804330B4202D0FFF7B8FEC9
:1095D0000C430432B2F5907F4FEA4101EAD1424B8D
:1095E0001B68012B0CD14FF4BE70FFF7A9FE4FF0A2
:1095F000A04344F00044D3F820250192C3F820256D
:1096000014F0FF0F1AD0394F00250126344210D034
:10961000AB0003F1804303F5C043D3F81005D3F842
:10962000101557F8253023B1C1F30141C0F30420D0
:1096300098470135082D4FEA4606E7D1002C48DA55
:109640002A4D4FF0A0482A4E4FF00009012716F985
:10965000013B5A1C31D0C3F3C20202A90A44DCB256
:1096600012F8042C03F03F0A03F0070307FA03F390
:109670001A4222D00AF5E073504658F82330C3F35B
:10968000014BBBF1020F0CBF03210221FFF764FE67
:1096900007FA0AF3C8F8203505EB0A0393F93030CE
:1096A00055F823304BB1A109032904D0BBF1020FB7
:1096B00012D1012901D15046984709F10109B9F1A8
:1096C000040FC4D1D8F820350193C8F82035002BF9
:1096D000B9D103B0BDE8F08FBBF1030FEDD1022982
:1096E000E8E700BF006000407C610040742A002071
:1096F000C42A0020014B1B68184700BFD02A002055
:10970000A8DF704762DF70470288502A10B40DD17D
:10971000C4884A88944209D1028A012A06D14B6939
:1097200023B1827C5DF8044B808818475DF8044BB8
:1097300070470000F0B50B6843618FB0334B02AA4D
:10974000044603F11007164618685968154603C504
:109750000833BB422A46F7D104F112013046FFF725
:10976000D1FF00284FD1A37C8DF80630224641F26C
:10977000235301A90120ADF80430FFF7C1FF0028F1
:1097800041D10146202206A804F0C9F941F2245330
:10979000ADF81830A37C8DF81A309DF8253022469C
:1097A00023F0120301254FF0011643F0120332F8A3
:1097B0000A0B079606A98DF825308DF829508DF8EB
:1097C0002B5001F0DCF9F0B90146202206A804F084
:1097D000A6F941F22553ADF81830A37C8DF81A3064
:1097E0009DF825300796224623F00A0343F00A032A
:1097F00032F8020B8DF8253006A98DF829508DF826
:109800002A5001F0BCF90FB0F0BD00BF5EE60200C7
:1098100076DF70477ADF70477CDF70478FDF7047F5
:10982000FDF7ACBB012910B519D1A0F10D03032B35
:109830002ED8DFE803F0021F303B204B204C21489C
:10984000E41AE4088378240444F0030463B100219B
:1098500000F096FD1C4902462046FDF7ADF8FCF7E6
:1098600063FF0028FBD110BD032100F089FD1749DB
:109870000246F1E7114B12481549C01AC00800040E
:1098800040F00300FDF794F802F0D4FE0028E6D083
:10989000FDF774FBE3E70A48084B0E49C01AC008FD
:1098A000000440F00300FDF783F8D8E70448034BB9
:1098B0000949C01AC0080004F3E700BFB4DC020085
:1098C000DCDC0200D82A00206EE6020088E60200F6
:1098D000A3E60200B0E60200BDE602000388212BE9
:1098E00013B504462FD005D8102B17D0112B0AD052
:1098F00002B010BD3B2B01D0562BF9D1A08813210B
:10990000FFF786FF1AE0144B14481549C01AC00827
:10991000000440F00300FDF74BF8E9E70E4B0F4859
:109920001049C01AC008000440F00300FDF740F8D9
:109930000D4BA1880D48198002F0B0F90028D7D04E
:10994000FDF71CFBD4E7002301A98088ADF80430A3
:10995000FFF764FFF2E700BFB4DC0200DCDC0200CA
:10996000CAE60200D8E60200BC220020382F002000
:1099700058B1032810D10948094B0A49C01AC00838
:10998000000440F00300FDF713B80448044B0649F7
:10999000C01AC0080004F4E7704700BFDCDC020016
:1099A000B4DC0200E3E60200F5E602000648074BDD
:1099B000C01AC008000440F0030012B10449FCF7CB
:1099C000F7BF0449FBE700BFDCDC0200B4DC0200A7
:1099D00007E7020018E7020008B503784BB9054B0A
:1099E0003B211888FFF714FF18B1BDE80840FDF7C8
:1099F000C5BA08BDBC220020FDF7C0BA30B54FF48F
:109A00008041ADB00020FCF73FFE08B1FDF7B6FA8B
:109A1000FCF77AFDFDF774FB08B1FDF7AFFA5F487C
:109A200040F233320421FDF73DFA08B1FDF7A6FA02
:109A3000FDF78EFA08B1FDF7A1FAFFF773F908B147
:109A4000FDF79CFA03F0CCFD08B1FDF797FA00236F
:109A500001A90120019303F08BFE08B1FDF78EFAF6
:109A600001A803F037FF08B1FDF788FA11234C482D
:109A70008DF8003004F0A8F8494982B26846FFF733
:109A8000CBFE08B1FDF77AFA0021082201A804F004
:109A900046F844494FF0C87301A8CDE90113FFF718
:109AA000B9FE08B1FDF76AFA3F48002101F0EEFF68
:109AB00008B1FDF763FAAC22002101A804F02FF8E9
:109AC00002238DF8043040F20163384AADF80630C5
:109AD0000123ADF8143006928DF880304FF4967261
:109AE00044F25063CDE923233148324B2A9301A934
:109AF00000F0C7FB08B1FDF741FA2D48012100F045
:109B0000BDFB2D4B2D480093694602F0B5F808B116
:109B1000FDF734FA2A4B2B48019301A9FFF70AFEFF
:109B2000294C2A4B2A49E41AE408240444F003048B
:109B3000054602462046FCF73FFFFCF7F5FD0028EE
:109B4000FBD115B12846FDF719FA1C22002101A806
:109B500003F0E5FF00234FF4A032CDE90132ADF868
:109B600012304FF4F0228DF814301A4B0392069302
:109B70000322194B8DF8102001A8079300F042FE34
:109B800008B1FDF7FBF915492046FCF711FFFCF77A
:109B9000CBFD0028FBD1FFF7DBF8F8E79822002087
:109BA0002AE702005000A0000C2F0020B82200205D
:109BB000D82A00207199020021980200382F002035
:109BC000AD990200202F0020DCDC0200B4DC020092
:109BD0003AE70200D9990200F999020055E702001C
:109BE0000369C1688B429DBF8268D21802F1FF32BF
:109BF00003F1FF3394BF501A581A70472DE9F84308
:109C0000D0E902940546A9EB040840689045204439
:109C10000F46144404D903F059FFEC60BDE8F88303
:109C20004246A4EB090403F051FF6868224607EBA3
:109C30000801F0E72DE9F843C5680646894617464E
:109C40004FF000083469B3687068A54228BFE41873
:109C5000013C621B5C1BBC4228BF3C46944228BFAF
:109C6000144649462844224603F030FFB368254491
:109C7000AB4208BF00253F1BA044A144F560E1D1E1
:109C80004046BDE8F883000010B5114C114AA261AE
:109C90000223C4E90433104BE361A2644FF4007360
:109CA0000E4A0F492362E26400231022E01DA362E2
:109CB0006362E362A3656365E365226503F062FFA7
:109CC0000849204603F05EFF2023A37110BD00BFAA
:109CD000442F00206FE70200CC2F0020BC2F002073
:109CE00078E702007CE70200F8B5184C182300FB67
:109CF000033503FB00402544C46A012C0F46164679
:109D00000FD0022C1AD0F4B92846FFF769FF86421B
:109D100005D8324639462846FFF770FF34462046BC
:109D2000F8BD2846FFF75CFF8642344628BF04464C
:109D3000224639462846FFF761FFF0E72846BDE88E
:109D4000F840FFF777BF0024E9E700BF442F002069
:109D5000FFF79ABF6DDF704779DF70477DDF70478F
:109D600064DF70472DE9F04F85B000250E9CBDF8EB
:109D70003CB0B4F800A00191074690461E46A946A3
:109D80003A884A450DDC45B12388013BA3EB0A0321
:109D90009BB2FF2B3AD806F80A30002005B0BDE888
:109DA000F08F7A6852F82900039000220DF10B0120
:109DB00003A8FFF7D5FF0028F0D19DF80B204245FE
:109DC00021D12288002D14BF0020022002EB0801BF
:109DD000014459451ADC3DB9013292B2019B2280FF
:109DE000B35422880132228022880DF10B013244C3
:109DF00003A8FFF7B5FF0028D0D121889DF80B20DC
:109E00000A442280012509F10109B9E70C20C5E7C0
:109E10002DE9F341089FBDF824801546CDE900786F
:109E2000022204461E46FFF79DFF50B9334610221A
:109E300029462046CDE9087802B0BDE8F041FFF799
:109E400091BF02B0BDE8F0812DE9F04F00231788E3
:109E5000138090F82D3085B006460D46144653B356
:109E6000082F01D80C2027E102A8FFF773FF002874
:109E700040F0228123880822EA54238801339BB2D0
:109E80001B222380EA542088013080B220800622E1
:109E90000DF10901284403F019FE23889DF80820DC
:109EA00006339BB212F0FE0218BF01222380EA544F
:109EB000238801332380B378FBB123880433BB426A
:109EC000D0D802A8FFF748FF002840F0F58023888B
:109ED0000322EA54238801339BB219222380EA54D7
:109EE0002388BDF8082001339BB2E9182380EA5487
:109EF000120A4A70238802332380F2789AB12388A9
:109F0000D91CB942AED80221E954238801339BB24F
:109F100001212380E95423880B449BB22380EA5417
:109F200023880B4423807268AAB12388D91CB942C4
:109F300098D8022192F90020E954238801339BB27A
:109F40000A212380E954238801339BB22380EA54F9
:109F50002388013323803389002B40F0A180338A8A
:109F60005BB1CDE900472B460722032106F1100023
:109F7000FFF74EFF002840F09F80338B5BB1CDE9A7
:109F800000472B461522142106F11800FFF740FF69
:109F9000002840F09180326A002A40F09080D6F884
:109FA0002480B8F1000F30D0B8F804302188981C14
:109FB0008A1C0244BA423FF655AFFE283FF652AF24
:109FC00003336B54238801339BB2FF222380EA546E
:109FD000238801339BB22380B8F80020EA54E918A3
:109FE000120A4A702088023080B22080B8F804201B
:109FF0005AB1D8F8081000296BD0284403F066FD48
:10A000002388B8F804201344238096F82C30002BC2
:10A0100040F09A80307800284ED03388012B58D0F9
:10A02000228802F1020CBC453FF61CAF012805D185
:10A030007378023313449F42FFF414AF023FBF1AF8
:10A04000BFB202A905EB0C00ADF80870FFF786FE61
:10A0500090BB3178BDF80830022900F0BA807278E0
:10A060009A4202D3BB4240F2B280012940F0B38051
:10A07000974293B2C0F0AF80ADF808300821BDF828
:10A080000830FE2B3FF6EEAE22880133AB54228817
:10A09000013292B22280A9542288134423800BE01B
:10A0A000CDE900472B460622022106F10800FFF702
:10A0B000AFFE00283FF453AF05B0BDE8F08FB4F811
:10A0C00000C00CF10603BB423FF6CCAE1188052957
:10A0D00001D80720F0E76FF4486E01EB0E039BB246
:10A0E0004FF27D3E7345F4D95388052BF1D96FF4B7
:10A0F0004860181880B27045EBD94FF6FF70814266
:10A1000003D0834201D09942E3D8052305F80C30EF
:10A11000238801339BB212212380E9542388013321
:10A120009BB223801188E954E818090A41702388FA
:10A1300002339BB223805288EA54E918120A4A700B
:10A140002388023323802AE7B36A002BC1D04FF063
:10A1500000094FF00C0A4FF0160B96F82C305FFAFE
:10A1600089F293427FF656AFB16A0AFB02F201EB25
:10A170000208B8F80430981CFE283FF673AE208819
:10A1800003332B54238801339BB2238005F803B09B
:10A19000238801339BB223808A5AEA54E918120AB1
:10A1A0004A702088023080B22080B8F804205AB16A
:10A1B000D8F8081000298CD0284403F087FC2388A5
:10A1C000B8F804201344238009F10109C5E70921E7
:10A1D00055E7BB42FBD9ADF808704FE730B5C8B1C1
:10A1E000F2B10024651C8D4206DA1588A54212D80A
:10A1F00005196D789D420ED1A14211D9005D48B17B
:10A20000013880B230B10234A3B210FA84F4A14212
:10A2100006DB138030BD055D01352C44A4B2E1E7B7
:10A220000020F7E713B513460022ADF806200DF124
:10A2300006020446FFF7D2FF10B1BDF80630E01861
:10A2400002B010BD72DF704773DF704774DF704774
:10A2500038B5012204460D46B0F81414D0F81004A5
:10A26000FFF7E0FF00B1057004F13C0204F58261E4
:10A2700004F15400BDE83840FFF7E4BF80F8301027
:10A280007047F8B504460F46002975D0002873D0F2
:10A2900091F87A301BB191F89830002B6ED1D7F835
:10A2A000A030042B6AD0D7F89C30042B66D04FF036
:10A2B000000C84F802C007F178060FCE251D0FC5EB
:10A2C0000FCE0FC596E8070085E8070084F830C078
:10A2D000D7F8A4306363D7F8A830A3634FF6FF75AF
:10A2E00004F58263C4F82034A4F82454072261469C
:10A2F00004F2264003F013FC23780BB984F8545081
:10A3000094F82430002B14BFEE231F2304F15501D1
:10A31000C4F81014A4F8143404F214423846FFF7B9
:10A3200093FD40BB94F82430002B14BFEE231F2371
:10A3300004F23121C4F81814A4F81C3404F21C42AD
:10A3400007F13C00FFF780FDA8B9A369A4F84830E5
:10A350004FF480730125A4F85030636920640146EE
:10A3600084F83C50636404F13C0204F15400FFF7AC
:10A3700069FF00B92570F8BD0E20FCE70720FAE759
:10A38000F8B5077804460D46002F00F0068100F26C
:10A390002646817007220021304603F0C0FBE38887
:10A3A00013B1A378012B04D0E3794BB1A378022B2E
:10A3B00006D1636BA3B1012284F82D2408209847AD
:10A3C000334604F22C4113F8012F12B99942FAD105
:10A3D00017466B1E032B51D8DFE803F0050B0F1255
:10A3E00084F82D34ECE7A3791BB194F8243003B939
:10A3F0005FB9E3790BB1002F42D1237A002B41D111
:10A40000637A002B0CBF00250425636BA570002B1D
:10A410003AD0033D012D37D86279AAB394F82E249F
:10A4200092BB84F83024012284F82F240720984717
:10A4300004F13C0518220021284603F070FBE26A73
:10A44000531E0121022B28BF0A4684F8512094F89C
:10A45000242084F83C1032B1A36A581E022828BF79
:10A460000B4684F85230A178002384F85030042938
:10A470001BD8DFE801F0860D314468000025C4E7F1
:10A480000225C2E70325C0E7002384F82F34CFE775
:10A49000C4E91063C4F820340223012284F83C305C
:10A4A000802384F83120A4F84830A378002B6BD0A7
:10A4B000D4F820142A4604F15400FFF7C3FE50B923
:10A4C00094F8301094F85400FFF7BEFE18B9636B8F
:10A4D000002B5ED10020F8BD0223002A84F8313021
:10A4E00014BF0723032384F83C302369A4F84830C1
:10A4F0000023C4F82034E36826646364D5E7636905
:10A500006364A369A4F8483012B1062384F83C3090
:10A510006379B3B194F82E349BB994F8303483B195
:10A52000022384F8503004212046FFF791FE0028D2
:10A53000BBD1052384F8313004F58263C4F820349C
:10A54000B3E70323F6E7E3696364236AA4F84830BA
:10A5500012B1062384F83C30637983B194F82E3429
:10A560006BB994F8303453B1022384F8503004218D
:10A570002046FFF76DFE002897D10623DAE7042373
:10A58000D8E784F8313090E794F85400FFF75EFE86
:10A590009CE794F8310098479CE708209BE70388E4
:10A5A000112B10B50C460AD0262B1FD0102B05D12D
:10A5B000C37B012B02D18388A1F8243410BD002273
:10A5C000838881F82E24B1F824249A42F6D10B799D
:10A5D000002BF3D101212046FFF7D2FE0028EDD059
:10A5E000A36B002BEAD0BDE810401847037A013B6B
:10A5F000012BE3D8897805230131B1FBF3F303EB99
:10A600008303C91AC9B2E6E775DF704776DF704782
:10A610007ADF70477BDF7047034B1A8882420CBF9A
:10A6200018460020704700BFE8310020024B9B69AC
:10A6300003B11847704700BFCC31002073B585B215
:10A640002846FFF7E9FF044670B1164E027A337BC5
:10A650009A420BD200F10A012846FFF7D5FFE8B174
:10A66000112801D0FFF7E2FF02B070BD0023037292
:10A67000337C43B13B212846FFF7C8FF30F0080385
:10A6800001D0FFF7D3FF7369002BEDD000228DF8C6
:10A690000420ADF8065001A89847E5E7237A013376
:10A6A0002372E1E7CC31002037B50B46497A0F4AD7
:10A6B00071B9D2E901141D7A0246002D18BF214656
:10A6C0005868FCF75AFD08B1FFF7B0FF03B030BD82
:10A6D000002119725369002BF8D00122ADF8060051
:10A6E0008DF8042001A89847F0E700BFCC31002086
:10A6F0004B8802889A4213D842889A4210D38088A5
:10A700008A8840F2F313984294BF031AC31A934203
:10A7100006D800F2F310904234BF002001207047A9
:10A72000002070470388122B70B5014659D004D819
:10A73000102B1ED0112B44D070BD502BFCD12F4BB1
:10A74000C288DB899A42F7D1038A022BF4D186882A
:10A750003046FFF761FF05460028EDD001F11200F9
:10A7600000F009FA38BB6868FCF71FFD0028E3D049
:10A7700009E0C37B012BDFD14FF6FF70FFF74CFFE1
:10A78000054620B90420BDE87040FFF74FBF1C4AC2
:10A790008E880680002303721368C0F80A3053685D
:10A7A000C0F80E3010310A30FFF7A2FF134B687269
:10A7B000DB89002BC0D129463046BDE87040FFF749
:10A7C00073BF8088FFF728FF04460028B4D0406894
:10A7D000FCF7EBFC08B1FFF729FF4FF6FF7323806E
:10A7E000AAE786883046FFF717FF05460028A3D062
:10A7F00008310A30FFF77CFF6872DCE7CC310020BB
:10A80000FC310020F8B5064648B305460FCD154F7C
:10A810003C460FC495E8070084E807003068124CF6
:10A820003C60B0B1FFF7F4FEC0B932681368236032
:10A83000536863600D480E4A4FF6FF7303800D4B5B
:10A8400040F8043F0021FCF78DFC002818BF0320CE
:10A8500004E02046FFF7DEFE0028EBD0F8BD0E2016
:10A86000FCE700BFCC310020FC310020E8310020A3
:10A870003DA6020008320020F7B5174601900E46AB
:10A8800091B1019C6CB100252C46294601A8FDF729
:10A89000E8FC18B13946A8B2B04701340135142D8F
:10A8A000F3D1204603B0F0BD0C46FAE70AB1FDF73C
:10A8B000B7BCFDF7CCBC73B50191019C06466CB1E9
:10A8C00000252C46294601A8FDF7CBFC18B106EB64
:10A8D000440301349D800135142DF3D1304634609A
:10A8E00002B070BD2DE9F04703888488103B8CB01E
:10A8F00005460A2B1FD8DFE803F0063F1E1E1E1E6A
:10A900001E1E1E604400314EB368DB430093716825
:10A910006846FDF70BFD009901A8FFF7CCFF0DF18C
:10A9200008094FF00008019B984507D3132C13D951
:10A930000420FCF723FB0CB0BDE8F08739F802AB2C
:10A9400000270137514606EB8700FDF780FC1E2FDC
:10A95000F7D108F10108E6E71D482146FDF760FC44
:10A960001C482146FDF75CFCEB7B022BE3D11A4827
:10A970002146FDF755FCDEE715482146FDF767FC4B
:10A98000D9E7027A15483F2A4FEA1215214694BFAB
:10A9900000220122FFF78AFF022D94BF002201222C
:10A9A0000F482146FFF782FF012D0E4894BF002279
:10A9B00001222146FFF77AFFBDE7037A002BBAD1C7
:10A9C000427A0648C2F3C0022146F3E7283200204B
:10A9D000303200202C32002034320020403200205F
:10A9E0003C320020383200201328014602D80248A9
:10A9F000FDF737BC002070472C32002007B50190CE
:10AA0000FFF7F2FF019930B10448FDF72AFC002856
:10AA100014BF0220012003B05DF804FB3432002093
:10AA200007B50190FFF7E0FF019930B10448FDF749
:10AA300018FC002814BF0220012003B05DF804FBBD
:10AA40003032002007B50190FFF7CEFF019928B101
:10AA5000044803B05DF804EBFDF703BC03B05DF8F8
:10AA600004FB00BF3832002007B50190FFF7BCFFA0
:10AA7000019928B1044803B05DF804EBFDF7F1BB80
:10AA800003B05DF804FB00BF3C32002007B5019025
:10AA9000FFF7AAFF019928B1044803B05DF804EB61
:10AAA000FDF7DFBB03B05DF804FB00BF40320020C0
:10AAB00070B50A4E054630460C46FDF7D2FB58B13C
:10AAC0002846FFF791FF38B10734294606EB84008A
:10AAD000BDE87040FDF7C5BB002070BD28320020E6
:10AAE000F8B50B4F054638460C461646FDF7B9FB40
:10AAF00060B12846FFF778FF40B107343246294657
:10AB000007EB8400BDE8F840FFF7D0BEF8BD00BFFA
:10AB10002832002073B50B4D019204460E460146C3
:10AB20002846FDF79EFB50B1063405EB8404019ADC
:10AB30006068314602B0BDE87040FFF79DBE02B0CC
:10AB400070BD00BF28320020AADF70470023013803
:10AB50000B70042806D8DFE800F00306080A0C0092
:10AB600011230B7070472123FBE73123F9E71223F0
:10AB7000F7E72223F5E7007800F001007047F0B511
:10AB80008B7891B0012B0C4638BF01238DF80E3025
:10AB900005460B88ADF80C300021164668460322A6
:10ABA00002F0BDFF607C6946FFF7D0FFA07C0DF18D
:10ABB0000101FFF7CBFFE27B237B217D43EAC20348
:10ABC000227C43EA02139DF80220002922F0190298
:10ABD00003F0190314BF02210121134361F342035F
:10ABE0001C22002109A88DF8023002F098FF637B37
:10ABF00013F0300F15D002AF03220021384602F0C7
:10AC00008EFFE07C0DF10901FFF7A0FF11238DF805
:10AC100008309DF80A300E97012262F342038DF846
:10AC20000A30637B8DF824301422A37B8DF8253005
:10AC3000002104A802F073FF03AB0493A388ADF8CE
:10AC40001C30A368CDF814D01BB1E288ADF81820F1
:10AC50000893A369002B31D001AF032200213846AD
:10AC600002F05DFFA3691A88ADF82C205A88ADF870
:10AC70002E205A680D97187B0A923946FFF766FF17
:10AC8000A3690DF10501587BFFF760FFA269917A76
:10AC9000137A43EAC103D17A927B43EA01139DF808
:10ACA0000610002A03F0190321F0190114BF022233
:10ACB00001220B4362F342038DF80630E36903B1CE
:10ACC0000C93334604AA09A92846FFF73DFF11B0AB
:10ACD000F0BDA0DF7047A1DF7047ADDF7047B3DF85
:10ACE0007047B4DF704710B50446408800F022FD7D
:10ACF000A0802046BDE8104001F08CBC30B587B084
:10AD000005460C461422002101A802F008FF072383
:10AD100001A88DF80430ADF806500394FFF7E3FF67
:10AD200007B030BD70B586B005461422002101A8D9
:10AD300002F0F5FE4FF6FF739D42ADF806503FD08E
:10AD4000284600F0E7FB1128044633D016D8D8B1C6
:10AD50000B2820D02046FEF785F81A4E1A490246E5
:10AD60001A48361AF608360446F001002B46FBF75F
:10AD70002CFE21462846FFF7C1FF03E043F2020301
:10AD80009842E7D1002216E00E238DF8043001A886
:10AD9000FFF7A9FFF6E70F238DF8043009480B4BA6
:10ADA0000B49C01AC00800042A4640F00200FBF715
:10ADB00003FEECE70122074B28461978FFF790FEC7
:10ADC00006B070BD2CDD020003E80200B4DC020016
:10ADD00083E70200AB320020FFF7A4BF024B034918
:10ADE00018780022FFF796BEAD320020F1AD0200C8
:10ADF0002DE9F047464D88B029780446FFF758FE04
:10AE0000A846064600287CD1204600F0E7FB08282B
:10AE1000054632D016D808B306285BD02846FEF780
:10AE200021F83C4F3C4902463C483F1AFF083F048A
:10AE300047F001002346FBF7C8FD29462046FFF7EF
:10AE40005DFF09E043F20203984205D043F201435B
:10AE5000984259D01128E1D1012546E0314614220B
:10AE600003A802F05CFE102303A88DF80C30ADF8A7
:10AE70000E400126FFF737FFEEE70DF10600FFF762
:10AE80002EFF354601274FF0020A0DF10809BDF8E3
:10AE90000630BB421ED9002249463846CDE903A9F7
:10AEA000FFF71FFFB0B9BDF808303DB942F60525E0
:10AEB0005B1B5D425D410137BFB2E8E742F602121B
:10AEC0009342F8D101AB03AA394620460493FFF719
:10AED00004FF30B1204600F02DFC00F0ABFB002554
:10AEE00003E0BDF80430002BF4D00D4B2A4619784E
:10AEF0002046FFF7F5FD98F8001032462046FFF790
:10AF0000EFFD08B0BDE8F0872046FFF70BFFA3E791
:10AF1000AE3200202CDD020054E80200B4DC020056
:10AF2000AD32002013B5044600F004FC00236A464D
:10AF3000092100F08DFF052805D1044B0122197865
:10AF40002046FFF7CDFD02B010BD00BFA9320020A2
:10AF500008B5084B084918780022FFF7DBFD0246C8
:10AF600030B9064B06491878BDE80840FFF7D2BD56
:10AF700008BD00BFAC320020CDAF0200A9320020D6
:10AF800085AF020037B5044604220021684602F06E
:10AF9000C6FD42F6A623ADF800300A4B18680190B2
:10AFA000012501AA694620468DF80250FFF791FE5F
:10AFB00028B9054B2A4619782046FFF791FD03B0C2
:10AFC00030BD00BF22EA0200A832002070B5012186
:10AFD00086B006462A48FDF77AF90446BFF35F8F2C
:10AFE000002849D1304600F039FA862805461ED09F
:10AFF00017D8A8B3112841D02846FDF733FF214CBC
:10B00000214902462148241AE408240444F001009E
:10B010003346FBF7DAFC29463046FFF76FFE002483
:10B0200003E043F202039842E6D122461AE02146A9
:10B03000142201A802F073FD06238DF80430114894
:10B04000124B1349ADF80660C01AC008000432461E
:10B0500040F00200FBF7B0FC01A8FFF744FEE4E774
:10B06000012402460B4B30461978FFF739FD1CB915
:10B07000BFF35F8F024B1C6006B070BD0122F1E789
:10B08000A43200202CDD0200C9E80200B4DC02007A
:10B0900094E80200AC32002038B503780446A3B926
:10B0A0004088FFF73FFE6588284600F085FA28B102
:10B0B000064B012219782846FFF712FD6088FFF73A
:10B0C00031FFBDE83840FFF743BF38BDAD32002047
:10B0D00037B50378082B044630D1427A72BB057A23
:10B0E000072D1BD0082D2DD0012D27D180886A4631
:10B0F000294601F0EBF808BB019B1B78F3B1A0884F
:10B1000000F046FB4FF6FF73984217D0114B2A46CA
:10B110001978FFF7E5FCFFF761FE0FE0808800F08B
:10B1200037FB4FF6FF739842044607D00A4B0122C3
:10B130001978FFF7D5FC2046FFF7F4FEFFF708FF6C
:10B1400003B030BD054B19680129F7D1BFF35F8FFC
:10B150001A60F3E7AD320020AC320020A4320020A8
:10B1600073B50123ADF8003009238DF80230144B7C
:10B17000002422460E461978CDF8034005468DF886
:10B180000740FFF7ADFC0F4B0F492846A64218BFFA
:10B190001946019100F0CEFA2246694600F0C4FE3D
:10B1A00060B1FDF75FFE094B0949024609481B1AC9
:10B1B000DB081B0443F00200FBF7FEFB02B070BD8E
:10B1C000A93200202CEA020028EA02002CDD02004D
:10B1D00006E90200B4DC020070B503888488502BB5
:10B1E00086B0054638D00ED8352B48D0362B00F027
:10B1F0008C80584B584918780022FFF78BFCFFF7DA
:10B20000EDFD06B070BD522B22D0542BF1D114228B
:10B21000002101A802F083FC112320468DF80430A0
:10B22000ADF8064000F086FAADF8080000F002FA2A
:10B230004A4B204619780022FFF752FC484B204623
:10B2400019780022FFF74CFC01A8FFF74CFDD0E76E
:10B250002046FFF767FDCCE7037B012BC9D1827A3B
:10B26000012AC6D1018942F602139942C1D13D4B50
:10B2700020461978FFF734FCFFF76AFEB9E73A4E2B
:10B2800020463178FFF714FC0028B2D00022317834
:10B290002046FFF725FCEA88B2F5857F0AD072B117
:10B2A0003248334BC01AC0080004324940F0020053
:10B2B000FBF782FB00212046FFF752FF99E76A89DE
:10B2C000012A09D029482A4B2B49C01AC00800047A
:10B2D00040F00200FBF770FBAE89012E07D0234837
:10B2E000234BC01AC008000432462449DEE7E9892E
:10B2F00000222046FFF7EFFC0028DBD1204B32462E
:10B3000019782046FFF7ECFB73E71D4E2046317895
:10B31000FFF7CEFB00283FF46CAF317800222046C7
:10B32000FFF7DEFBEE8836B11048114BC01AC0089B
:10B3300000043246B9E7EA89012A05D00B480C4BD4
:10B34000C01AC0080004D0E7297C003918BF0121C9
:10B35000B1E700BFAB320020D9AD0200AE32002011
:10B36000AD320020AC320020A83200202CDD0200DB
:10B37000B4DC020063E902009DE90200D7E90200A3
:10B38000AA320020AFDF7047B1DF7047B2DF7047ED
:10B39000B3DF704710B50446808800F0F9F960808B
:10B3A0002046BDE8104001F037B90000F0B5204B51
:10B3B000204E93E8030089B001AD85E803004FF605
:10B3C000FF773088B84217D00022294600F0ACFD44
:10B3D000044638B31422002103A802F0A0FB3388EE
:10B3E000ADF81030112C07D0862C07D106238DF82C
:10B3F0000C3003A8FFF7CEFF09B0F0BD2046FDF7E3
:10B4000031FD0D4D33880D4902460D482D1AED08CA
:10B410002D0445F00100FBF7D8FA07238DF80C3016
:10B420000594E6E7308800F0ECFD3080C9E700BF06
:10B43000DCEB0200B032002034DD020030EA020012
:10B44000B4DC0200044B1A884FF6FF739A4201D015
:10B45000FFF7ACBF704700BFB03200202DE9F347C3
:10B46000804600F067F94FF6FF739842074648D0D0
:10B47000254E264BDFF898A0F61AF608360446F05B
:10B4800001064FF001094A466B460821384600F094
:10B4900021FF09F101091FFA89F9054660BB0199ED
:10B4A0000A46032342F8043B06314046FFF76EFF8D
:10B4B000044648B93A460821384600F0CFFF044612
:10B4C000204602B0BDE8F0870C2813D0052800D133
:10B4D0002C460821384600F06FFF40B1FDF7C2FC52
:10B4E0003A46034651463046FBF76FFA0324002DD7
:10B4F000C9D1E5E70125ECE7072814BF04460C2471
:10B50000DEE743F20204DBE734DD0200B4DC0200D4
:10B5100085EA02002DE9F341054600F00BF94FF6EC
:10B52000FF73984222D10024032627464FF00108DA
:10B530003346224639462846FFF726FF04282BD0FB
:10B54000082830D00B2828D116F0020319D1E7B90A
:10B55000FCB91648164B17491B1ADB081B042A4670
:10B5600043F00100FBF728FA0B2019E06A46082196
:10B5700000F0ACFE0028D6D1019B9C881E689F1D60
:10B58000D4E701264FF00008D2E703261C461F46E9
:10B59000F8E703263C46F5E71120B8F1000FE3D0A9
:10B5A00002B0BDE8F0810020F7E700BFB4DC020084
:10B5B00034DD020004EB02001FB50DF10703039315
:10B5C00000F0B8F802AA012100F080FE20B9039B28
:10B5D000187805B05DF804FB0020FAE770B5054661
:10B5E0001048FFF7D5FE70B90E4C43F203062188D0
:10B5F0004FF6FF722846FFF7C5FEB04211D12388EF
:10B6000001332380F3E7FDF72DFC074B0749024682
:10B6100007481B1ADB081B0443F00100FBF7CCF9B9
:10B62000032070BDB232002034DD02007CEB02004A
:10B63000B4DC020013B5074A044692E803006B46E7
:10B6400083E8030000221946204600F06DFC02B09A
:10B6500010BD00BFE4EB020046DF7047421E00F160
:10B660000F0312F8010F10B99A42FAD17047012066
:10B67000704708B570B171B103780A78534013F080
:10B68000FE0F08D106220131013002F0ECF9B0FAC8
:10B6900080F0400908BD0020FCE72DE9F04700F1EB
:10B6A00001084F1C06460D4600F1110901F1110A6F
:10B6B00010223946404602F0D6F90446D0B9404639
:10B6C000FFF7CCFF18B13846FFF7C8FF04465146D4
:10B6D0004846FFF7CEFF737C03F0FC03042B05D034
:10B6E0006B7C03F0FC03042B18BF044604F001003C
:10B6F000BDE8F0870024EAE730B585B004460D4682
:10B7000000F0DCFB02AA0DF10601072000F0DEFBD1
:10B7100010B94FF6FF700BE0BDF80630AB42F1D028
:10B7200003992046FFF7B9FF0028EBD0BDF80600CB
:10B7300005B030BD132810B5044602D94FF6FF708E
:10B7400010BDFFF751F90028F8D00A20014B4443FF
:10B75000185BF5E7B4320020132838B504460D46CF
:10B7600002D943F2020038BDFFF73EF90028F8D0B5
:10B7700006480A2303FB040050F8023F2B6083882D
:10B78000AB808379AB710020EDE700BFB4320020BD
:10B790004FF6FF7398422DE9F04105460CD00C4F4F
:10B7A00000244FF00A0808FB04F3A6B2DB5BAB42AF
:10B7B00005D00134142CF6D14FF6FF7604E0304664
:10B7C000FFF712F90028F4D03046BDE8F08100BF41
:10B7D000B4320020038843B9821C00F10A0312F836
:10B7E000010B10B99A42FAD170470120704710B589
:10B7F0000446FFF7EFFF58B122880B889A4208D120
:10B8000008220231A01C02F02EF9B0FA80F04009A3
:10B8100010BD0020FCE71FB5044600F04FFB02AA54
:10B820000DF10601072000F051FB10B94FF6FF7033
:10B8300007E0039920464631FFF7D9FF18B1BDF85C
:10B84000060004B010BD039920462A31FFF7CFFF50
:10B850000028E4D0F3E7000013289FBF0A235843D1
:10B86000014B1952704700BFB432002038B505466D
:10B87000FFF78EFF0446284600F0A8FD38B9132CC8
:10B8800005D80A235C43024B4FF6FF721A5338BDAA
:10B89000B432002070B58CB014466A460D4600F1F3
:10B8A0001003164613F8011D02F8011B9842F9D146
:10B8B0000D22002104A802F032F92B788DF81F30F8
:10B8C0006B788DF81E303046AB788DF81D30FFF761
:10B8D000C3FE9DF82F3023709DF82E3063709DF8C5
:10B8E0002D30A3700CB070BD30B5037803F0FE03AB
:10B8F000042B85B004460D4618D1411C032201A833
:10B9000002F0E4F80322211D03A802F0DFF802AAE6
:10B9100003A92846FFF7BEFF032202A901A802F0EF
:10B92000A2F8B0FA80F0400905B030BD0020FBE776
:10B9300030B50388102B93B04ED1041D0FCC07AD4A
:10B940000FC50FCC0FC594E807009DF8203003F019
:10B95000FE03062B85E8070009D000F0AFFA9DF83A
:10B960002030032B4FEA530204D9022A3DD04FF670
:10B97000FF7310E002AA0DF10601072000F0A6FAFD
:10B980000028F4D0039908A81131FFF772FE0028AF
:10B99000F0D0BDF80630BDF81C4018480A226243BA
:10B9A000811883529DF8262008980A724FF6FF727C
:10B9B000C1F802009342BDF82400C8800CD0ADF855
:10B9C0000C3002A80023ADF80A408DF8083000F0D2
:10B9D00025FE02A8FFF760FB13B030BD039908A84D
:10B9E0000131FFF781FF0028D3D102AA0DF1060132
:10B9F000072000F06BFA0028F0D1B8E7B43200203D
:10BA000090DF7047A5DF7047B5DF70477FB5002333
:10BA1000ADF80810ADF80A106A4602A9064603936D
:10BA20000093ADF80430FFF7EBFF054600B3124B6F
:10BA3000124CE41AE408FDF715FA240444F001045A
:10BA400003460F4932462046FAF7BFFFBDF80020F3
:10BA5000BDF8023052EA030103D00A492046FAF742
:10BA6000B4FFBDF804201AB107492046FAF7A4FF35
:10BA7000284604B070BD00BFB4DC0200FCDC02004C
:10BA800004EC02004EEC02008DEC020078B14FF0A5
:10BA9000171303601B2303711723C380038141F62F
:10BAA0001B320023016143818281184670470E20BA
:10BAB0007047000013B5034680880C46B8B91A8851
:10BAC000242A00F0958014D8112A71D0232A00F07E
:10BAD0009D80102A3BD0A37A4BB1E1880020FFF76C
