:020000022000DC
:1060000000000120756302005D6302005F6302000F
:106010006163020063630200656302000000000028
:1060200000000000000000000000000067630200A4
:1060300069630200000000006B6302006D630200F0
:10604000219402006F6302002D9802006F6302002A
:106050006F6302006F630200DD9602006F6302004F
:106060006F6302006F6302006F6302006F630200E0
:106070006F6302006F6302006F6302006F630200D0
:106080006F630200397602006F6302006F630200E3
:106090006F6302006F630200F1DD02006F630200B4
:1060A0006F6302006F6302006F6302006F630200A0
:1060B0006F6302006F630200000000000000000038
:1060C0006F6302006F6302006F6302006F63020080
:1060D0006F6302006F6302006F6302000000000044
:1060E00000000000000000000000000000000000B0
:1060F00000000000000000000000000000000000A0
:10610000000000000000000000000000000000008F
:10611000000000000000000000000000000000007F
:10612000000000000000000000000000000000006F
:10613000000000000000000000000000000000005F
:10614000000000000000000000000000000000004F
:10615000000000000000000000000000000000003F
:10616000000000000000000000000000000000002F
:10617000000000000000000000000000000000001F
:10618000000000000000000000000000000000000F
:1061900000000000000000000000000000000000FF
:1061A00000000000000000000000000000000000EF
:1061B00000000000000000000000000000000000DF
:1061C00000000000000000000000000000000000CF
:1061D00000000000000000000000000000000000BF
:1061E00000000000000000000000000000000000AF
:1061F000000000000000000000000000000000009F
:10620000354936480A1A02D0072291438D4634494F
:1062100034480A1A06D00722914381F309880222E2
:1062200082F3148830483149314A00F044F831484B
:106230003149324A00F03FF831483249324A00F0E1
:106240003AF832483249334A00F035F83248334997
:10625000334A00F030F833483349344A00F02BF821
:1062600033483449344A00F026F83448344900228F
:1062700000F02CF833483449002200F027F8334866
:106280003349091A082902DB002202604160314AC1
:1062900090471F481F49884205D00268043003B464
:1062A000904703BCF7E700208646EC46002000211B
:1062B000294A9047FEE7884207D0521A05D0037852
:1062C00001300B700131013AF9D17047884202D098
:1062D00002700130FAE770470000012000E0002062
:1062E000000001200000012094020300842200200D
:1062F000BC220020D0630200D0630200D8E3020079
:1063000094020300842200208422002058E5020029
:1063100058E5020058E5020058E5020058E5020081
:1063200058E5020058E5020058E502009202030019
:10633000CC020300BC220020BC220020BC22002092
:10634000E8340020E8340020E8340020E83400205D
:10635000E85400209D6302006D9F0200FEE7FEE707
:10636000FEE7FEE7FEE7FEE7FEE7FEE7FEE7FEE705
:1063700000F002B8FFF7FCBF0F484FF00701884359
:1063800085460E4880470E48016841F4700101605F
:10639000BFF34F8FBFF36F8FFFF732BF09480A4932
:1063A0000A4A884207D0521A05D0037801300B7090
:1063B0000131013AF9D1704700000120C18E02007D
:1063C00088ED00E044E502007022002084220020D5
:1063D0007047000007B5044B0093044A402300F0C7
:1063E00032F803B05DF804FBF1630200BD22002027
:1063F0002DE9F84388461446B2B10F4B0F4E0325E2
:10640000002743F00109224608EB0701002003F0B2
:10641000BFFF0744241A48B933782BB14FF47A40B0
:10642000C847013D02D13570BDE8F88301233370C0
:10643000002CE8D1F8E700BF60E50200BC22002094
:10644000704703F0D9BFF0B595B01D461646084613
:106450000C4602F03DFC1A9B0D93CDE90865002522
:106460002B46082205A920460A958DF82C500C953C
:1064700002F04BFC079B0293069B03939DF814309C
:106480008DF8115003F00302012A1DD1BDF814202C
:10649000059DC3F3C203C2F383168DF81030B2001A
:1064A00008230EA9204602F030FCC5F3952508AB61
:1064B0000093324602AB0EA9284600F033FB20467B
:1064C00002F00AFC15B0F0BD022AF8D1BDF8165052
:1064D000C3F3C203C5F389158DF810300827082DC2
:1064E0002E4628BF08263B4632460EA9204602F01B
:1064F0000CFCAD1B08AB02AA31460EA8374400F0D5
:1065000075FB002DEBD1DAE708B5FFF79AFF0448D9
:10651000042100F071FA034B01225A7108BD00BF3B
:1065200034E5020084220020037813F0040216D020
:1065300003F00303012B03D0022B09D00120704785
:106540000A6800880232C0F3831002440A60F5E74B
:106550000B684288023303EB92130B60EEE71046A0
:10656000704700002DE9F04F87B000230446861CD9
:106570000DF107000F4615468DF8073000F0EEFECE
:10658000404A51683960936803F580735B1A9246FC
:1065900002F21C4702F5836902F21448B3421AD38F
:1065A0000020002D69D004F00F039B0143F0050388
:1065B00063F30F00DAF80430DAB203321E444AF80B
:1065C00022009DF80700CAF8046000F0EBFE0120ED
:1065D00007B0BDE8F08F0121384601F0BFFE484604
:1065E00001F0D4FE404601F0D1FEDAF80800029036
:1065F000C0B203300AEB800002A9FFF795FF029BAF
:1066000030BBDAB20AEB8202D16803919A1C0133E3
:10661000DBB20AEB83030292D3F80CB001F0030360
:10662000012B22D0022B15D08346404601F0B1FE4B
:1066300010B1029BCAF808305946384601F08EFE68
:10664000DAF80830DAF8042003F580739B1AA5E71E
:10665000D8B2CEE7BDF80E30C3F3891303334FEA47
:106660001B4B02EB93030293DFE7BDF80C30C3F33F
:1066700083134FEA1B4B1344F5E7A40544F00600CF
:1066800098E700BFD0230020064B074810B5012231
:106690001A7002F0D6FA044610B9044802F07EFBE4
:1066A000204610BDD023002058E402009CE50200E3
:1066B00030B50A4C71B10A4A0A49121BD2080023AC
:1066C0009A4201D1002030BD31F82350854202D0DA
:1066D0000133F5E7034654F83300F4E76CE40200B5
:1066E00034E5020084220020094B013903EBC0008D
:1066F000032909D8DFE801F00A02040604207047E4
:106700000079704740797047002070470220704739
:106710006CE40200034BD3E90130C31A58425841DC
:10672000704700BFD02300202DE9F04186B0FFF76D
:10673000F1FF0546002840F0E680744CC4F81804C8
:10674000BFF34F8FA3680293DBB2033304EB8300E4
:1067500002A9FFF7E9FE029B18B1D4F81824002A19
:1067600055D0DAB2991C013304EB8202DBB204EBA0
:106770008303D268DB68049302F00303022B0392C5
:1067800002914FD1BDF80E306148C3F38917502FE5
:106790003E4628BF502666F38F1306F10801ADF878
:1067A0000E3002F066FA0546002800F0978002F0ED
:1067B0008FFA002303A90822284602F09CFA0299C6
:1067C000CB43DBB20133C9B20331B6EB830F4FEADF
:1067D000830804EB810122D908234246A6EB080670
:1067E000284602F088FAF6B24A4908F10803324610
:1067F000284602F080FA029B033703EB97070297C3
:10680000D4F81834002B41D1D4F8106451E06268F8
:106810009A4299D8A260284606B0BDE8F0810823C4
:106820003246E5E7012B59D1BDF80C303848C3F3A7
:106830008311062928BF062161F3891302318900DB
:10684000ADF80C3002F015FA0546002846D002F0EB
:106850003FFA0023082203A9284602F04CFA00263A
:10686000BDF80C20C2F38312B300964203F1080373
:10687000C6D202994A1CC9B20331029204EB8101CB
:106880000422284602F037FA0136E9E7284602F0EA
:1068900023FAFFF73FFF80F00100C5B2BBE7F368C2
:1068A0005B7923B1336829461B6830469847F36803
:1068B0001E68002EF3D1284602F00EFA0DF10700F3
:1068C0008DF8076000F04AFDD4F818340BB9029B2C
:1068D000A3609DF8070000F065FDDAE7D4F81044E6
:1068E00054B90D4B0D480E49C01AC008000440F0C1
:1068F000020000F05DF8CCE7236820469B689847CB
:10690000E3681C68ECE7002585E700BFD023002082
:1069100058E40200DC2300206CE4020094E402004E
:1069200084E502002DE9F34704460E46924601A98C
:10693000012218469946FFF715FE1B4F10B3019D23
:106940004FF00008AA1CC84508EB020123D11748E4
:10695000002101F0BCFC80F31000000440EA144068
:10696000E4006B1C04F03804DBB2EDB244F0010427
:1069700007EB8303033544EA881444EA8624D8608D
:1069800047F825403B781BB1FFF7CEFE0028FBD12E
:1069900002B0BDE8F087C9B207EB81015AF8283090
:1069A000CB6008F10108CEE7D0230020EC270020BF
:1069B00000231A46FFF7B6BF07B50123019201AACB
:1069C000FFF7B0FF03B05DF804FB07B5CDE9002386
:1069D00002236A46FFF7A6FF03B05DF804FB1FB56C
:1069E000CDE90123069B039301AA0323FFF79AFF36
:1069F00005B05DF804FB000030B50F49D1F8102454
:106A000003460020144634B9DC6820714AB9C1F845
:106A10001034226030BDE4682579854206D02468B0
:106A2000F1E7D268116821601360F3E701300A28AA
:106A3000E8D14FF0FF30EDE7D0230020084A38B509
:106A40000123D2F8104413701D4604B938BDE36821
:106A50005D71236820465B689847E3681C68F4E72B
:106A6000D023002007B503460846197A052911D01E
:106A70005B7A2BB1094A0A49019001F0EDFC0198BB
:106A80000849019001F0E8FC019803B05DF804EBBF
:106A900001F0D7BC002AF8D0F2E700BFA8E5020059
:106AA000ADE50200CDE5020030B5C38885B00446EF
:106AB0000D4633B1144A00921449154A284601F094
:106AC000CBFC217A05291DD0637A4BB1A088FFF752
:106AD0000BFE104B104953F82020284601F0BCFC57
:106AE000227A0E4BA08853F8222003920021FFF750
:106AF000DFFD039A0A490346284605B0BDE8304049
:106B000001F0AABC05B030BDA8E50200B8E502005E
:106B1000B0E5020034E60200ADE5020058E60200EE
:106B2000D0E502002DE9F04385B01F460C9D0023FF
:106B300095F80C902B7306460C469046294638462D
:106B4000FFF7B2FFB8F1060F09D8DFE808F004122A
:106B5000181F283340003146284601F07DFC0022F2
:106B600029463846FFF77EFF85F80C9005B0BDE852
:106B7000F08322683146284601F06EFCEFE7D4E945
:106B800000233146284601F067FCE8E7A36800933C
:106B90003146D4E90023284601F05EFCDFE7E368D4
:106BA0000193A36800933146D4E90023284601F0FD
:106BB00053FCD4E723690293E3680193A36800932D
:106BC0003146D4E90023284601F046FCC7E7636953
:106BD000039323690293E3680193A368009331460A
:106BE000D4E90023284601F037FCB8E708292DE94D
:106BF000F74F80460E4617461C463CD8002593F8B2
:106C00000C901D7319461046FFF74EFFDFF888A061
:106C1000DFF888B0AE4231D918F805205946204631
:106C200001F01AFC0135082DF4D11949194DDFF88E
:106C300070A0204601F010FC4FF0000B5E4522D9F9
:106C400018F80B207E2A05D81046019207F0DEFACC
:106C5000019A00B92E225146204601F0FDFB0BF1AE
:106C6000010BBBF1080FE9D1012221463846FFF79D
:106C7000F9FE84F80C9003B0BDE8F08F5146204631
:106C800001F0EAFBCEE72946204601F0E5FBE6E706
:106C9000E4E50200E2E50200E0E50200DAE50200D8
:106CA000E6E50200C30710B507D4F023054A400803
:106CB000145C23401943115410BD0901C9B20F23BC
:106CC000F4E700BFB828002030B5094B1C78094B09
:106CD000196800239C4202DC0022104630BD11F8E6
:106CE0003350854201EBC302F7D00133F2E700BF16
:106CF00088280020C828002013B504460191FFF71A
:106D0000E3FF38B143682BB10199204602B0BDE8DA
:106D10001040184702B010BD034B04481968002208
:106D2000490800F02ABA00BF8C28002090280020D3
:106D300010B5C0B2FFF7C8FF0446007802F0C4FCEB
:106D400063785A1E53425341834208D1044BD3E91E
:106D50000023134303D1BDE81040FFF7DDBF10BD92
:106D6000B028002037B54308354AD35CC2074CBF72
:106D70001B0903F00F0304460D46042B35D8DFE84A
:106D800003F003252C383C0079B30121FFF78AFF7B
:106D900000230DF107008DF8073000F0DFFA012025
:106DA000A4F12003C4F12001264A20FA01F100FADF
:106DB00003F30B43A040D2E9004120430B43C2E957
:106DC00000039DF8070000F0EDFA0EE0002918BF5F
:106DD00002212046FFF766FF07E041B10321FFF7DC
:106DE00061FF01212046FFF787FF03B030BD01217D
:106DF000EFE70029F9D10421EBE709B10321E8E726
:106E0000FFF750FF29462046FFF776FF0DF10700F8
:106E10008DF8075000F0A2FA0120A4F12003C4F17C
:106E20002001084A20FA01F100FA03F30B43A040C5
:106E3000D2E9004124EA000021EA0303BFE700BFD2
:106E4000B8280020B02800202DE9F041124E134F41
:106E500000243378A34208DC114BD3E90023134309
:106E600018D0BDE8F041FFF757BF3D6805EBC408F7
:106E700015F8340002F028FC98F801305A1E5342ED
:106E80005341181A4142414115F83400FFF76AFF97
:106E90000134DEE7BDE8F08188280020C828002002
:106EA000B0280020092AF7B505460C4616463CD9FD
:106EB00002F04AFBD8B11E4B1E481D601E4B1F4FEF
:106EC0001C701F4B002110221E6007F000FA1D4BA2
:106ED00000200021C3E90001013CE4B20326FF2C9D
:106EE0000BD1194A1948002100F03CF903E002F0E7
:106EF000EDFA0028DFD003B0F0BD9DF8063015F89C
:106F000034008DF8046005EBC40223F007038DF80C
:106F1000063001A993788DF805303A4602F01EFB41
:106F2000013CE4B20028DAD0E5E70720E3E700BF40
:106F3000C8280020B828002088280020316D0200D1
:106F40008C280020B0280020496E020078E602005C
:106F500070B5084D084E00242B789C4201D30020C8
:106F600070BD3368012113F8340002F069FB01346D
:106F7000F2E700BF88280020C82800201FB50021A4
:106F8000039001AA44F20100CDE9011100F004F8D8
:106F900005B05DF804FB000010B572B6FFF74EFDBA
:106FA000FFF7C2FB0028FBD1104B114C1149E41A2A
:106FB000E408240444F00100FFF7FAFC0E4B1B68C0
:106FC000DB0700D500BE0D4944F00200FFF7F0FCDE
:106FD000BFF34F8F0A490B4BCA6802F4E0621343B8
:106FE000CB60BFF34F8F00BFFDE700BF6CE4020032
:106FF00094E402007CE60200F0ED00E088E6020086
:1070000000ED00E00400FA05D0E90223D1E9020115
:10701000994208BF90422CBF012000207047000019
:1070200008B50B4800F0F1FA0A4B0B49D3E90023ED
:107030001218D1E9000143F100038B4208BF8242DC
:1070400003D212F1807243F100031046194608BDC5
:107050008C220020D02800204829002037B5054682
:107060000C460A4801A901F066F860B10570446059
:1070700001A9064801F089F818B1054800F0CAFADC
:10708000002003B030BD0420FBE700BF34290020FE
:107090008C22002038B5184B1B78044613B9002504
:1070A000284638BD0028FAD0037F03F0FF05002BE7
:1070B000F5D0FFF7B5FFD4E90223994208BF90420B
:1070C00014D3236903B92377D4E90530984721699C
:1070D0000029E4D0237F03F0FF05002BDFD0D4E9A3
:1070E0000223521843F10003C4E902230348214656
:1070F00001F073FED4E700BFD8280020A4E6020008
:1071000013B5114B114918680190082310485822F3
:1071100000F0FEFF044698B90E4A0F4801A900F09E
:1071200065F9044660B90C48012100F051FA0123C9
:107130000A4A0948194600F0B3F9094B01221A70AE
:10714000204602B010BD00BFA0E60200DC280020EF
:1071500034290020C57102008C220020FFFF7F002F
:10716000D82800203AB103685A614A1E5142514161
:107170001961002070470720704738B5037F044627
:107180000D4683B98261FFF74BFF2369401941F136
:107190000001C4E9020103B1256121460020BDE8D8
:1071A0003840FFF75BBF002038BD0023014603775E
:1071B0000120FFF753BF0000014800F026BA00BFCE
:1071C0008C2200202DE9F04F85B0804600F008FAAF
:1071D00040B15A4AD2E9003113F1807341F1000104
:1071E000C2E900310021404600F009FA38B1544E9E
:1071F000336823B13068FFF74DFF0023336001216E
:10720000404600F0FCF920B1FFF70AFF4D4BC3E9FF
:1072100000014D484A4F4D4EDFF8389103A900F068
:10722000C4FF002845D1DFF82491454EDFF828A19E
:10723000484601F0E8FD3368002875D07BB133681B
:10724000D0E90201D3E90223994208BF90422DD22E
:1072500033681B7F1BB13168484601F0BEFD4846CC
:1072600001F0CBFDD0E902B307460193FFF7D8FE4A
:10727000019BBBEB000463EB0105012C75F10003DE
:1072800045DBB4F5350F40D3FFF796FF304A024493
:107290004FF496030021504600F022F900283ED119
:1072A000336813B9404600F0F3F8376005B0BDE825
:1072B000F08F0378012B1DD0022B09D14FF0000A6B
:1072C000304601F09AFD002834D080F81CA0F7E782
:1072D0003BB941680B7F23B901230B77304601F09E
:1072E0007CFD03A9184800F08BFF03A9164800F0A5
:1072F0005CFF96E741683B68994202D100233B60FE
:10730000EFE7304601F082FDEBE7BA68C0E7002105
:10731000504600F06AF93846FFF7BCFE01E00D2840
:10732000F9D00023336083E7002BBFD1404600F043
:10733000B3F8BBE7012389F80030D2E7D02800205A
:10734000502900204829002034290020A4E602000A
:10735000FFFFB400D82800208C22002070B5EFF386
:10736000108672B60C4A946801239CB993600B4B4B
:107370000B4DD3F8801029401160C3F88050D3F82A
:10738000841051604FF0FF32C3F88420047006B9B6
:1073900062B670BD0370FAE75429002000E100E0F6
:1073A000FC06FFBD084B9A6810B55AB150B9EFF30F
:1073B000108172B6054A1C6814605C68546098605D
:1073C00001B962B610BD00BF5429002000E100E001
:1073D000435882B03BB10023435043580193019B73
:1073E000012002B070471846FBE70000F8B5204BBB
:1073F0004479204D43F824201F4A204B05EBC40458
:107400009B1A2279DB081B0432B143F002001C49AD
:10741000FFF7CEFA0820F8BD02680C88C2F80845CC
:1074200090F904608A7804795201002ED2B219DBF7
:1074300014498F1987F800230122760904F01F04EC
:1074400002FA04F441F82640427905EBC201012416
:1074500045F832000C7143F003000B49FFF7A8FA1E
:107460000020D8E7094904F00F040A55ECE700BFF3
:1074700068290020602900206CE40200A4E40200D6
:10748000B0E6020000E100E0D2E6020014ED00E008
:10749000036801221A607047036801225A6070472E
:1074A00073B501F15005AD000068ADB24FF4803402
:1074B0008C400026C0F80843C0F84843465101F507
:1074C000A8714559019522F07F42019D40F8212085
:1074D000C0F844430BB1C0F8044302B070BD0000D3
:1074E0002DE9F74F0D4622F07F4402684FF48037B4
:1074F00005F150068F408046B60002EB8500C2F8C9
:107500004873B6B2C2F80873D2F8041599464FF022
:10751000000BD0F84035C0F8401542F806B05B1AB1
:107520009259009223F07F43012B009A4FEA850A7B
:107530000CD1264B4FF4806043F001039847D8F8F4
:10754000003043F806B09B590193019BD8F8001016
:10755000D1F80465C1F84473A31B23F07F43012BCA
:107560001CD11A4B05F5A875013443F0010341F80D
:1075700025404FF480609847D8F80030D3F80435A0
:107580009E4209D1D8F800300020C3F84473C3F8F4
:10759000047303B0BDE8F08F0D20FAE78A44C9F107
:1075A000FF13CAF84045D1F80405221A013A22F027
:1075B0007F4203F57F439342EED3002AE2D10134A8
:1075C000CAF84045D1F804359842DAE7F0E60200FF
:1075D00003680222C3F8442309B1C3F804237047A7
:1075E00000684FF48271FFF7F3BE4FF4803303FA63
:1075F00001F10368C3F84813C3F80813704750310A
:107600008900006889B2FFF7E3BE0368D3F8040578
:107610007047000090F90430002B09DB5A09012162
:1076200003F01F0301FA03F34032024941F822300C
:10763000704700BF00E100E0024B034A1B6810687E
:10764000184700BF682900206029002070B5064D4A
:107650000646002455F8043B0BB1304698470134E8
:10766000042CF7D170BD00BF78290020033080B210
:1076700040F2FE33984230B51FD8134B1A783AB90E
:107680001C895D892C440444A4B2B4F5806F0AD9E6
:107690001A7DAAB99A8BDC8B2244024492B2B2F5CD
:1076A000806F0DD801220A801446142202FB043395
:1076B0005A8910445881002030BD48F20860FBE729
:1076C00048F20660F8E700BFAC2900200B4A0C4BDB
:1076D0005188142000FB0131CB6833B9042049687C
:1076E00010700122074801F013B9074905231370F0
:1076F00002238B80012209680023F3E790290020F0
:10770000AC29002070220020E829002007B50023C2
:1077100005490093054A09680548082301F062F805
:1077200003B05DF804FB00BFE829002004E7020075
:107730007022002007B5002301460093034A044845
:10774000082301F04FF803B05DF804FBFCE60200EB
:107750007022002013B500230C4600930146084A0E
:107760000848042301F03EF838B90749142303FB05
:1077700004140123237402B010BD48F20D60FAE72F
:10778000F8E6020070220020AC29002037B50A4834
:107790000A4B42689C881968538803250333057097
:1077A0009BB2002000909B0001EB8401044801F093
:1077B00019F803B030BD00BF90290020E82900204F
:1077C0007022002010B50146044800F0B4FC1C22D1
:1077D0000446002106F07BFD204610BDD429002080
:1077E0004388033300EB830399420BD382884FF61F
:1077F000FF739A4208D0038833B18068431C584213
:1078000058417047022070470120704738B5144B2B
:1078100014220D4602FB00302B68446804F58051A9
:10782000A3B15C88033403EB84048C4215D2236833
:10783000013312D02046FFF7D3FF012808D00228D9
:107840000BD00028F1D12C60012038BD0834ECE7C2
:107850006388033304EB8304E7E70020F5E700BF08
:10786000AC290020426873B504460D466AB3244B28
:10787000D9688A4229D31B699A4226D812F0030399
:1078800023D120490089098988421ED12068916846
:1078900088421AD11C494868824203D900F58050B9
:1078A00082420DD389698A420CD901F580518A42FE
:1078B00008D201222A80B3FA83F0400902B070BDD9
:1078C0001A46F7E748F20963F5E700232B801E46C6
:1078D0000196288801A9FFF799FF30B92B88013359
:1078E0009BB2012B2B80F3D9E8E7019B22689968B2
:1078F0009142EED16360034B1B892381DEE700BF19
:107900007022002090290020AC2900202DE9F843A6
:107910001C461D4B1B7806460F46154673B382B3B3
:107920007CB3DFF86C804FF01409A388012B02D9D7
:1079300048F2096020E009FB03F318F803302BB983
:10794000A0882146FFF762FF20B92060A388013399
:10795000A380EAE723681EB1998832889142EFD16B
:107960001FB119883A889142EAD19A68C5E9002383
:10797000064B1B892B810020BDE8F88348F201608B
:10798000FAE748F20460F7E78829002090290020F0
:10799000AC29002008B5074B5888191DFFF736FFA2
:1079A00018B1BDE80840FFF7F1BEBDE80840FFF799
:1079B0008DBE00BF902900202DE9F04FA44FDFF8C5
:1079C000B49289B00646B8463B6823B9A1484946F7
:1079D00000F0EBFB3860D8F8005029784B1E052BDF
:1079E00007D8DFE813F022007C007C000E010E01B6
:1079F000660148F20E641422002103A806F067FC19
:107A000041F61D539C4208BF0024D8F8003004946E
:107A10001A78013A052A00F2F881DFE812F0E40151
:107A2000E8010802180224022E022EB18A4B00221D
:107A30005A604FF40644DEE72B79032B1DD8DFE8AC
:107A400003F015022B3685490B78022B08461AD015
:107A50000B7D022B4FF0010317D114225343C218A0
:107A60000020C8545068FFF765FE03E001232B7126
:107A7000FFF74CFE002800F0BE80774B00225A60D2
:107A800048F20D64B7E70023E7E7734A1370002359
:107A9000536041F61D54AEE771497248002302223B
:107AA0002B718A800968012200F032FFE2E76C4CFA
:107AB00000262E712068694DFFF73CFE6A4BD4F812
:107AC00000C05A8814235343EA18EE5451682160C9
:107AD000A188C2F804C011810222A280CAE7B5F8C9
:107AE00014A0AA7DDFF874B1AEB1022AEB8806D9E2
:107AF000142101FB0AB1DA1C088902440A8114220C
:107B000002FB0ABAC3F57F43BAF80A20FD331344D7
:107B1000AAF80A308DE7142303FB0AB318895C68BE
:107B200004EB8004062A69D8DFE802F0274E3644C9
:107B30001D5A040041F61D54AA7DEB88022A06D97D
:107B4000142101FB0AB1DA1C088902440A811422BB
:107B500002FB0ABAC3F57F43BAF80A20FD33134487
:107B6000AAF80A3047E74148414900234360AB691E
:107B70000360FFF777FE00285BD00223AB7500237C
:107B800000930423EA182146364800F02BFE002813
:107B900031D048F20D64CFE72B69002B14BF0323CB
:107BA0000123AB750023009305F10C02042304F1BB
:107BB0000801E9E70123AB750022EB8800922A69EE
:107BC0009B0004F10C01DFE703290CBF052306230A
:107BD000AB7500230093042305F10802E118D3E7F5
:107BE0000623AB75224B1988204B5868FFF7B2FD6E
:107BF00004460028A0D109B0BDE8F08F48F20E6419
:107C00009AE7002E7FF415AF2B79012B34D0022B8D
:107C10003FF43FAF002B7FF4ECAE02232B710DF14C
:107C20000A01EB68039303A8CDE90466FFF71AFE87
:107C300010B948F20964DEE60498BDF80A1083889A
:107C4000EB8003882B81FFF785FD044627E000BF0A
:107C5000A8290020D429002088290020AC29002050
:107C6000E829002070220020902900206C290020A3
:107C7000F0290020A0290020814B03AA3146A81D2D
:107C8000FFF744FE7E4B044668B999880498FFF7D5
:107C900061FD044648F209639C423FF4FAAE002CB1
:107CA0007FF4A9AEA7E708223146184606F00FFB7D
:107CB000F0E7002E7FF4BDAE724B1A7BB2B11E739B
:107CC0001A78013A062A3FF694AE01A151F822F043
:107CD0007B7D0200A17D0200BF7D0200C57D020008
:107CE000F3790200CB7D0200DD7D02001A78072ABD
:107CF000E6D801A151F822F0197D0200C17C0200F2
:107D0000C17C02003F7D0200537D0200777D0200AE
:107D1000777D02003B7D02001A895B4901321A819E
:107D200000225A801A730A78B2FA82F252099A72C1
:107D30000A7DB2FA82F25209DA72012207E053494F
:107D400058688A884088033202448A8002221A7066
:107D5000B6E74D4C5A884D49142505FB0242086888
:107D6000546850608888108102200C60888000214F
:107D700011740622EBE70722E9E79A7A32B9DA7A38
:107D80008AB900221A705A805A6082E63E4900225F
:107D90009A72CA68002AF2D1097C0029EFD05A8071
:107DA000FFF7F8FD51E70022DA72374A116A00291D
:107DB000E7D192F82420002AE3D00122EFE7FFF771
:107DC000E5FC42E7FFF782FC3FE72F4A5B8814217E
:107DD00001FB03235868FFF7ADFC36E700225A6029
:107DE000FFF794FC31E700238DF80C300DE0012201
:107DF0008DF80C201A89ADF818209A88DB68059355
:107E0000ADF81A2000238DF81C3003A8FFF71EFCE4
:107E1000002649461E48C8F8006000F0F1F91D48E8
:107E2000012100F0A7FA00287FF4CEADE3E602229C
:107E30008DF80C201A89ADF818209A88ADF81A2010
:107E4000DA689B7D05929A1F53425341DBE7032278
:107E50008DF80C20DA88ADF818201A89DB68ADF8A7
:107E60001A200593D1E704228DF80C20DB88ADF8A9
:107E700018300023ADF81A30F3E70523B4E700BF4C
:107E8000F429002090290020AC290020E8290020B6
:107E9000D4290020E42900204068FFF78DBD0000B0
:107EA00008B50548012100F04DFA18B9BDE80840B1
:107EB000FFF782BD08BD00BFE42900202DE9F34192
:107EC0009846374B1B7806460D46002B5CD00029A0
:107ED0005DD009884FF6FF7399425BD06B88002B09
:107EE00058D06B689B0758D14AB92F890DF1020110
:107EF0003846FFF7BBFB30B102B0BDE8F081138814
:107F00005788ADF8023001A8FFF75CFC044660B961
:107F1000BDF80230234A142101FB0323588903389A
:107F2000C01B588148F20760E6E780F80080002314
:107F30008375BDF8023083826B68036101211A48A2
:107F400000F00CFA2B882381B8F1030F6B88A38013
:107F500004BF0423A3754FF0000508BF3368E06039
:107F600008BFA3611148E780658101A900F00DF900
:107F700036B1E36833600E4B75601B89B57233818F
:107F8000FFF78EFF0020B7E748F20160B4E748F240
:107F90000460B1E748F20360AEE748F20260ABE785
:107FA00088290020AC290020A4290020D429002001
:107FB0009029002073B50D460446C8B1C1B10DF13A
:107FC0000601FFF74FFCB0B10C4BBDF80600666828
:107FD000142202FB003001210C3000F0BFF963686D
:107FE0002E600C336B600123A372002002B070BDC1
:107FF00048F20460FAE748F20960F7E7AC2900208C
:1080000013B50446A8B10DF10601FFF72BFC98B19A
:108010000C4ABDF80630142101FB0323DA6872B163
:10802000A27A62B1DA680020013ADA60A07202B086
:1080300010BD48F20460FAE748F20960F7E748F239
:108040000560F4E7AC29002002230022FFF736BFC9
:1080500018B103230022FFF731BF48F204607047D4
:10806000114B1B7813B50446ABB14FF6FF73984222
:1080700014D001A8FFF7A6FB98B1052303700123D4
:108080000371C48001A9094800F07FF8FFF708FFD9
:10809000002002B010BD48F20160FAE748F2036028
:1080A000F7E748F20760F4E788290020D429002088
:1080B00007B5ADF80600ADF804100DF1060001A9F2
:1080C000FFF724FC03B05DF804FB07B51346ADF8D9
:1080D00006000A4600200DF10601FFF717FC03B069
:1080E0005DF804FB07B51346ADF806000A460DF12E
:1080F00006000021FFF70AFC03B05DF804FB20B185
:1081000019B103680B600020704748F204607047A3
:1081100010B561B1B2FBF3F403FB1424A4B244B96B
:10812000C0E9001484608281C381204610BD0E2006
:10813000FCE70920FAE737B550E8013F9DB2C48952
:1081400025448489A54228BF2D1B0489A54202BF6E
:10815000BFF32F8F002207E0C5EA030540E8015472
:10816000002CE9D14FF001028DF803200193019B0F
:108170009DF803200B6002F0FF0322B10B8800681A
:10818000184403B030BD1846FBE70A884B889A4272
:1081900009D150E8012FC2EA024240E80123002B36
:1081A000F7D1012070470020704737B550E8023FF3
:1081B0001FFAA3F5C488A54202BFBFF32F8F002288
:1081C0000DE0C48925448489A54228BF2D1BC3EA3C
:1081D000054540E80254002CE8D14FF001028DF82B
:1081E00003200193019B9DF803200B6002F0FF0325
:1081F00022B14B880068184403B030BD1846FBE735
:108200000A884B889A4209D150E8022FC2EA2242DA
:1082100040E80223002BF7D101207047002070476F
:1082200001F01F024B090121914000EB830000F097
:1082300065B84B0910B501F01F040121A14000EB06
:10824000830000F04FF8E04000F0010010BD01F0A5
:108250001F0301229A404B0900EB8300D14300F039
:1082600065B84B0901F01F0150F82300C84000F029
:10827000010070472DE9F0474F1E7F0980460E46EA
:108280000137002558F8254008EB8509E44394FAA6
:10829000A4F4B4FA84F44FEA451A202C06D101352F
:1082A000AF42EFD834462046BDE8F0875444A6429A
:1082B000F5D921464046FFF7BCFF0028F3D0D9F896
:1082C0000040E44394FAA4F4B4FA84F4E5E710B56A
:1082D000034653E8000F0A4643E8002494F0000FD9
:1082E000F7D110BD10B5034653E8000F40EA010274
:1082F00043E8002494F0000FF6D110BD10B50346FA
:1083000053E8002F42EA010043E8000494F0000F14
:10831000F6D110BD10B5034653E8000F00EA010284
:1083200043E8002494F0000FF6D110BD10B50346C9
:1083300053E8002F02EA010043E8000494F0000F24
:10834000F6D110BD10B5034653E8000F00EB010253
:1083500043E8002494F0000FF6D110BD10B5034699
:1083600053E8002F02EB010043E8000494F0000FF3
:10837000F6D110BD10B5034653E8002FA2EB010063
:1083800043E8000494F0000FF6D110BD0121FFF77F
:10839000B5BF0021FFF7BEBF10B590B1D0E90123F2
:1083A00001689B1ADBB20A60013BDBB2FF2B02685B
:1083B00002D10020107110BD11684C1C14600B70AC
:1083C000F2E70E20F7E737B5054600240DF1070068
:1083D0008DF80740FEF7C2FF2A686B681168994262
:1083E0000ED9481E106011F8014CEB68298A01FB78
:1083F0000434AB6811791B1ADBB2994238BF137190
:108400009DF80700FEF7CEFF204603B030BD37B51C
:10841000054600230DF107000C468DF80730FEF7E6
:108420009DFF2A681368591C1160E968641A298A3B
:10843000B4FBF1F41C709DF80700FEF7B3FF03B026
:1084400030BD826810B504462AB1436901680069ED
:1084500098470023A36010BD0EB403B5039921B162
:1084600004AB01AA019300F06FF802B05DF804EBD1
:1084700003B07047826830B40468551C8560A1540D
:10848000D0E901329A4202D330BCFFF7DABF30BCE8
:10849000704700002DE9F84F9846DDE90A4315467C
:1084A00082460F460A464FF00109AA420FD2C14543
:1084B00038BFC14613F0010B01D16CB9002401266D
:1084C000B8F1010F1BD908F1FF386E43F8E709F145
:1084D0000109B2FBF5F2E8E79B070ED5B8F1000FF2
:1084E0000CBF30262026A145E9D2013C314650463A
:1084F000FFF7C0FF002CF6D1E0E72026F3E7B7FB3B
:10850000F6F39D42E1D9DFF83C80B7FBF6F3504625
:1085100018F8031006FB1377FFF7ACFF3346AB42A6
:10852000B6FBF5F6F1D2BBF1000F02D00CB1A145BC
:1085300001D3BDE8F88F20215046013CFFF79AFF98
:10854000F4E700BF0CE702002DE9F74F0546174698
:108550008846002900F0428118F8011B49B92B7B9D
:10856000002B00F03B81284603B0BDE8F04FFFF739
:1085700068BF252940F0B780002698F800302D2BE1
:10858000424608F1010823D0302B24D02B2B25D0D4
:1085900000242A2B02F1010123D13B681A1D1B681C
:1085A0003A601C440A4613782E2B26D101324FF034
:1085B000000A104610F8011BA1F1300CBCF1090FA4
:1085C0001DD80A2303FB0A13A3F1300A0246F0E781
:1085D00046F00106D1E746F00206CEE746F0040673
:1085E000CBE711F8013CA3F130000928DBD80A22BF
:1085F00002FB0434303C0A46CBE74FF0000A12F885
:10860000011B01F0FB0068289046F8D0782909D8B2
:108610006F290CD8632962D022D8252963D0582924
:1086200000F0888098F80030002B95D197E77039DA
:108630000829F7D801A353F821F000BFB78702003B
:108640002586020025860200458702002586020055
:108650002387020025860200258602003587020056
:10866000642901D06929DDD13A68D2F80090111D42
:1086700089EAE9723960A2EBE9724FF0010B092A2D
:1086800035DCD34538BFD3462CB1B9F1000F01DB3F
:10869000720700D5013CB30702D5BAF1000F03D031
:1086A000F00701D44CBB0024B9F1000F2DDAC9F159
:1086B00000092D212846FFF7DDFE06F00302022AFD
:1086C00004D1BAF1000F01D11CBB0024CDE9004652
:1086D00053460A2249462846FFF7DCFEA2E73B68DC
:1086E0001A1D19783A602846FFF7C4FE9AE70A2354
:1086F0000BF1010BB2FBF3F2C1E7A345D4D2202169
:108700002846013CFFF7B6FECCE77107D5D52B21F3
:10871000D0E7A345DAD230212846013CFFF7AAFE74
:10872000D2E73968CDE900460A1D3A6053460A226D
:108730000968D0E739680A1D3A60CDE9004653461A
:108740001022F5E73B681A1D3A6016F00106D3F8CF
:10875000009028D1B9F1000F03D0484605F00CFE77
:108760000646B44200D904BB09F1FF3919F8011FCC
:1087700000293FF457AF2846FFF77CFEF6E728466E
:108780000136FFF777FE19F806100029F7D1A64247
:10879000BFF448AF002C3FF445AF20212846013CF0
:1087A000FFF768FEF3E70026EDE720212846013CAD
:1087B000FFF760FED5E73B681A1D3A603021284676
:1087C0001C68FFF757FE78212846FFF753FE00226A
:1087D0000823CDE90032214610227CE703B0BDE832
:1087E000F08F00BF2DE9F34188B93D4B3D483E4A2B
:1087F000C01AC0080E243D4B009400043C4940F0D0
:108800000100FEF7ECF8204602B0BDE8F0814AB95D
:10881000334B3448374AC01AC0080E24334B0094F7
:108820000004EBE7D0F800E0BEF1000F09D12C4BBB
:108830002C48314AC01AC00808242C4B009400046C
:10884000DCE74BB9264B27482C4AC01AC00809243C
:10885000264B00940004D1E74568D5F80480B3FBAB
:10886000F8F508FB15354DB11D4B1E48244AC01ABA
:10887000C00809241D4B00940004BFE78D0709D0F0
:10888000174B18481F4AC01AC0081024174B0094F1
:108890000004B3E712F0030F09D0114B11481A4A34
:1088A000C01AC0081024114B00940004A6E7C56844
:1088B000A9420BD34D1EEC180569AC4206D8DEF870
:1088C0000C40A44602B0BDE8F0416047044B0548A7
:1088D0000E4AC01AC0081024044B009400048DE70F
:1088E0006CE40200BCE402001CE70200B2E80200F3
:1088F00021E702009EE702004AE702005DE702006E
:10890000A4E70200CEE70200E6E7020009E8020061
:10891000F7B580B92A4B2B482B4AC01AC0080E2441
:108920002A4B009400042A4940F00100FEF757F852
:10893000204603B0F0BDD0F800C0BCF1000F09D153
:108940001F4B2048234AC01AC00808241F4B00941C
:108950000004E8E74AB91A4B1A481F4AC01AC0086F
:1089600009241A4B00940004DDE74768D7F800E0BB
:108970000EF1FF370F4209D0114B1248174AC01AA7
:10898000C0081024114B00940004CCE7C768B9421A
:108990000CD304694D1E0EFB0255A54206D8DCF827
:1089A0001040A44603B0BDE8F0406047044B0548C2
:1089B0000B4AC01AC0081024044B00940004B2E70C
:1089C0006CE40200BCE402001CE70200C5E80200FF
:1089D00021E702004AE702005DE7020030E80200FA
:1089E00056E8020029DF704728DF704770B503683A
:1089F0009E6886B004460D466EB11422002168467A
:108A000005F065FCA3680593237901952BB1012B33
:108A10000DD06846B04706B070BD01238DF8003018
:108A200023690293E368039363690493F1E70223E4
:108A30008DF80030E3681B030293F5E7034B187AC7
:108A40000122B0FA80F05A74400970470C2A0020C5
:108A500070B5244C244E237A25463BB9234924483B
:108A6000FFF7A3FB306008B9606070BD0223346873
:108A70002B72237973B1012B24D020460321FFF7F9
:108A8000B5FF00232B726B6018491948BDE8704090
:108A9000FFF7B6BBD4E90523D21AB2F5805FD4E95B
:108AA000031028BF4FF480529208012A38BF0122D8
:108AB00019441844FFF796FF50B11128DDD1012366
:108AC0002B72D2E7D4E903031844FFF78DFFF3E7D5
:108AD0002B7C002BC9D10146BDE87040022000F07C
:108AE00009B800BF0C2A0020242A0020202A0020D8
:108AF000FC29002038B5831E012B45D8234C237A4E
:108B0000002B41D0022B09D1032830D0204B00226A
:108B10001B68E2601A793AB1012A22D0637C7BBBE0
:108B2000BDE83840FFF794BFD3E905128D1AB5F5BB
:108B3000805F94BF521902F580529A619142EDD143
:108B400002284FF0000308BF19462372104B18BFCC
:108B50000D211868FFF74AFF0E490F48FFF750FB39
:108B6000DCE71A6901321A615B699A42E7E7E36858
:108B70000133082B01D8E360D0E70023E360DFE78F
:108B8000BDE8384005F00AB938BD00BF0C2A002006
:108B9000242A0020202A0020FC29002000F0FD03C8
:108BA000012B08D1044B00225A74421E50425041FE
:108BB0001874FFF74DBF70470C2A00202DE9F84FBD
:108BC000B0F806A04579D2F800B09DF828900AFBCD
:108BD00005F5043D88460BEB0301A94203F10404AB
:108BE00088BFA5EB030BB4FBFAF607460AFB164455
:108BF000C2F800B04EB9AAEB04055D4528BF5D463A
:108C0000BBF1000F04D1BDE8F88F3F68013EF1E7EA
:108C1000043408EB06003C442A46B9F1000F0DD09D
:108C20002146ABEB050B05F029FBDA452E443F68E6
:108C300055464FF0000428BF5D46E1E70146204657
:108C4000EFE7FFF7A9BBF8B546790146721E054666
:108C5000002393422D6803D30024A64202D8F8BD16
:108C60000133F6E70F682846FFF7D1FB0134394698
:108C7000F3E72DE9F843068ACD1C0746FFF7A3FB6F
:108C8000043E35440446B5FBF6F5F0B14FF480736D
:108C9000EDB28380C680013D076081464FF0000839
:108CA000A84512D23846FFF78EFB064648B16379D5
:108CB0000133637108F10108C9F8000007608146BB
:108CC000EEE72046FFF7BFFF34462046BDE8F883B5
:108CD00001210430FFF742BB10B5012104460430E6
:108CE000FFF748FB10F0FF0F04D12046BDE810400D
:108CF000FFF7A9BF10BD1FB503920022009203AA7F
:108D0000FFF75CFF05B05DF804FB1FB5039201227D
:108D1000009203AAFFF752FF05B05DF804FB41DFA4
:108D200070470000064B10B500241C70054B1C60FA
:108D3000BFF35F8F0449054800F039F8204610BDA5
:108D4000302A0020342A0020E4E80200282A0020EB
:108D500007B500230DF107008DF80730FEF7FEFA86
:108D6000F1EE103A23F09F03E1EE103ABFF35F8F6C
:108D7000094B4022C3F884219DF80700FEF712FB3F
:108D800005F01CF820B1FFF7CAFF03B05DF804FB43
:108D900020BF40BF20BFF8E700E100E08368002269
:108DA0005A60C3E904229A60DA601A6070470B685F
:108DB0004A684360934208BF0023016008BF4360D4
:108DC0007047436843B10268916852680B4493420C
:108DD000436004BF00234360704770B54468064693
:108DE0000D46206818B1B3682946984718B923681A
:108DF0002B60256070BD2468F3E74368186808B1EC
:108E000002681A60704743681868704743681868BA
:108E100000B97047884203D102681A600120704788
:108E200003460068F4E7000010B50D49A1F59472FF
:108E3000914201D800200FE08C1AE30F03EBE4030A
:108E40005B1002EBC30452F83330834205D802D2E0
:108E500004F10802ECE7606810BD2146E8E700BFB6
:108E6000F0ED020008B5FFF7DFFF024B002808BF56
:108E7000184608BDB3EC0200044B1868421C04BF3E
:108E8000034B1878831F5842584170473001001037
:108E9000E00F00F0074B1B78062B09D1064B1B682F
:108EA000C3F30313033B032B02D8044AD05C70477F
:108EB00000207047E00F00F0E80F00F0F8ED02002E
:108EC00008B5FFF7D9FF28B1834B844A1B68C3F369
:108ED00004231360FFF7DEFF10B1814B814A1A6053
:108EE000FFF7CAFF28B1804B804A1B68C3F34233A7
:108EF0001360FFF7CFFF20B17D4AD36823F0807362
:108F0000D360FFF7B9FF40B14FF080430022C3F8B0
:108F10000C21C3F81021C3F83825FFF7BBFF10B1AF
:108F2000744B03221A60FFF7B5FF40B1724B052264
:108F30001A6001229A6700229A603F225A606F4BA2
:108F40001A68511C0BBF6E4B6E4B1A781B6802BF20
:108F500008331B68C3F30313062A4DD1033B032BCD
:108F600003D8694AD35C002B46D04FF08052674B40
:108F7000D2F80414C3F82015D2F80814C3F8241545
:108F8000D2F80C14C3F82815D2F81014C3F82C1515
:108F9000D2F81414C3F83015D2F81814C3F83415E5
:108FA000D2F81C14C3F84015D2F82014C3F84415A5
:108FB000D2F82414C3F84815D2F82814C3F84C1575
:108FC000D2F82C14C3F85015D2F83014C3F8541545
:108FD000D2F83414C3F86015D2F83814C3F8641505
:108FE000D2F83C14C3F86815D2F84014C3F86C15D5
:108FF000D2F84424C3F87025FFF73EFF28B1444B54
:10900000444A1B6803F04F031360FFF735FF48B174
:109010004FF08043D3F80024D20744BF6FF0010221
:10902000C3F80024354B1B68062B0CD1354B1B684D
:10903000033B032B02D8384AD35C23B1374A136869
:1090400043F480631360364AD2F8883043F47003E7
:10905000C2F88830BFF34F8FBFF36F8F4FF01023EC
:10906000D3F80022002A03DBD3F80432002B2FDAD6
:109070002C4B0122C3F80425D3F80024002AFBD08E
:109080004FF010221521C2F80012D3F80024002A54
:10909000FBD04FF010231522C3F80422214B1A46AF
:1090A000D3F800140029FBD00021C3F80415D2F82E
:1090B0000034002BFBD0BFF34F8F19491A4BCA68FD
:1090C00002F4E0621343CB60BFF34F8F00BFFDE7B4
:1090D000164B174A1A6008BD2403001040350140A2
:1090E00074C007400DF0ADBA440200103C050040CA
:1090F000F0ED00E0A00500401056004030010010E7
:10910000E00F00F034010010F0ED020000C000405C
:1091100058020010E40E0040F4ED02003C1700403D
:1091200000ED00E000E001400400FA059422002078
:109130000090D003054A4FF0A043105CD3F80435EB
:1091400023FA00F0C04300F00100704700EE020077
:10915000044B1A5C012393404FF0A042C2F80C3537
:10916000704700BF00EE0200044B1A5C01239340DD
:109170004FF0A042C2F80835704700BF00EE020071
:1091800008B50020FFF7F0FF0120FFF7EDFF0220F8
:10919000FFF7EAFFBDE808400320FFF7E5BF08B589
:1091A0000020FFF7D5FF0120FFF7D2FF0220FFF7D5
:1091B000CFFFBDE808400320FFF7CABF074A4FF0C2
:1091C000A041105CD1F804350122824022EA03005C
:1091D0001340C1F80805C1F80C35704700EE0200D5
:1091E000054A4FF0A043105CD3F8103523FA00F085
:1091F000C04300F001007047FCED02000D2809D0CB
:109200000E2809D00F2809D010280CBF03204FF0DA
:10921000FF307047002070470120704702207047E0
:10922000014B185C704700BFFCED0200C20708B597
:1092300001460CD54FF0A0430322C3F84427C3F8DE
:109240004827C3F84C27C3F85027FFF799FF8B072F
:109250000AD54FF0A0430C22C3F83427C3F83827AF
:10926000C3F83C27C3F8402708BD000038B5074CB9
:10927000051E04F1080318BF1C4623682BB11A68A9
:1092800022605B6828469847F7E738BD402A0020EF
:1092900020B9054B01225A70FFF7E8BF012802D11F
:1092A000014A9070F8E77047382A002020B9034B34
:1092B00001225A70FFF7DABF704700BF382A00203A
:1092C00038B50E4C2378B3B90D486360A3602361B1
:1092D000E36000F073F8054604F070FD08B900F093
:1092E00079F801232370074BD3F800340BB1012325
:1092F000A370284638BD8525F5E700BF382A002031
:10930000919202000000014037B50D4C00230DF191
:1093100007008DF80730FEF721F8E368013BE360B2
:10932000E36833B9074BD3F8005415B900F064F87B
:10933000A5709DF80700FEF735F803B030BD00BFFB
:10934000382A002000000140012813B50CD0032862
:1093500020D038B9124B0122C3F88020BFF34F8FC1
:10936000BFF36F8F02B010BD0E4C00230DF107004C
:109370008DF80730FDF7F2FF23780BB9FFF7A0FF58
:10938000E3689DF807000133E3600123A370FEF753
:1093900009F8E7E700F01EF8FFF7B6FFE2E700BFC5
:1093A00000E100E0382A002000F18040002382B074
:1093B000036003680193019B02B07047044A13796C
:1093C00023B90121106091801846704785207047AD
:1093D0004C2A0020074B1A68D20704D4C02283F815
:1093E000002301221A604FF080430122C3F81825A0
:1093F000704700BF00E100E04FF0804208B5022353
:10940000C2F808334FF48270FFF7CEFF034B0121FF
:109410001960D2F81834DB03FBD408BD0C000040FF
:10942000124B1B6810B573B14FF48070FFF7BCFF8F
:109430004FF080430122C3F808230D4B587910B92F
:109440005A711B6898470B4B1B6873B14FF48270BD
:10945000FFF7AAFF4FF080430222C3F80823044B12
:10946000BDE810401B680120184710BD00010040F6
:109470004C2A00200401004000F1804000F5C0406B
:10948000002382B0036003680193019B02B0704720
:10949000800000F1A040D0F8002722F44032C0F84C
:1094A0000027D0F8003743EA0141C0F800177047A1
:1094B000054B4FF0FF32072843F8202084BFC01827
:1094C00080F84820704700BF542A002010B51A4C7D
:1094D00094F858306BBB4FF0FF3222FA03F1C90702
:1094E00048BFE11803F1010348BF81F83020202B69
:1094F000F3D10021C8B2FFF7DBFF01310C29F9D10C
:10950000042200210D4804F0E2FE0D4BC02283F836
:10951000062340221A604FF4BE70FFF7ADFF094BDF
:109520004FF00042C3F80423012384F85830002090
:1095300010BD0820FCE700BF542A0020A82A002004
:1095400000E100E000600040034B93F85800003851
:1095500018BF0120704700BF542A0020F0B5364DD7
:109560002C1894F93040002C64DA8C78C4F3400451
:10957000002C0BBF082300230C260826B34201D180
:109580000420F0BD55F8237001373FD12E1845F85F
:10959000232086F8303014B9EA1882F848008A7817
:1095A000540713D4D60733D5820002F1A042D2F873
:1095B000004724F00204C2F80047204EC20800F021
:1095C00007070124BC40B75C3C43B4548A780C784C
:1095D00012F0020225D09B0003F1804303F5C04343
:1095E0000202D3F8101521F4473121F44071C3F879
:1095F00010152404D3F8101502F4F85204F4403482
:1096000022430A43C3F810250020BAE70133B5E727
:109610004C7800F5E0724FF0A046A40046F82240D6
:10962000CBE7083B2B4493F8501041EA841483F8AD
:109630005040E9E70820A4E7542A0020A82A002087
:1096400038B51F4C251895F93020072A16DD22441D
:1096500092F848309B09032B0BD14FF0A043D3F86D
:109660001015C14001F001010231BDE83840FFF79B
:109670000FBF012B0CBF02210321F6E7D3B2072B4A
:109680001CD8930003F1804303F5C043D3F81005C1
:1096900040F00100C3F8100502F14000800080B2E4
:1096A000FFF7EAFE51B195F9303054F823302BB171
:1096B000012303FA02F2034BC3F8042338BD00BFB1
:1096C000542A0020006000404FF0A043D3F810352A
:1096D00023FA00F000F00100704700002DE9F74F79
:1096E00000244E4D01944FF48072012102F1804319
:1096F00003F5C04390B21B68012B06D1D5F80433A3
:109700000B4202D0FFF7B8FE0C430432B2F5907F53
:109710004FEA4101EAD1424B1B68012B0CD14FF4B7
:10972000BE70FFF7A9FE4FF0A04344F00044D3F809
:1097300020250192C3F8202514F0FF0F1AD0394FCD
:1097400000250126344210D0AB0003F1804303F51D
:10975000C043D3F81005D3F8101557F8253023B1BE
:10976000C1F30141C0F3042098470135082D4FEAA9
:109770004606E7D1002C48DA2A4D4FF0A0482A4E81
:109780004FF00009012716F9013B5A1C31D0C3F3F1
:10979000C20202A90A44DCB212F8042C03F03F0A08
:1097A00003F0070307FA03F31A4222D00AF5E07325
:1097B000504658F82330C3F3014BBBF1020F0CBFE6
:1097C00003210221FFF764FE07FA0AF3C8F82035E7
:1097D00005EB0A0393F9303055F823304BB1A1095A
:1097E000032904D0BBF1020F12D1012901D1504647
:1097F000984709F10109B9F1040FC4D1D8F820350F
:109800000193C8F82035002BB9D103B0BDE8F08F23
:10981000BBF1030FEDD10229E8E700BF0060004073
:109820007C610040542A0020A42A0020014B1B68C0
:10983000184700BFB02A00200220FFF7BFBC00007D
:109840002DE9F04780460D46FFF7D8FC0328044673
:1098500010D8012D10D0022D30D05DB91A48FDF777
:10986000A4FC1A4B04EB440213449E78184B1B5D76
:10987000B34219D0BDE8F087144D00EB4002A9189F
:10988000AE5C4A78470052B1DFF84C900E484A4629
:109890004FF48041FDF771FC08B989F800803B194D
:1098A0002B449A780A4B1A55002EE3D0094B1B68BB
:1098B000002BDFD03046BDE8F047184700EB4004EE
:1098C000024804446678EFE7E02A0020202B0020BD
:1098D000392B0020342B0020B82A002000780221E8
:1098E000FFF7AEBF08B5094B1B7853B10020FFF757
:1098F0003BFC0120FFF738FCBDE808400320FFF7E0
:1099000033BCBDE80840FFF73BBC00BFB92A0020CC
:10991000F8B57B4C237805461BB100232370FFF775
:10992000E1FF172D00F28880DFE805F00C171743E0
:1099300054657680888D888D959A9A9A9A9AC4C92A
:10994000D1D9E4E4FFF7CEFF6E48FDF72EFC6E4B55
:10995000002204461A702046F8BD0020FFF7EAFBFB
:10996000F8B10020FFF700FC022D0CBF4FF4E161BD
:109970004FF47A61644B1D704FF400404FF47A74D9
:109980000025E0FB01454FF4FA62002320462946FA
:1099900004F07CFB00220146BDE8F8405948FDF781
:1099A000ECBBFFF7D5FB022D0CBFC8214FF4C871EB
:1099B000E0E70020FFF7BEFB40B10020FFF7D4FB3B
:1099C0004FF44871504B03221A70D5E7FFF7C0FBE4
:1099D000C821F7E70020FFF7ADFB38B10020FFF703
:1099E000C3FB4FF47A61484B0422EDE7FFF7B0FB6D
:1099F0004FF4C871F7E70020FFF79CFB48B1002047
:109A0000FFF7B2FB404B05221A7040F6CD41002211
:109A1000C2E7FFF79DFBF5E70020FFF7CFFB3A4BCE
:109A200006221A70002240F26661B5E70020FFF7B7
:109A30008FFB354B07221A7000248CE70120207021
:109A4000FFF7BCFBEEE701202070FFF7B7FB002219
:109A50004FF40051A0E7FFF7A2FB2B4B0C22EAE7E3
:109A60002A482B4EFDF7A1FBD5F1110504461CD069
:109A7000D8B9012D13D0C8235D434FF400474FF4EC
:109A80007A7000214FF4FA620023C7FB050104F04D
:109A9000FDFA224601461D48FDF76FFB04460220F1
:109AA000FFF756FB0123337055E70220FFF75CFBFD
:109AB0000023F8E7FFF716FF134B1222BBE7FFF76F
:109AC00011FF0020FFF744FB0F4B1322B3E7FFF712
:109AD00009FF0120FFF73CFB0B4B1422ABE7FFF71C
:109AE00001FF0020FFF734FB0120FFF731FB064B9D
:109AF0001522A0E7FFF753FB034B1D709CE700BF47
:109B0000302B0020002B0020382B0020C02A002002
:109B1000B92A0020044B1B68DB0703D5034B1878D8
:109B2000FFF7F6BE704700BF2C2B0020382B00201B
:109B3000032801D8FFF754BB00207047044B1B6873
:109B400013F0010301D0FFF7E3BE1846704700BFD2
:109B50002C2B002038B51C4B18601C4B10F0020455
:109B6000054619601AD01A4B1A480E221A700F2295
:109B7000DA7010229A7111225A72042140F23332A3
:109B8000FDF790F9044648B9FDF7E2F9044628B913
:109B90000146114A1148FDF7E5FA0446EB0711D5D5
:109BA0000120FFF743FB6CB921460D4A0D48FDF734
:109BB000D9FA044630B9BDE838400B4A0B480121B8
:109BC000FDF7D0BA204638BD2C2B0020342B0020C6
:109BD000202B002028EE0200DD9802004CEE02004F
:109BE000159B020050EE02003998020048EE020078
:109BF000032811D8012A0AD101290FD100F10E0240
:109C0000D2B20D4B00EB40001A54002070470129DE
:109C1000F7D0022904D049B1072070470022F8E7A5
:109C2000054B00EB400018444270EEE7024B00EB9E
:109C3000400018448270E8E7202B0020032808B574
:109C400012D8FFF7EDFA800000F1A040D0F80037FD
:109C500023F44033C0F80037D0F8003743F44033E2
:109C6000C0F80037002008BD0620FCE708B5012237
:109C700002210020FFF7BCFF08B1072810D10722FE
:109C800002210120FFF7B4FF08B1072808D1002105
:109C90000A220846FFF7ACFF10B1072808BF0020D2
:109CA00008BD00000388102B10B502D0112B1ED068
:109CB00010BD1A4C2168B1B901220846FFF798FF80
:109CC00008B1072824D1072202210120FFF790FFC5
:109CD00008B107281CD1042202210020FFF788FFC9
:109CE00008B1072814D1236801332360E0E70B4A49
:109CF0001368013B1360002BDAD1FFF7B7FF002890
:109D0000D6D0074B1B68002BD2D0BDE810401847B7
:109D1000034B1B68002BE6D09847E4E7442B002058
:109D2000402B002008B50020FFF788FF08B1062867
:109D300006D10120FFF782FF10B1062808BF0020DE
:109D400008BD00000D4B10B518600C4629B101206C
:109D5000FFF7EEFE40B102232370094B1B6853B995
:109D6000BDE81040FFF782BFFFF7E2FE08B10B230A
:109D7000F2E72070F1E7002010BD00BF402B00206B
:109D8000442B002076DF70477ADF70477CDF704716
:109D90008FDF704733DF7047FDF7F0B808B5104824
:109DA000104B1149C01AC008000440F00300FCF732
:109DB000FFFDFCF7B9FC0028FBD1FFF7BFFE08B19F
:109DC000FDF7DCF8FFF7AEFF08B1FDF7D7F8FFF7B6
:109DD000E1FF18B1BDE80840FDF7D0B808BD00BFED
:109DE00094E402006CE4020054EE02000388212B8C
:109DF00013B5044635D005D8102B17D0112B0AD037
:109E000002B010BD3B2B01D0562BF9D1A0881321F5
:109E1000FFF7B8FF20E0174B17481849C01AC008D1
:109E2000000440F00300FCF7C3FDE9E7114B1248C2
:109E30001349C01AC008000440F00300FCF7B8FD45
:109E40000720FFF77BFE08B1FDF798F80D4BA188BE
:109E50000D48198002F092FA0028D1D0FDF78EF853
:109E6000CEE7002301A98088ADF80430FFF790FF0A
:109E7000F2E700BF6CE4020094E4020065EE020029
:109E800073EE02009C220020A82F00200648074BFA
:109E9000C01AC008000440F0030012B10449FCF7E6
:109EA00087BD0449FBE700BF94E402006CE40200B4
:109EB0007EEE02008FEE020008B503784BB9054B29
:109EC0003B211888FFF75EFF18B1BDE80840FDF799
:109ED00055B808BD9C220020072808B513D00A28D1
:109EE0000DD0042819D10D4B13211888FFF74AFF14
:109EF00030F0080311D0BDE80840FDF73FB8BDE8D9
:109F00000840FFF74BBF054B1A884FF6FF739A4284
:109F100003D1034800F0C9FEEAE708BD9C220020F7
:109F2000482B002008B598B1032815D10B4B0C48DD
:109F30000C49C01AC008000440F00300FCF738FDCB
:109F40000220FFF7FBFD38B1BDE80840FDF716B869
:109F5000BDE80840FFF722BF08BD00BF6CE4020067
:109F600094E40200A1EE0200FDF708B800B54FF43A
:109F70008041ADB00020FCF787FB08B1FCF7FEFF85
:109F8000FCF7C2FA6A490320FFF7E4FD08B1FCF7C9
:109F9000F5FF01A90020FFF7D5FE08B1FCF7EEFFA1
:109FA0009DF80460FDF7ACF808B1FCF7E7FFFEF799
:109FB000B9FE08B1FCF7E2FF03F082FE08B1FCF73E
:109FC000DDFF002301A90120019303F041FF08B147
:109FD000FCF7D4FF01A803F0EDFF08B1FCF7CEFFBA
:109FE000112354488DF8003004F0C6F9514982B26B
:109FF0006846FFF7CBFE08B1FCF7C0FF002108223E
:10A0000001A804F064F94C494FF0C87301A8CDE9E8
:10A010000113FFF7B9FE08B1FCF7B0FF4748002174
:10A0200002F0A4F808B1FCF7A9FFAC22002101A8B6
:10A0300004F04DF902238DF8043040F20163404AE8
:10A04000ADF806300123ADF8143006928DF880305B
:10A050004FF4967244F25063CDE9232339483A4BCA
:10A060002A9301A900F061FC08B1FCF787FF35488D
:10A07000012100F057FC354B35480093694602F04A
:10A080006BF908B1FCF77AFF324B3348019301A911
:10A0900000F08CF8314C324B3249E41AE4082404C5
:10A0A00044F00304054602462046FCF785FCFCF715
:10A0B0003BFB0028FBD115B12846FCF75FFF1C22B3
:10A0C000002101A804F003F900234FF4A032CDE9E8
:10A0D0000132ADF812304FF4F0228DF81430224BDB
:10A0E000039206930322214B8DF8102001A80793B9
:10A0F00000F0F8FE08B1FCF741FF1D492046FCF7CF
:10A1000057FC022E0FD11B492046FCF751FC02F0F0
:10A1100001FE08B1FCF732FFFCF706FB0028FBD17B
:10A12000FEF716FEF8E70321064800F07DFCF0E795
:10A13000D99E0200B3EE02005000A0007C2F002048
:10A1400098220020482B0020259F0200999D0200A4
:10A15000A82F00208D9E0200902F002094E4020082
:10A160006CE40200C3EE0200B99E0200699F020087
:10A17000DEEE0200F8EE0200A8DF704762DF7047F3
:10A180000288502A10B40DD1C4884A88944209D15B
:10A19000028A012A06D14B6923B1827C5DF8044B07
:10A1A000808818475DF8044B70470000F0B50B68D5
:10A1B00043618FB0334B02AA044603F110071646E1
:10A1C00018685968154603C50833BB422A46F7D1BB
:10A1D00004F112013046FFF7D1FF00284FD1A37CD4
:10A1E0008DF80630224641F2235301A90120ADF833
:10A1F0000430FFF7C1FF002841D10146202206A804
:10A2000004F065F841F22453ADF81830A37C8DF8C2
:10A210001A309DF82530224623F0120301254FF015
:10A22000011643F0120332F80A0B079606A98DF8BF
:10A2300025308DF829508DF82B5001F010F8F0B929
:10A240000146202206A804F042F841F22553ADF859
:10A250001830A37C8DF81A309DF8253007962246D9
:10A2600023F00A0343F00A0332F8020B8DF825307D
:10A2700006A98DF829508DF82A5000F0F0FF0FB094
:10A28000F0BD00BF05EF02000369C1688B429DBFAE
:10A290008268D21802F1FF3203F1FF3394BF501AE3
:10A2A000581A70472DE9F843D0E902940546A9EB06
:10A2B00004084068904520440F46144404D903F034
:10A2C000DDFFEC60BDE8F8834246A4EB090403F02F
:10A2D000D5FF6868224607EB0801F0E72DE9F8434F
:10A2E000C5680646894617464FF000083469B368CA
:10A2F0007068A54228BFE418013C621B5C1BBC428D
:10A3000028BF3C46944228BF14464946284422466A
:10A3100003F0B4FFB3682544AB4208BF00253F1BE0
:10A32000A044A144F560E1D14046BDE8F8830000B7
:10A3300010B5114C114AA2610223C4E90433104B39
:10A34000E361A2644FF400730E4A0F492362E26492
:10A3500000231022E01DA3626362E362A3656365CC
:10A36000E365226503F0E6FF0849204603F0E2FFBB
:10A370002023A37110BD00BFB42F002015EF0200F1
:10A380003C3000202C3000201EEF020022EF0200A3
:10A39000F8B5184C182300FB033503FB0040254497
:10A3A000C46A012C0F4616460FD0022C1AD0F4B9FD
:10A3B0002846FFF769FF864205D8324639462846C7
:10A3C000FFF770FF34462046F8BD2846FFF75CFFD4
:10A3D0008642344628BF0446224639462846FFF7BF
:10A3E00061FFF0E72846BDE8F840FFF777BF00249B
:10A3F000E9E700BFB42F0020FFF79ABF6DDF704779
:10A4000079DF70477DDF704764DF70472DE9F04FDB
:10A4100085B000250E9CBDF83CB0B4F800A00191B9
:10A42000074690461E46A9463A884A450DDC45B186
:10A430002388013BA3EB0A039BB2FF2B3AD806F813
:10A440000A30002005B0BDE8F08F7A6852F8290084
:10A45000039000220DF10B0103A8FFF7D5FF0028A0
:10A46000F0D19DF80B20424521D12288002D14BF48
:10A470000020022002EB0801014459451ADC3DB9D5
:10A48000013292B2019B2280B35422880132228091
:10A4900022880DF10B01324403A8FFF7B5FF002815
:10A4A000D0D121889DF80B200A442280012509F192
:10A4B0000109B9E70C20C5E72DE9F341089FBDF874
:10A4C00024801546CDE90078022204461E46FFF797
:10A4D0009DFF50B93346102229462046CDE9087821
:10A4E00002B0BDE8F041FFF791BF02B0BDE8F081D6
:10A4F0002DE9F04F00231788138090F82D3085B098
:10A5000006460D46144653B3082F01D80C2027E108
:10A5100002A8FFF773FF002840F022812388082259
:10A52000EA54238801339BB21B222380EA542088FB
:10A53000013080B2208006220DF10901284403F089
:10A540009DFE23889DF8082006339BB212F0FE0280
:10A5500018BF01222380EA54238801332380B37873
:10A56000FBB123880433BB42D0D802A8FFF748FFD1
:10A57000002840F0F58023880322EA542388013321
:10A580009BB219222380EA542388BDF808200133A6
:10A590009BB2E9182380EA54120A4A7023880233D6
:10A5A0002380F2789AB12388D91CB942AED802210F
:10A5B000E954238801339BB201212380E954238885
:10A5C0000B449BB22380EA5423880B442380726897
:10A5D000AAB12388D91CB94298D8022192F9002047
:10A5E000E954238801339BB20A212380E95423884C
:10A5F00001339BB22380EA542388013323803389BB
:10A60000002B40F0A180338A5BB1CDE900472B4697
:10A610000722032106F11000FFF74EFF002840F04B
:10A620009F80338B5BB1CDE900472B461522142167
:10A6300006F11800FFF740FF002840F09180326AD1
:10A64000002A40F09080D6F82480B8F1000F30D076
:10A65000B8F804302188981C8A1C0244BA423FF69C
:10A6600055AFFE283FF652AF03336B5423880133B6
:10A670009BB2FF222380EA54238801339BB22380BC
:10A68000B8F80020EA54E918120A4A70208802300B
:10A6900080B22080B8F804205AB1D8F808100029F8
:10A6A0006BD0284403F0EAFD2388B8F80420134453
:10A6B000238096F82C30002B40F09A8030780028C8
:10A6C0004ED03388012B58D0228802F1020CBC45B1
:10A6D0003FF61CAF012805D17378023313449F4223
:10A6E000FFF414AF023FBF1ABFB202A905EB0C0082
:10A6F000ADF80870FFF786FE90BB3178BDF80830E2
:10A70000022900F0BA8072789A4202D3BB4240F22A
:10A71000B280012940F0B380974293B2C0F0AF807D
:10A72000ADF808300821BDF80830FE2B3FF6EEAE3C
:10A7300022880133AB542288013292B22280A9547C
:10A740002288134423800BE0CDE900472B460622E4
:10A75000022106F10800FFF7AFFE00283FF453AFD7
:10A7600005B0BDE8F08FB4F800C00CF10603BB42A1
:10A770003FF6CCAE1188052901D80720F0E76FF429
:10A78000486E01EB0E039BB24FF27D3E7345F4D948
:10A790005388052BF1D96FF44860181880B27045C2
:10A7A000EBD94FF6FF70814203D0834201D099422A
:10A7B000E3D8052305F80C30238801339BB212211E
:10A7C0002380E954238801339BB223801188E95404
:10A7D000E818090A4170238802339BB2238052880B
:10A7E000EA54E918120A4A702388023323802AE7C0
:10A7F000B36A002BC1D04FF000094FF00C0A4FF0A4
:10A80000160B96F82C305FFA89F293427FF656AF1A
:10A81000B16A0AFB02F201EB0208B8F80430981C96
:10A82000FE283FF673AE208803332B542388013370
:10A830009BB2238005F803B0238801339BB22380A9
:10A840008A5AEA54E918120A4A702088023080B203
:10A850002080B8F804205AB1D8F8081000298CD00C
:10A86000284403F00BFD2388B8F804201344238008
:10A8700009F10109C5E7092155E7BB42FBD9ADF84C
:10A8800008704FE730B5C8B1F2B10024651C8D42A5
:10A8900006DA1588A54212D805196D789D420ED1A9
:10A8A000A14211D9005D48B1013880B230B1023403
:10A8B000A3B210FA84F4A14206DB138030BD055D1B
:10A8C00001352C44A4B2E1E70020F7E713B51346A5
:10A8D0000022ADF806200DF106020446FFF7D2FF74
:10A8E00010B1BDF80630E01802B010BD72DF70473D
:10A8F00073DF704774DF704738B5012204460D4698
:10A90000B0F81414D0F81004FFF7E0FF00B10570A0
:10A9100004F13C0204F5826104F15400BDE83840C2
:10A92000FFF7E4BF80F830107047F8B504460F46D3
:10A93000002975D0002873D091F87A301BB191F8B6
:10A940009830002B6ED1D7F8A030042B6AD0D7F8FE
:10A950009C30042B66D04FF0000C84F802C007F145
:10A9600078060FCE251D0FC50FCE0FC596E8070040
:10A9700085E8070084F830C0D7F8A4306363D7F8BF
:10A98000A830A3634FF6FF7504F58263C4F8203442
:10A99000A4F824540722614604F2264003F097FCF1
:10A9A00023780BB984F8545094F82430002B14BF4A
:10A9B000EE231F2304F15501C4F81014A4F8143435
:10A9C00004F214423846FFF793FD40BB94F824305C
:10A9D000002B14BFEE231F2304F23121C4F81814F6
:10A9E000A4F81C3404F21C4207F13C00FFF780FD80
:10A9F000A8B9A369A4F848304FF480730125A4F8DE
:10AA0000503063692064014684F83C50636404F16B
:10AA10003C0204F15400FFF769FF00B92570F8BD4E
:10AA20000E20FCE70720FAE7F8B5077804460D4644
:10AA3000002F00F0038100F22646817007220021DA
:10AA4000304603F044FCE38813B1A378012B04D013
:10AA5000E3794BB1A378022B06D1636BA3B101223A
:10AA600084F82D2408209847334604F22C4113F82B
:10AA7000012F12B99942FAD117466B1E032B51D8F8
:10AA8000DFE803F0050B0F1284F82D34ECE7A3790F
:10AA90001BB194F8243003B95FB9E3790BB1002FEF
:10AAA00042D1237A002B41D1637A002B0CBF0025C1
:10AAB0000425636BA570002B3AD0033D012D37D8D8
:10AAC0006279AAB394F82E2492BB84F83024012230
:10AAD00084F82F240720984704F13C051822002110
:10AAE000284603F0F4FBE26A531E0121022B28BF23
:10AAF0000A4684F8512094F8242084F83C1032B19E
:10AB0000A36A581E022828BF0B4684F85230A17849
:10AB1000002384F8503004291BD8DFE801F0770DBA
:10AB2000223559000025C4E70225C2E70325C0E706
:10AB3000002384F82F34CFE7C4E91063C4F820342D
:10AB40000223012284F83C30802384F83120A4F8C9
:10AB50004830A378002B5CD1636B002B6AD10020B6
:10AB600067E00223002A84F8313014BF072303234F
:10AB700084F83C302369A4F848300023C4F820341A
:10AB8000E36826646364E4E763696364A369A4F823
:10AB9000483012B1062384F83C306379B3B194F89D
:10ABA0002E349BB994F8303483B1022384F85030AA
:10ABB00004212046FFF7A0FE0028CAD1052384F80F
:10ABC000313004F58263C4F82034C2E70323F6E78A
:10ABD000E3696364236AA4F8483012B1062384F859
:10ABE0003C30637983B194F82E346BB994F83034E7
:10ABF00053B1022384F8503004212046FFF77CFE35
:10AC00000028A6D10623DAE70423D8E784F83130F8
:10AC10009FE7D4F820142A4604F15400FFF766FE9B
:10AC200038B994F8301094F85400FFF761FE00280A
:10AC300092D0F8BD94F83100984790E70820F8E7E3
:10AC40000388112B10B50C460AD0262B1FD0102BD1
:10AC500005D1C37B012B02D18388A1F8243410BD18
:10AC60000022838881F82E24B1F824249A42F6D158
:10AC70000B79002BF3D101212046FFF7D5FE0028E8
:10AC8000EDD0A36B002BEAD0BDE810401847037A43
:10AC9000013B012BE3D8897805230131B1FBF3F3A4
:10ACA00003EB8303C91AC9B2E6E738B5044690F846
:10ACB0005400FFF71FFE012384F82E34002384F88C
:10ACC000303484F8503006212046FFF715FE054643
:10ACD00038B9A1782046FFF7A7FE10B1A36B03B1E6
:10ACE0009847284638BD75DF704776DF70477ADFB2
:10ACF00070477BDF70470000034B1A8882420CBF0D
:10AD000018460020704700BF58320020024B9B6954
:10AD100003B11847704700BF3C32002073B585B2BD
:10AD20002846FFF7E9FF044670B1164E027A337BDE
:10AD30009A420BD200F10A012846FFF7D4FFE8B18E
:10AD4000112801D0FFF7E2FF02B070BD00230372AB
:10AD5000337C43B13B212846FFF7C7FF30F008039F
:10AD600001D0FFF7D3FF7369002BEDD000228DF8DF
:10AD70000420ADF8065001A89847E5E7237A01338F
:10AD80002372E1E73C32002037B50B46497A0F4A7F
:10AD900071B9D2E901141D7A0246002D18BF21466F
:10ADA0005868FCF7EAF908B1FFF7B0FF03B030BD0F
:10ADB000002119725369002BF8D00122ADF806006A
:10ADC0008DF8042001A89847F0E700BF3C3200202E
:10ADD0004B8802889A4213D842889A4210D38088BE
:10ADE0008A8840F2F313984294BF031AC31A93421D
:10ADF00006D800F2F310904234BF002001207047C3
:10AE0000002070470388122B70B5014659D004D832
:10AE1000102B1ED0112B44D070BD502BFCD12F4BCA
:10AE2000C288DB899A42F7D1038A022BF4D1868843
:10AE30003046FFF761FF05460028EDD001F1120012
:10AE400000F009FA38BB6868FCF7AFF90028E3D0D6
:10AE500009E0C37B012BDFD14FF6FF70FFF74CFFFA
:10AE6000054620B90420BDE87040FFF74FBF1C4ADB
:10AE70008E880680002303721368C0F80A30536876
:10AE8000C0F80E3010310A30FFF7A2FF134B687282
:10AE9000DB89002BC0D129463046BDE87040FFF762
:10AEA00073BF8088FFF728FF04460028B4D04068AD
:10AEB000FCF77BF908B1FFF729FF4FF6FF732380FA
:10AEC000AAE786883046FFF717FF05460028A3D07B
:10AED00008310A30FFF77CFF6872DCE73C32002063
:10AEE0006C320020F8B5064648B305460FCD154F25
:10AEF0003C460FC495E8070084E807003068124C10
:10AF00003C60B0B1FFF7F3FEC0B93268136823604C
:10AF1000536863600D480E4A4FF6FF7303800D4B74
:10AF200040F8043F0021FCF71DF9002818BF03205A
:10AF300004E02046FFF7DDFE0028EBD0F8BD0E2030
:10AF4000FCE700BF3C3200206C3200205832002069
:10AF50001DAD020078320020F7B5174601900E466D
:10AF600091B1019C6CB100252C46294601A8FDF742
:10AF700078F918B13946A8B2B04701340135142D1B
:10AF8000F3D1204603B0F0BD0C46FAE70AB1FDF755
:10AF900047B9FDF75CB973B50191019C06466CB1E8
:10AFA00000252C46294601A8FDF75BF918B106EBF0
:10AFB000440301349D800135142DF3D130463460B3
:10AFC00002B070BD2DE9F04703888488103B8CB037
:10AFD00005460A2B1FD8DFE803F0063F1E1E1E1E83
:10AFE0001E1E1E604400314EB368DB43009371683F
:10AFF0006846FDF79BF9009901A8FFF7CCFF0DF11A
:10B0000008094FF00008019B984507D3132C13D96A
:10B010000420FBF7B3FF0CB0BDE8F08739F802ABB2
:10B0200000270137514606EB8700FDF710F91E2F68
:10B03000F7D108F10108E6E71D482146FDF7F0F8D1
:10B040001C482146FDF7ECF8EB7B022BE3D11A48B4
:10B050002146FDF7E5F8DEE715482146FDF7F7F84C
:10B06000D9E7027A15483F2A4FEA1215214694BFC4
:10B0700000220122FFF78AFF022D94BF0022012245
:10B080000F482146FFF782FF012D0E4894BF002292
:10B0900001222146FFF77AFFBDE7037A002BBAD1E0
:10B0A000427A0648C2F3C0022146F3E798320020F4
:10B0B000A03200209C320020A4320020B0320020B8
:10B0C000AC320020A83200201328014602D80248E2
:10B0D000FDF7C7B8002070479C32002007B50190EB
:10B0E000FFF7F2FF019930B10448FDF7BAF80028E4
:10B0F00014BF0220012003B05DF804FBA43200203D
:10B1000007B50190FFF7E0FF019930B10448FDF762
:10B11000A8F8002814BF0220012003B05DF804FB4A
:10B12000A032002007B50190FFF7CEFF019928B1AA
:10B13000044803B05DF804EBFDF793B803B05DF885
:10B1400004FB00BFA832002007B50190FFF7BCFF49
:10B15000019928B1044803B05DF804EBFDF781B80C
:10B1600003B05DF804FB00BFAC32002007B50190CE
:10B17000FFF7AAFF019928B1044803B05DF804EB7A
:10B18000FDF76FB803B05DF804FB00BFB0320020DC
:10B1900070B50A4E054630460C46FDF762F858B1C8
:10B1A0002846FFF791FF38B10734294606EB8400A3
:10B1B000BDE87040FDF755B8002070BD9832002002
:10B1C000F8B50B4F054638460C461646FDF749F8CC
:10B1D00060B12846FFF778FF40B107343246294670
:10B1E00007EB8400BDE8F840FFF7D0BEF8BD00BF14
:10B1F0009832002073B50B4D019204460E4601466D
:10B200002846FDF72EF850B1063405EB8404019A68
:10B210006068314602B0BDE87040FFF79DBE02B0E5
:10B2200070BD00BF98320020AADF704700230138AC
:10B230000B70042806D8DFE800F00306080A0C00AB
:10B2400011230B7070472123FBE73123F9E7122309
:10B25000F7E72223F5E7007800F001007047F0B52A
:10B260008B7891B0012B0C4638BF01238DF80E303E
:10B2700005460B88ADF80C300021164668460322BF
:10B2800003F025F8607C6946FFF7D0FFA07C0DF144
:10B290000101FFF7CBFFE27B237B217D43EAC20361
:10B2A000227C43EA02139DF80220002922F01902B1
:10B2B00003F0190314BF02210121134361F3420378
:10B2C0001C22002109A88DF8023003F000F8637BEE
:10B2D00013F0300F15D002AF03220021384602F0E0
:10B2E000F6FFE07C0DF10901FFF7A0FF11238DF8B7
:10B2F00008309DF80A300E97012262F342038DF860
:10B300000A30637B8DF824301422A37B8DF825301E
:10B31000002104A802F0DBFF03AB0493A388ADF87F
:10B320001C30A368CDF814D01BB1E288ADF818200A
:10B330000893A369002B31D001AF032200213846C6
:10B3400002F0C5FFA3691A88ADF82C205A88ADF821
:10B350002E205A680D97187B0A923946FFF766FF30
:10B36000A3690DF10501587BFFF760FFA269917A8F
:10B37000137A43EAC103D17A927B43EA01139DF821
:10B380000610002A03F0190321F0190114BF02224C
:10B3900001220B4362F342038DF80630E36903B1E7
:10B3A0000C93334604AA09A92846FFF73DFF11B0C4
:10B3B000F0BDA0DF7047A1DF7047ADDF7047B3DF9E
:10B3C0007047B4DF704710B50446408800F022FD96
:10B3D000A0802046BDE8104001F08CBC30B587B09D
:10B3E00005460C461422002101A802F070FF072335
:10B3F00001A88DF80430ADF806500394FFF7E3FF81
:10B4000007B030BD70B586B005461422002101A8F2
:10B4100002F05DFF4FF6FF739D42ADF806503FD03E
:10B42000284600F0E7FB1128044633D016D8D8B1DF
:10B430000B2820D02046FDF715FD1A4E1A4902466A
:10B440001A48361AF608360446F001002B46FBF778
:10B45000BCFA21462846FFF7C1FF03E043F202038E
:10B460009842E7D1002216E00E238DF8043001A89F
:10B47000FFF7A9FFF6E70F238DF8043009480B4BBF
:10B480000B49C01AC00800042A4640F00200FBF72E
:10B4900093FAECE70122074B28461978FFF790FE54
:10B4A00006B070BDE4E40200A9EF02006CE4020003
:10B4B00029EF02001B330020FFF7A4BF024B034912
:10B4C00018780022FFF796BE1D330020D1B4020089
:10B4D0002DE9F047464D88B029780446FFF758FE1D
:10B4E000A846064600287CD1204600F0E7FB082845
:10B4F000054632D016D808B306285BD02846FDF79B
:10B50000B1FC3C4F3C4902463C483F1AFF083F040F
:10B5100047F001002346FBF758FA29462046FFF77B
:10B520005DFF09E043F20203984205D043F2014374
:10B53000984259D01128E1D1012546E03146142224
:10B5400003A802F0C4FE102303A88DF80C30ADF858
:10B550000E400126FFF737FFEEE70DF10600FFF77B
:10B560002EFF354601274FF0020A0DF10809BDF8FC
:10B570000630BB421ED9002249463846CDE903A910
:10B58000FFF71FFFB0B9BDF808303DB942F60525F9
:10B590005B1B5D425D410137BFB2E8E742F6021234
:10B5A0009342F8D101AB03AA394620460493FFF732
:10B5B00004FF30B1204600F02DFC00F0ABFB00256D
:10B5C00003E0BDF80430002BF4D00D4B2A46197867
:10B5D0002046FFF7F5FD98F8001032462046FFF7A9
:10B5E000EFFD08B0BDE8F0872046FFF70BFFA3E7AB
:10B5F0001E330020E4E40200FAEF02006CE40200D3
:10B600001D33002013B5044600F004FC00236A46F5
:10B61000092100F08DFF052805D1044B012219787E
:10B620002046FFF7CDFD02B010BD00BF193300204A
:10B6300008B5084B084918780022FFF7DBFD0246E1
:10B6400030B9064B06491878BDE80840FFF7D2BD6F
:10B6500008BD00BF1C330020ADB602001933002026
:10B6600065B6020037B5044604220021684602F0A0
:10B670002EFE42F6A623ADF800300A4B1868019062
:10B68000012501AA694620468DF80250FFF791FE78
:10B6900028B9054B2A4619782046FFF791FD03B0DB
:10B6A00030BD00BFC8F102001833002070B5012181
:10B6B00086B006462A48FCF70AFE0446BFF35F8FB1
:10B6C000002849D1304600F039FA862805461ED0B8
:10B6D00017D8A8B3112841D02846FDF7C3FB214C49
:10B6E000214902462148241AE408240444F00100B8
:10B6F0003346FBF76AF929463046FFF76FFE002410
:10B7000003E043F202039842E6D122461AE02146C2
:10B71000142201A802F0DBFD06238DF80430114845
:10B72000124B1349ADF80660C01AC0080004324637
:10B7300040F00200FBF740F901A8FFF744FEE4E700
:10B74000012402460B4B30461978FFF739FD1CB92E
:10B75000BFF35F8F024B1C6006B070BD0122F1E7A2
:10B7600014330020E4E402006FF002006CE40200F5
:10B770003AF002001C33002038B503780446A3B920
:10B780004088FFF73FFE6588284600F085FA28B11B
:10B79000064B012219782846FFF712FD6088FFF753
:10B7A00031FFBDE83840FFF743BF38BD1D330020EF
:10B7B00037B50378082B044630D1427A72BB057A3C
:10B7C000072D1BD0082D2DD0012D27D180886A464A
:10B7D000294601F0EBF808BB019B1B78F3B1A08868
:10B7E00000F046FB4FF6FF73984217D0114B2A46E4
:10B7F0001978FFF7E5FCFFF761FE0FE0808800F0A5
:10B8000037FB4FF6FF739842044607D00A4B0122DC
:10B810001978FFF7D5FC2046FFF7F4FEFFF708FF85
:10B8200003B030BD054B19680129F7D1BFF35F8F15
:10B830001A60F3E71D3300201C330020143300206E
:10B8400073B50123ADF8003009238DF80230144B95
:10B85000002422460E461978CDF8034005468DF89F
:10B860000740FFF7ADFC0F4B0F492846A64218BF13
:10B870001946019100F0CEFA2246694600F0C4FE56
:10B8800060B1FDF7EFFA094B0949024609481B1A56
:10B89000DB081B0443F00200FBF78EF802B070BD1A
:10B8A00019330020D0F10200CCF10200E4E40200E0
:10B8B000ACF002006CE4020070B503888488502B61
:10B8C00086B0054638D00ED8352B48D0362B00F040
:10B8D0008C80584B584918780022FFF78BFCFFF7F3
:10B8E000EDFD06B070BD522B22D0542BF1D11422A5
:10B8F000002101A802F0EBFC112320468DF8043052
:10B90000ADF8064000F086FAADF8080000F002FA43
:10B910004A4B204619780022FFF752FC484B20463C
:10B9200019780022FFF74CFC01A8FFF74CFDD0E787
:10B930002046FFF767FDCCE7037B012BC9D1827A54
:10B94000012AC6D1018942F602139942C1D13D4B69
:10B9500020461978FFF734FCFFF76AFEB9E73A4E44
:10B9600020463178FFF714FC0028B2D0002231784D
:10B970002046FFF725FCEA88B2F5857F0AD072B130
:10B980003248334BC01AC0080004324940F002006C
:10B99000FBF712F800212046FFF752FF99E76A896A
:10B9A000012A09D029482A4B2B49C01AC008000493
:10B9B00040F00200FBF700F8AE89012E07D02348C3
:10B9C000234BC01AC008000432462449DEE7E98947
:10B9D00000222046FFF7EFFC0028DBD1204B324647
:10B9E00019782046FFF7ECFB73E71D4E20463178AF
:10B9F000FFF7CEFB00283FF46CAF317800222046E1
:10BA0000FFF7DEFBEE8836B11048114BC01AC008B4
:10BA100000043246B9E7EA89012A05D00B480C4BED
:10BA2000C01AC0080004D0E7297C003918BF0121E2
:10BA3000B1E700BF1B330020B9B402001E33002061
:10BA40001D3300201C33002018330020E4E40200E2
:10BA50006CE4020009F1020043F102007DF10200F2
:10BA60001A330020AFDF7047B1DF7047B2DF704795
:10BA7000B3DF704710B50446808800F0F9F96080A4
:10BA80002046BDE8104001F037B90000F0B5204B6A
:10BA9000204E93E8030089B001AD85E803004FF61E
:10BAA000FF773088B84217D00022294600F0ACFD5D
:10BAB000044638B31422002103A802F008FC33889E
:10BAC000ADF81030112C07D0862C07D106238DF845
:10BAD0000C3003A8FFF7CEFF09B0F0BD2046FDF7FC
